{
	"contracts/Twitter.sol": {
		"Twitter": {
			"abi": [
				{
					"inputs": [
						{
							"internalType": "address",
							"name": "_profileContract",
							"type": "address"
						}
					],
					"stateMutability": "nonpayable",
					"type": "constructor"
				},
				{
					"inputs": [
						{
							"internalType": "address",
							"name": "owner",
							"type": "address"
						}
					],
					"name": "OwnableInvalidOwner",
					"type": "error"
				},
				{
					"inputs": [
						{
							"internalType": "address",
							"name": "account",
							"type": "address"
						}
					],
					"name": "OwnableUnauthorizedAccount",
					"type": "error"
				},
				{
					"anonymous": false,
					"inputs": [
						{
							"indexed": true,
							"internalType": "address",
							"name": "previousOwner",
							"type": "address"
						},
						{
							"indexed": true,
							"internalType": "address",
							"name": "newOwner",
							"type": "address"
						}
					],
					"name": "OwnershipTransferred",
					"type": "event"
				},
				{
					"anonymous": false,
					"inputs": [
						{
							"indexed": false,
							"internalType": "uint256",
							"name": "id",
							"type": "uint256"
						},
						{
							"indexed": false,
							"internalType": "address",
							"name": "author",
							"type": "address"
						},
						{
							"indexed": false,
							"internalType": "string",
							"name": "content",
							"type": "string"
						},
						{
							"indexed": false,
							"internalType": "uint256",
							"name": "timestamp",
							"type": "uint256"
						}
					],
					"name": "TweetCreated",
					"type": "event"
				},
				{
					"anonymous": false,
					"inputs": [
						{
							"indexed": false,
							"internalType": "address",
							"name": "liker",
							"type": "address"
						},
						{
							"indexed": false,
							"internalType": "address",
							"name": "tweetAuthor",
							"type": "address"
						},
						{
							"indexed": false,
							"internalType": "uint256",
							"name": "tweetId",
							"type": "uint256"
						},
						{
							"indexed": false,
							"internalType": "uint256",
							"name": "newLikecount",
							"type": "uint256"
						}
					],
					"name": "TweetLiked",
					"type": "event"
				},
				{
					"anonymous": false,
					"inputs": [
						{
							"indexed": false,
							"internalType": "address",
							"name": "unliker",
							"type": "address"
						},
						{
							"indexed": false,
							"internalType": "address",
							"name": "tweetAuthor",
							"type": "address"
						},
						{
							"indexed": false,
							"internalType": "uint256",
							"name": "tweetId",
							"type": "uint256"
						},
						{
							"indexed": false,
							"internalType": "uint256",
							"name": "newLikecount",
							"type": "uint256"
						}
					],
					"name": "TweetUnliked",
					"type": "event"
				},
				{
					"inputs": [],
					"name": "MAX_TWEET_LENGTH",
					"outputs": [
						{
							"internalType": "uint16",
							"name": "",
							"type": "uint16"
						}
					],
					"stateMutability": "view",
					"type": "function"
				},
				{
					"inputs": [
						{
							"internalType": "uint16",
							"name": "_newTweetLength",
							"type": "uint16"
						}
					],
					"name": "changeTweetLength",
					"outputs": [],
					"stateMutability": "nonpayable",
					"type": "function"
				},
				{
					"inputs": [
						{
							"internalType": "string",
							"name": "_tweet",
							"type": "string"
						}
					],
					"name": "createTweet",
					"outputs": [],
					"stateMutability": "nonpayable",
					"type": "function"
				},
				{
					"inputs": [
						{
							"internalType": "address",
							"name": "_owner",
							"type": "address"
						}
					],
					"name": "getAllTweets",
					"outputs": [
						{
							"components": [
								{
									"internalType": "uint256",
									"name": "id",
									"type": "uint256"
								},
								{
									"internalType": "address",
									"name": "author",
									"type": "address"
								},
								{
									"internalType": "string",
									"name": "content",
									"type": "string"
								},
								{
									"internalType": "uint256",
									"name": "timestamp",
									"type": "uint256"
								},
								{
									"internalType": "uint256",
									"name": "likes",
									"type": "uint256"
								}
							],
							"internalType": "struct Twitter.Tweet[]",
							"name": "",
							"type": "tuple[]"
						}
					],
					"stateMutability": "view",
					"type": "function"
				},
				{
					"inputs": [
						{
							"internalType": "address",
							"name": "_author",
							"type": "address"
						}
					],
					"name": "getTotalLikes",
					"outputs": [
						{
							"internalType": "uint256",
							"name": "",
							"type": "uint256"
						}
					],
					"stateMutability": "view",
					"type": "function"
				},
				{
					"inputs": [
						{
							"internalType": "uint256",
							"name": "i",
							"type": "uint256"
						}
					],
					"name": "getTweet",
					"outputs": [
						{
							"components": [
								{
									"internalType": "uint256",
									"name": "id",
									"type": "uint256"
								},
								{
									"internalType": "address",
									"name": "author",
									"type": "address"
								},
								{
									"internalType": "string",
									"name": "content",
									"type": "string"
								},
								{
									"internalType": "uint256",
									"name": "timestamp",
									"type": "uint256"
								},
								{
									"internalType": "uint256",
									"name": "likes",
									"type": "uint256"
								}
							],
							"internalType": "struct Twitter.Tweet",
							"name": "",
							"type": "tuple"
						}
					],
					"stateMutability": "view",
					"type": "function"
				},
				{
					"inputs": [
						{
							"internalType": "address",
							"name": "author",
							"type": "address"
						},
						{
							"internalType": "uint256",
							"name": "id",
							"type": "uint256"
						}
					],
					"name": "likeTweet",
					"outputs": [],
					"stateMutability": "nonpayable",
					"type": "function"
				},
				{
					"inputs": [],
					"name": "owner",
					"outputs": [
						{
							"internalType": "address",
							"name": "",
							"type": "address"
						}
					],
					"stateMutability": "view",
					"type": "function"
				},
				{
					"inputs": [],
					"name": "renounceOwnership",
					"outputs": [],
					"stateMutability": "nonpayable",
					"type": "function"
				},
				{
					"inputs": [
						{
							"internalType": "address",
							"name": "newOwner",
							"type": "address"
						}
					],
					"name": "transferOwnership",
					"outputs": [],
					"stateMutability": "nonpayable",
					"type": "function"
				},
				{
					"inputs": [
						{
							"internalType": "address",
							"name": "",
							"type": "address"
						},
						{
							"internalType": "uint256",
							"name": "",
							"type": "uint256"
						}
					],
					"name": "tweets",
					"outputs": [
						{
							"internalType": "uint256",
							"name": "id",
							"type": "uint256"
						},
						{
							"internalType": "address",
							"name": "author",
							"type": "address"
						},
						{
							"internalType": "string",
							"name": "content",
							"type": "string"
						},
						{
							"internalType": "uint256",
							"name": "timestamp",
							"type": "uint256"
						},
						{
							"internalType": "uint256",
							"name": "likes",
							"type": "uint256"
						}
					],
					"stateMutability": "view",
					"type": "function"
				},
				{
					"inputs": [
						{
							"internalType": "address",
							"name": "author",
							"type": "address"
						},
						{
							"internalType": "uint256",
							"name": "id",
							"type": "uint256"
						}
					],
					"name": "unlikeTweet",
					"outputs": [],
					"stateMutability": "nonpayable",
					"type": "function"
				}
			],
			"devdoc": {
				"errors": {
					"OwnableInvalidOwner(address)": [
						{
							"details": "The owner is not a valid owner account. (eg. `address(0)`)"
						}
					],
					"OwnableUnauthorizedAccount(address)": [
						{
							"details": "The caller account is not authorized to perform an operation."
						}
					]
				},
				"kind": "dev",
				"methods": {
					"owner()": {
						"details": "Returns the address of the current owner."
					},
					"renounceOwnership()": {
						"details": "Leaves the contract without owner. It will not be possible to call `onlyOwner` functions. Can only be called by the current owner. NOTE: Renouncing ownership will leave the contract without an owner, thereby disabling any functionality that is only available to the owner."
					},
					"transferOwnership(address)": {
						"details": "Transfers ownership of the contract to a new account (`newOwner`). Can only be called by the current owner."
					}
				},
				"version": 1
			},
			"evm": {
				"assembly": "    /* \"contracts/Twitter.sol\":2573:5761  contract Twitter is Ownable {... */\n  mstore(0x40, 0x80)\n    /* \"contracts/Twitter.sol\":2660:2663  250 */\n  0xfa\n    /* \"contracts/Twitter.sol\":2627:2663  uint16 public MAX_TWEET_LENGTH = 250 */\n  0x00\n  exp(0x0100, 0x14)\n  dup2\n  sload\n  dup2\n  0xffff\n  mul\n  not\n  and\n  swap1\n  dup4\n  0xffff\n  and\n  mul\n  or\n  swap1\n  sstore\n  pop\n    /* \"contracts/Twitter.sol\":3322:3441  constructor(address _profileContract) Ownable(msg.sender) {... */\n  callvalue\n  dup1\n  iszero\n  tag_1\n  jumpi\n  0x00\n  dup1\n  revert\ntag_1:\n  pop\n  mload(0x40)\n  sub(codesize, bytecodeSize)\n  dup1\n  bytecodeSize\n  dup4\n  codecopy\n  dup2\n  dup2\n  add\n  0x40\n  mstore\n  dup2\n  add\n  swap1\n  tag_2\n  swap2\n  swap1\n  tag_3\n  jump\t// in\ntag_2:\n    /* \"contracts/Twitter.sol\":3368:3378  msg.sender */\n  caller\n    /* \"@openzeppelin/contracts/access/Ownable.sol\":1297:1298  0 */\n  0x00\n    /* \"@openzeppelin/contracts/access/Ownable.sol\":1273:1299  initialOwner == address(0) */\n  0xffffffffffffffffffffffffffffffffffffffff\n  and\n    /* \"@openzeppelin/contracts/access/Ownable.sol\":1273:1285  initialOwner */\n  dup2\n    /* \"@openzeppelin/contracts/access/Ownable.sol\":1273:1299  initialOwner == address(0) */\n  0xffffffffffffffffffffffffffffffffffffffff\n  and\n  sub\n    /* \"@openzeppelin/contracts/access/Ownable.sol\":1269:1364  if (initialOwner == address(0)) {... */\n  tag_7\n  jumpi\n    /* \"@openzeppelin/contracts/access/Ownable.sol\":1350:1351  0 */\n  0x00\n    /* \"@openzeppelin/contracts/access/Ownable.sol\":1322:1353  OwnableInvalidOwner(address(0)) */\n  mload(0x40)\n  0x1e4fbdf700000000000000000000000000000000000000000000000000000000\n  dup2\n  mstore\n  0x04\n  add\n  tag_8\n  swap2\n  swap1\n  tag_9\n  jump\t// in\ntag_8:\n  mload(0x40)\n  dup1\n  swap2\n  sub\n  swap1\n  revert\n    /* \"@openzeppelin/contracts/access/Ownable.sol\":1269:1364  if (initialOwner == address(0)) {... */\ntag_7:\n    /* \"@openzeppelin/contracts/access/Ownable.sol\":1373:1405  _transferOwnership(initialOwner) */\n  tag_10\n    /* \"@openzeppelin/contracts/access/Ownable.sol\":1392:1404  initialOwner */\n  dup2\n    /* \"@openzeppelin/contracts/access/Ownable.sol\":1373:1391  _transferOwnership */\n  shl(0x20, tag_11)\n    /* \"@openzeppelin/contracts/access/Ownable.sol\":1373:1405  _transferOwnership(initialOwner) */\n  0x20\n  shr\n  jump\t// in\ntag_10:\n    /* \"@openzeppelin/contracts/access/Ownable.sol\":1225:1412  constructor(address initialOwner) {... */\n  pop\n    /* \"contracts/Twitter.sol\":3417:3433  _profileContract */\n  dup1\n    /* \"contracts/Twitter.sol\":3390:3405  profileContract */\n  0x02\n  0x00\n    /* \"contracts/Twitter.sol\":3390:3434  profileContract = IProfile(_profileContract) */\n  0x0100\n  exp\n  dup2\n  sload\n  dup2\n  0xffffffffffffffffffffffffffffffffffffffff\n  mul\n  not\n  and\n  swap1\n  dup4\n  0xffffffffffffffffffffffffffffffffffffffff\n  and\n  mul\n  or\n  swap1\n  sstore\n  pop\n    /* \"contracts/Twitter.sol\":3322:3441  constructor(address _profileContract) Ownable(msg.sender) {... */\n  pop\n    /* \"contracts/Twitter.sol\":2573:5761  contract Twitter is Ownable {... */\n  jump(tag_13)\n    /* \"@openzeppelin/contracts/access/Ownable.sol\":2912:3099  function _transferOwnership(address newOwner) internal virtual {... */\ntag_11:\n    /* \"@openzeppelin/contracts/access/Ownable.sol\":2985:3001  address oldOwner */\n  0x00\n    /* \"@openzeppelin/contracts/access/Ownable.sol\":3004:3010  _owner */\n  dup1\n  0x00\n  swap1\n  sload\n  swap1\n  0x0100\n  exp\n  swap1\n  div\n  0xffffffffffffffffffffffffffffffffffffffff\n  and\n    /* \"@openzeppelin/contracts/access/Ownable.sol\":2985:3010  address oldOwner = _owner */\n  swap1\n  pop\n    /* \"@openzeppelin/contracts/access/Ownable.sol\":3029:3037  newOwner */\n  dup2\n    /* \"@openzeppelin/contracts/access/Ownable.sol\":3020:3026  _owner */\n  0x00\n  dup1\n    /* \"@openzeppelin/contracts/access/Ownable.sol\":3020:3037  _owner = newOwner */\n  0x0100\n  exp\n  dup2\n  sload\n  dup2\n  0xffffffffffffffffffffffffffffffffffffffff\n  mul\n  not\n  and\n  swap1\n  dup4\n  0xffffffffffffffffffffffffffffffffffffffff\n  and\n  mul\n  or\n  swap1\n  sstore\n  pop\n    /* \"@openzeppelin/contracts/access/Ownable.sol\":3083:3091  newOwner */\n  dup2\n    /* \"@openzeppelin/contracts/access/Ownable.sol\":3052:3092  OwnershipTransferred(oldOwner, newOwner) */\n  0xffffffffffffffffffffffffffffffffffffffff\n  and\n    /* \"@openzeppelin/contracts/access/Ownable.sol\":3073:3081  oldOwner */\n  dup2\n    /* \"@openzeppelin/contracts/access/Ownable.sol\":3052:3092  OwnershipTransferred(oldOwner, newOwner) */\n  0xffffffffffffffffffffffffffffffffffffffff\n  and\n  0x8be0079c531659141344cd1fd0a4f28419497f9722a3daafe3b4186f6b6457e0\n  mload(0x40)\n  mload(0x40)\n  dup1\n  swap2\n  sub\n  swap1\n  log3\n    /* \"@openzeppelin/contracts/access/Ownable.sol\":2975:3099  {... */\n  pop\n    /* \"@openzeppelin/contracts/access/Ownable.sol\":2912:3099  function _transferOwnership(address newOwner) internal virtual {... */\n  pop\n  jump\t// out\n    /* \"#utility.yul\":88:205   */\ntag_16:\n    /* \"#utility.yul\":197:198   */\n  0x00\n    /* \"#utility.yul\":194:195   */\n  dup1\n    /* \"#utility.yul\":187:199   */\n  revert\n    /* \"#utility.yul\":334:460   */\ntag_18:\n    /* \"#utility.yul\":371:378   */\n  0x00\n    /* \"#utility.yul\":411:453   */\n  0xffffffffffffffffffffffffffffffffffffffff\n    /* \"#utility.yul\":404:409   */\n  dup3\n    /* \"#utility.yul\":400:454   */\n  and\n    /* \"#utility.yul\":389:454   */\n  swap1\n  pop\n    /* \"#utility.yul\":334:460   */\n  swap2\n  swap1\n  pop\n  jump\t// out\n    /* \"#utility.yul\":466:562   */\ntag_19:\n    /* \"#utility.yul\":503:510   */\n  0x00\n    /* \"#utility.yul\":532:556   */\n  tag_29\n    /* \"#utility.yul\":550:555   */\n  dup3\n    /* \"#utility.yul\":532:556   */\n  tag_18\n  jump\t// in\ntag_29:\n    /* \"#utility.yul\":521:556   */\n  swap1\n  pop\n    /* \"#utility.yul\":466:562   */\n  swap2\n  swap1\n  pop\n  jump\t// out\n    /* \"#utility.yul\":568:690   */\ntag_20:\n    /* \"#utility.yul\":641:665   */\n  tag_31\n    /* \"#utility.yul\":659:664   */\n  dup2\n    /* \"#utility.yul\":641:665   */\n  tag_19\n  jump\t// in\ntag_31:\n    /* \"#utility.yul\":634:639   */\n  dup2\n    /* \"#utility.yul\":631:666   */\n  eq\n    /* \"#utility.yul\":621:684   */\n  tag_32\n  jumpi\n    /* \"#utility.yul\":680:681   */\n  0x00\n    /* \"#utility.yul\":677:678   */\n  dup1\n    /* \"#utility.yul\":670:682   */\n  revert\n    /* \"#utility.yul\":621:684   */\ntag_32:\n    /* \"#utility.yul\":568:690   */\n  pop\n  jump\t// out\n    /* \"#utility.yul\":696:839   */\ntag_21:\n    /* \"#utility.yul\":753:758   */\n  0x00\n    /* \"#utility.yul\":784:790   */\n  dup2\n    /* \"#utility.yul\":778:791   */\n  mload\n    /* \"#utility.yul\":769:791   */\n  swap1\n  pop\n    /* \"#utility.yul\":800:833   */\n  tag_34\n    /* \"#utility.yul\":827:832   */\n  dup2\n    /* \"#utility.yul\":800:833   */\n  tag_20\n  jump\t// in\ntag_34:\n    /* \"#utility.yul\":696:839   */\n  swap3\n  swap2\n  pop\n  pop\n  jump\t// out\n    /* \"#utility.yul\":845:1196   */\ntag_3:\n    /* \"#utility.yul\":915:921   */\n  0x00\n    /* \"#utility.yul\":964:966   */\n  0x20\n    /* \"#utility.yul\":952:961   */\n  dup3\n    /* \"#utility.yul\":943:950   */\n  dup5\n    /* \"#utility.yul\":939:962   */\n  sub\n    /* \"#utility.yul\":935:967   */\n  slt\n    /* \"#utility.yul\":932:1051   */\n  iszero\n  tag_36\n  jumpi\n    /* \"#utility.yul\":970:1049   */\n  tag_37\n  tag_16\n  jump\t// in\ntag_37:\n    /* \"#utility.yul\":932:1051   */\ntag_36:\n    /* \"#utility.yul\":1090:1091   */\n  0x00\n    /* \"#utility.yul\":1115:1179   */\n  tag_38\n    /* \"#utility.yul\":1171:1178   */\n  dup5\n    /* \"#utility.yul\":1162:1168   */\n  dup3\n    /* \"#utility.yul\":1151:1160   */\n  dup6\n    /* \"#utility.yul\":1147:1169   */\n  add\n    /* \"#utility.yul\":1115:1179   */\n  tag_21\n  jump\t// in\ntag_38:\n    /* \"#utility.yul\":1105:1179   */\n  swap2\n  pop\n    /* \"#utility.yul\":1061:1189   */\n  pop\n    /* \"#utility.yul\":845:1196   */\n  swap3\n  swap2\n  pop\n  pop\n  jump\t// out\n    /* \"#utility.yul\":1202:1320   */\ntag_22:\n    /* \"#utility.yul\":1289:1313   */\n  tag_40\n    /* \"#utility.yul\":1307:1312   */\n  dup2\n    /* \"#utility.yul\":1289:1313   */\n  tag_19\n  jump\t// in\ntag_40:\n    /* \"#utility.yul\":1284:1287   */\n  dup3\n    /* \"#utility.yul\":1277:1314   */\n  mstore\n    /* \"#utility.yul\":1202:1320   */\n  pop\n  pop\n  jump\t// out\n    /* \"#utility.yul\":1326:1548   */\ntag_9:\n    /* \"#utility.yul\":1419:1423   */\n  0x00\n    /* \"#utility.yul\":1457:1459   */\n  0x20\n    /* \"#utility.yul\":1446:1455   */\n  dup3\n    /* \"#utility.yul\":1442:1460   */\n  add\n    /* \"#utility.yul\":1434:1460   */\n  swap1\n  pop\n    /* \"#utility.yul\":1470:1541   */\n  tag_42\n    /* \"#utility.yul\":1538:1539   */\n  0x00\n    /* \"#utility.yul\":1527:1536   */\n  dup4\n    /* \"#utility.yul\":1523:1540   */\n  add\n    /* \"#utility.yul\":1514:1520   */\n  dup5\n    /* \"#utility.yul\":1470:1541   */\n  tag_22\n  jump\t// in\ntag_42:\n    /* \"#utility.yul\":1326:1548   */\n  swap3\n  swap2\n  pop\n  pop\n  jump\t// out\n    /* \"contracts/Twitter.sol\":2573:5761  contract Twitter is Ownable {... */\ntag_13:\n  dataSize(sub_0)\n  dup1\n  dataOffset(sub_0)\n  0x00\n  codecopy\n  0x00\n  return\nstop\n\nsub_0: assembly {\n        /* \"contracts/Twitter.sol\":2573:5761  contract Twitter is Ownable {... */\n      mstore(0x40, 0x80)\n      callvalue\n      dup1\n      iszero\n      tag_1\n      jumpi\n      0x00\n      dup1\n      revert\n    tag_1:\n      pop\n      jumpi(tag_2, lt(calldatasize, 0x04))\n      shr(0xe0, calldataload(0x00))\n      dup1\n      0x715018a6\n      gt\n      tag_15\n      jumpi\n      dup1\n      0x715018a6\n      eq\n      tag_9\n      jumpi\n      dup1\n      0x7c9cd2bc\n      eq\n      tag_10\n      jumpi\n      dup1\n      0x820785cc\n      eq\n      tag_11\n      jumpi\n      dup1\n      0x8da5cb5b\n      eq\n      tag_12\n      jumpi\n      dup1\n      0xc3ad5ecb\n      eq\n      tag_13\n      jumpi\n      dup1\n      0xf2fde38b\n      eq\n      tag_14\n      jumpi\n      jump(tag_2)\n    tag_15:\n      dup1\n      0x05a1b4a9\n      eq\n      tag_3\n      jumpi\n      dup1\n      0x12e7ee1c\n      eq\n      tag_4\n      jumpi\n      dup1\n      0x3d9b569f\n      eq\n      tag_5\n      jumpi\n      dup1\n      0x58bfa4ab\n      eq\n      tag_6\n      jumpi\n      dup1\n      0x63378216\n      eq\n      tag_7\n      jumpi\n      dup1\n      0x6eb10797\n      eq\n      tag_8\n      jumpi\n    tag_2:\n      0x00\n      dup1\n      revert\n        /* \"contracts/Twitter.sol\":2813:2854  mapping(address => Tweet[]) public tweets */\n    tag_3:\n      tag_16\n      0x04\n      dup1\n      calldatasize\n      sub\n      dup2\n      add\n      swap1\n      tag_17\n      swap2\n      swap1\n      tag_18\n      jump\t// in\n    tag_17:\n      tag_19\n      jump\t// in\n    tag_16:\n      mload(0x40)\n      tag_20\n      swap6\n      swap5\n      swap4\n      swap3\n      swap2\n      swap1\n      tag_21\n      jump\t// in\n    tag_20:\n      mload(0x40)\n      dup1\n      swap2\n      sub\n      swap1\n      return\n        /* \"contracts/Twitter.sol\":5646:5759  function getAllTweets(address _owner) public view returns (Tweet[] memory) {... */\n    tag_4:\n      tag_22\n      0x04\n      dup1\n      calldatasize\n      sub\n      dup2\n      add\n      swap1\n      tag_23\n      swap2\n      swap1\n      tag_24\n      jump\t// in\n    tag_23:\n      tag_25\n      jump\t// in\n    tag_22:\n      mload(0x40)\n      tag_26\n      swap2\n      swap1\n      tag_27\n      jump\t// in\n    tag_26:\n      mload(0x40)\n      dup1\n      swap2\n      sub\n      swap1\n      return\n        /* \"contracts/Twitter.sol\":5194:5525  function unlikeTweet(address author, uint256 id) external onlyRegistred {... */\n    tag_5:\n      tag_28\n      0x04\n      dup1\n      calldatasize\n      sub\n      dup2\n      add\n      swap1\n      tag_29\n      swap2\n      swap1\n      tag_18\n      jump\t// in\n    tag_29:\n      tag_30\n      jump\t// in\n    tag_28:\n      stop\n        /* \"contracts/Twitter.sol\":3843:3962  function changeTweetLength(uint16 _newTweetLength) public onlyOwner {... */\n    tag_6:\n      tag_31\n      0x04\n      dup1\n      calldatasize\n      sub\n      dup2\n      add\n      swap1\n      tag_32\n      swap2\n      swap1\n      tag_33\n      jump\t// in\n    tag_32:\n      tag_34\n      jump\t// in\n    tag_31:\n      stop\n        /* \"contracts/Twitter.sol\":4929:5188  function likeTweet(address author, uint256 id) external onlyRegistred {... */\n    tag_7:\n      tag_35\n      0x04\n      dup1\n      calldatasize\n      sub\n      dup2\n      add\n      swap1\n      tag_36\n      swap2\n      swap1\n      tag_18\n      jump\t// in\n    tag_36:\n      tag_37\n      jump\t// in\n    tag_35:\n      stop\n        /* \"contracts/Twitter.sol\":2627:2663  uint16 public MAX_TWEET_LENGTH = 250 */\n    tag_8:\n      tag_38\n      tag_39\n      jump\t// in\n    tag_38:\n      mload(0x40)\n      tag_40\n      swap2\n      swap1\n      tag_41\n      jump\t// in\n    tag_40:\n      mload(0x40)\n      dup1\n      swap2\n      sub\n      swap1\n      return\n        /* \"@openzeppelin/contracts/access/Ownable.sol\":2293:2394  function renounceOwnership() public virtual onlyOwner {... */\n    tag_9:\n      tag_42\n      tag_43\n      jump\t// in\n    tag_42:\n      stop\n        /* \"contracts/Twitter.sol\":4237:4923  function createTweet(string memory _tweet) public onlyRegistred {... */\n    tag_10:\n      tag_44\n      0x04\n      dup1\n      calldatasize\n      sub\n      dup2\n      add\n      swap1\n      tag_45\n      swap2\n      swap1\n      tag_46\n      jump\t// in\n    tag_45:\n      tag_47\n      jump\t// in\n    tag_44:\n      stop\n        /* \"contracts/Twitter.sol\":3968:4231  function getTotalLikes(address _author) external view returns (uint256) {... */\n    tag_11:\n      tag_48\n      0x04\n      dup1\n      calldatasize\n      sub\n      dup2\n      add\n      swap1\n      tag_49\n      swap2\n      swap1\n      tag_24\n      jump\t// in\n    tag_49:\n      tag_50\n      jump\t// in\n    tag_48:\n      mload(0x40)\n      tag_51\n      swap2\n      swap1\n      tag_52\n      jump\t// in\n    tag_51:\n      mload(0x40)\n      dup1\n      swap2\n      sub\n      swap1\n      return\n        /* \"@openzeppelin/contracts/access/Ownable.sol\":1638:1723  function owner() public view virtual returns (address) {... */\n    tag_12:\n      tag_53\n      tag_54\n      jump\t// in\n    tag_53:\n      mload(0x40)\n      tag_55\n      swap2\n      swap1\n      tag_56\n      jump\t// in\n    tag_55:\n      mload(0x40)\n      dup1\n      swap2\n      sub\n      swap1\n      return\n        /* \"contracts/Twitter.sol\":5531:5640  function getTweet(uint256 i) public view returns (Tweet memory) {... */\n    tag_13:\n      tag_57\n      0x04\n      dup1\n      calldatasize\n      sub\n      dup2\n      add\n      swap1\n      tag_58\n      swap2\n      swap1\n      tag_59\n      jump\t// in\n    tag_58:\n      tag_60\n      jump\t// in\n    tag_57:\n      mload(0x40)\n      tag_61\n      swap2\n      swap1\n      tag_62\n      jump\t// in\n    tag_61:\n      mload(0x40)\n      dup1\n      swap2\n      sub\n      swap1\n      return\n        /* \"@openzeppelin/contracts/access/Ownable.sol\":2543:2758  function transferOwnership(address newOwner) public virtual onlyOwner {... */\n    tag_14:\n      tag_63\n      0x04\n      dup1\n      calldatasize\n      sub\n      dup2\n      add\n      swap1\n      tag_64\n      swap2\n      swap1\n      tag_24\n      jump\t// in\n    tag_64:\n      tag_65\n      jump\t// in\n    tag_63:\n      stop\n        /* \"contracts/Twitter.sol\":2813:2854  mapping(address => Tweet[]) public tweets */\n    tag_19:\n      mstore(0x20, 0x01)\n      dup2\n      0x00\n      mstore\n      keccak256(0x00, 0x40)\n      dup2\n      dup2\n      sload\n      dup2\n      lt\n      tag_66\n      jumpi\n      0x00\n      dup1\n      revert\n    tag_66:\n      swap1\n      0x00\n      mstore\n      keccak256(0x00, 0x20)\n      swap1\n      0x05\n      mul\n      add\n      0x00\n      swap2\n      pop\n      swap2\n      pop\n      pop\n      dup1\n      0x00\n      add\n      sload\n      swap1\n      dup1\n      0x01\n      add\n      0x00\n      swap1\n      sload\n      swap1\n      0x0100\n      exp\n      swap1\n      div\n      0xffffffffffffffffffffffffffffffffffffffff\n      and\n      swap1\n      dup1\n      0x02\n      add\n      dup1\n      sload\n      tag_68\n      swap1\n      tag_69\n      jump\t// in\n    tag_68:\n      dup1\n      0x1f\n      add\n      0x20\n      dup1\n      swap2\n      div\n      mul\n      0x20\n      add\n      mload(0x40)\n      swap1\n      dup2\n      add\n      0x40\n      mstore\n      dup1\n      swap3\n      swap2\n      swap1\n      dup2\n      dup2\n      mstore\n      0x20\n      add\n      dup3\n      dup1\n      sload\n      tag_70\n      swap1\n      tag_69\n      jump\t// in\n    tag_70:\n      dup1\n      iszero\n      tag_71\n      jumpi\n      dup1\n      0x1f\n      lt\n      tag_72\n      jumpi\n      0x0100\n      dup1\n      dup4\n      sload\n      div\n      mul\n      dup4\n      mstore\n      swap2\n      0x20\n      add\n      swap2\n      jump(tag_71)\n    tag_72:\n      dup3\n      add\n      swap2\n      swap1\n      0x00\n      mstore\n      keccak256(0x00, 0x20)\n      swap1\n    tag_73:\n      dup2\n      sload\n      dup2\n      mstore\n      swap1\n      0x01\n      add\n      swap1\n      0x20\n      add\n      dup1\n      dup4\n      gt\n      tag_73\n      jumpi\n      dup3\n      swap1\n      sub\n      0x1f\n      and\n      dup3\n      add\n      swap2\n    tag_71:\n      pop\n      pop\n      pop\n      pop\n      pop\n      swap1\n      dup1\n      0x03\n      add\n      sload\n      swap1\n      dup1\n      0x04\n      add\n      sload\n      swap1\n      pop\n      dup6\n      jump\t// out\n        /* \"contracts/Twitter.sol\":5646:5759  function getAllTweets(address _owner) public view returns (Tweet[] memory) {... */\n    tag_25:\n        /* \"contracts/Twitter.sol\":5705:5719  Tweet[] memory */\n      0x60\n        /* \"contracts/Twitter.sol\":5738:5744  tweets */\n      0x01\n        /* \"contracts/Twitter.sol\":5738:5752  tweets[_owner] */\n      0x00\n        /* \"contracts/Twitter.sol\":5745:5751  _owner */\n      dup4\n        /* \"contracts/Twitter.sol\":5738:5752  tweets[_owner] */\n      0xffffffffffffffffffffffffffffffffffffffff\n      and\n      0xffffffffffffffffffffffffffffffffffffffff\n      and\n      dup2\n      mstore\n      0x20\n      add\n      swap1\n      dup2\n      mstore\n      0x20\n      add\n      0x00\n      keccak256\n        /* \"contracts/Twitter.sol\":5731:5752  return tweets[_owner] */\n      dup1\n      sload\n      dup1\n      0x20\n      mul\n      0x20\n      add\n      mload(0x40)\n      swap1\n      dup2\n      add\n      0x40\n      mstore\n      dup1\n      swap3\n      swap2\n      swap1\n      dup2\n      dup2\n      mstore\n      0x20\n      add\n      0x00\n      swap1\n    tag_75:\n      dup3\n      dup3\n      lt\n      iszero\n      tag_76\n      jumpi\n      dup4\n      dup3\n      swap1\n      0x00\n      mstore\n      keccak256(0x00, 0x20)\n      swap1\n      0x05\n      mul\n      add\n      mload(0x40)\n      dup1\n      0xa0\n      add\n      0x40\n      mstore\n      swap1\n      dup2\n      0x00\n      dup3\n      add\n      sload\n      dup2\n      mstore\n      0x20\n      add\n      0x01\n      dup3\n      add\n      0x00\n      swap1\n      sload\n      swap1\n      0x0100\n      exp\n      swap1\n      div\n      0xffffffffffffffffffffffffffffffffffffffff\n      and\n      0xffffffffffffffffffffffffffffffffffffffff\n      and\n      0xffffffffffffffffffffffffffffffffffffffff\n      and\n      dup2\n      mstore\n      0x20\n      add\n      0x02\n      dup3\n      add\n      dup1\n      sload\n      tag_78\n      swap1\n      tag_69\n      jump\t// in\n    tag_78:\n      dup1\n      0x1f\n      add\n      0x20\n      dup1\n      swap2\n      div\n      mul\n      0x20\n      add\n      mload(0x40)\n      swap1\n      dup2\n      add\n      0x40\n      mstore\n      dup1\n      swap3\n      swap2\n      swap1\n      dup2\n      dup2\n      mstore\n      0x20\n      add\n      dup3\n      dup1\n      sload\n      tag_79\n      swap1\n      tag_69\n      jump\t// in\n    tag_79:\n      dup1\n      iszero\n      tag_80\n      jumpi\n      dup1\n      0x1f\n      lt\n      tag_81\n      jumpi\n      0x0100\n      dup1\n      dup4\n      sload\n      div\n      mul\n      dup4\n      mstore\n      swap2\n      0x20\n      add\n      swap2\n      jump(tag_80)\n    tag_81:\n      dup3\n      add\n      swap2\n      swap1\n      0x00\n      mstore\n      keccak256(0x00, 0x20)\n      swap1\n    tag_82:\n      dup2\n      sload\n      dup2\n      mstore\n      swap1\n      0x01\n      add\n      swap1\n      0x20\n      add\n      dup1\n      dup4\n      gt\n      tag_82\n      jumpi\n      dup3\n      swap1\n      sub\n      0x1f\n      and\n      dup3\n      add\n      swap2\n    tag_80:\n      pop\n      pop\n      pop\n      pop\n      pop\n      dup2\n      mstore\n      0x20\n      add\n      0x03\n      dup3\n      add\n      sload\n      dup2\n      mstore\n      0x20\n      add\n      0x04\n      dup3\n      add\n      sload\n      dup2\n      mstore\n      pop\n      pop\n      dup2\n      mstore\n      0x20\n      add\n      swap1\n      0x01\n      add\n      swap1\n      jump(tag_75)\n    tag_76:\n      pop\n      pop\n      pop\n      pop\n      swap1\n      pop\n        /* \"contracts/Twitter.sol\":5646:5759  function getAllTweets(address _owner) public view returns (Tweet[] memory) {... */\n      swap2\n      swap1\n      pop\n      jump\t// out\n        /* \"contracts/Twitter.sol\":5194:5525  function unlikeTweet(address author, uint256 id) external onlyRegistred {... */\n    tag_30:\n        /* \"contracts/Twitter.sol\":3602:3645  IProfile.UserProfile memory userProfileTemp */\n      0x00\n        /* \"contracts/Twitter.sol\":3648:3663  profileContract */\n      0x02\n      0x00\n      swap1\n      sload\n      swap1\n      0x0100\n      exp\n      swap1\n      div\n      0xffffffffffffffffffffffffffffffffffffffff\n      and\n        /* \"contracts/Twitter.sol\":3648:3687  profileContract... */\n      0xffffffffffffffffffffffffffffffffffffffff\n      and\n      0x0f53a470\n        /* \"contracts/Twitter.sol\":3688:3698  msg.sender */\n      caller\n        /* \"contracts/Twitter.sol\":3648:3699  profileContract... */\n      mload(0x40)\n      dup3\n      0xffffffff\n      and\n      0xe0\n      shl\n      dup2\n      mstore\n      0x04\n      add\n      tag_84\n      swap2\n      swap1\n      tag_56\n      jump\t// in\n    tag_84:\n      0x00\n      mload(0x40)\n      dup1\n      dup4\n      sub\n      dup2\n      dup7\n      gas\n      staticcall\n      iszero\n      dup1\n      iszero\n      tag_86\n      jumpi\n      returndatasize\n      0x00\n      dup1\n      returndatacopy\n      revert(0x00, returndatasize)\n    tag_86:\n      pop\n      pop\n      pop\n      pop\n      mload(0x40)\n      returndatasize\n      0x00\n      dup3\n      returndatacopy\n      returndatasize\n      not(0x1f)\n      0x1f\n      dup3\n      add\n      and\n      dup3\n      add\n      dup1\n      0x40\n      mstore\n      pop\n      dup2\n      add\n      swap1\n      tag_87\n      swap2\n      swap1\n      tag_88\n      jump\t// in\n    tag_87:\n        /* \"contracts/Twitter.sol\":3602:3699  IProfile.UserProfile memory userProfileTemp = profileContract... */\n      swap1\n      pop\n        /* \"contracts/Twitter.sol\":3774:3775  0 */\n      0x00\n        /* \"contracts/Twitter.sol\":3736:3751  userProfileTemp */\n      dup2\n        /* \"contracts/Twitter.sol\":3736:3763  userProfileTemp.displayNAme */\n      0x00\n      add\n      mload\n        /* \"contracts/Twitter.sol\":3730:3771  bytes(userProfileTemp.displayNAme).length */\n      mload\n        /* \"contracts/Twitter.sol\":3730:3775  bytes(userProfileTemp.displayNAme).length > 0 */\n      gt\n        /* \"contracts/Twitter.sol\":3709:3819  require(... */\n      tag_89\n      jumpi\n      mload(0x40)\n      0x08c379a000000000000000000000000000000000000000000000000000000000\n      dup2\n      mstore\n      0x04\n      add\n      tag_90\n      swap1\n      tag_91\n      jump\t// in\n    tag_90:\n      mload(0x40)\n      dup1\n      swap2\n      sub\n      swap1\n      revert\n    tag_89:\n        /* \"contracts/Twitter.sol\":5309:5311  id */\n      dup2\n        /* \"contracts/Twitter.sol\":5284:5290  tweets */\n      0x01\n        /* \"contracts/Twitter.sol\":5284:5298  tweets[author] */\n      0x00\n        /* \"contracts/Twitter.sol\":5291:5297  author */\n      dup6\n        /* \"contracts/Twitter.sol\":5284:5298  tweets[author] */\n      0xffffffffffffffffffffffffffffffffffffffff\n      and\n      0xffffffffffffffffffffffffffffffffffffffff\n      and\n      dup2\n      mstore\n      0x20\n      add\n      swap1\n      dup2\n      mstore\n      0x20\n      add\n      0x00\n      keccak256\n        /* \"contracts/Twitter.sol\":5299:5301  id */\n      dup4\n        /* \"contracts/Twitter.sol\":5284:5302  tweets[author][id] */\n      dup2\n      sload\n      dup2\n      lt\n      tag_93\n      jumpi\n      tag_94\n      tag_95\n      jump\t// in\n    tag_94:\n    tag_93:\n      swap1\n      0x00\n      mstore\n      keccak256(0x00, 0x20)\n      swap1\n      0x05\n      mul\n      add\n        /* \"contracts/Twitter.sol\":5284:5305  tweets[author][id].id */\n      0x00\n      add\n      sload\n        /* \"contracts/Twitter.sol\":5284:5311  tweets[author][id].id == id */\n      eq\n        /* \"contracts/Twitter.sol\":5276:5336  require(tweets[author][id].id == id, \"TWEET DOES NOT EXIST\") */\n      tag_97\n      jumpi\n      mload(0x40)\n      0x08c379a000000000000000000000000000000000000000000000000000000000\n      dup2\n      mstore\n      0x04\n      add\n      tag_98\n      swap1\n      tag_99\n      jump\t// in\n    tag_98:\n      mload(0x40)\n      dup1\n      swap2\n      sub\n      swap1\n      revert\n    tag_97:\n        /* \"contracts/Twitter.sol\":5381:5382  0 */\n      0x00\n        /* \"contracts/Twitter.sol\":5354:5360  tweets */\n      0x01\n        /* \"contracts/Twitter.sol\":5354:5368  tweets[author] */\n      0x00\n        /* \"contracts/Twitter.sol\":5361:5367  author */\n      dup6\n        /* \"contracts/Twitter.sol\":5354:5368  tweets[author] */\n      0xffffffffffffffffffffffffffffffffffffffff\n      and\n      0xffffffffffffffffffffffffffffffffffffffff\n      and\n      dup2\n      mstore\n      0x20\n      add\n      swap1\n      dup2\n      mstore\n      0x20\n      add\n      0x00\n      keccak256\n        /* \"contracts/Twitter.sol\":5369:5371  id */\n      dup4\n        /* \"contracts/Twitter.sol\":5354:5372  tweets[author][id] */\n      dup2\n      sload\n      dup2\n      lt\n      tag_100\n      jumpi\n      tag_101\n      tag_95\n      jump\t// in\n    tag_101:\n    tag_100:\n      swap1\n      0x00\n      mstore\n      keccak256(0x00, 0x20)\n      swap1\n      0x05\n      mul\n      add\n        /* \"contracts/Twitter.sol\":5354:5378  tweets[author][id].likes */\n      0x04\n      add\n      sload\n        /* \"contracts/Twitter.sol\":5354:5382  tweets[author][id].likes > 0 */\n      gt\n        /* \"contracts/Twitter.sol\":5346:5405  require(tweets[author][id].likes > 0, \"TWEET HAS NO LIKES\") */\n      tag_103\n      jumpi\n      mload(0x40)\n      0x08c379a000000000000000000000000000000000000000000000000000000000\n      dup2\n      mstore\n      0x04\n      add\n      tag_104\n      swap1\n      tag_105\n      jump\t// in\n    tag_104:\n      mload(0x40)\n      dup1\n      swap2\n      sub\n      swap1\n      revert\n    tag_103:\n        /* \"contracts/Twitter.sol\":5415:5421  tweets */\n      0x01\n        /* \"contracts/Twitter.sol\":5415:5429  tweets[author] */\n      0x00\n        /* \"contracts/Twitter.sol\":5422:5428  author */\n      dup5\n        /* \"contracts/Twitter.sol\":5415:5429  tweets[author] */\n      0xffffffffffffffffffffffffffffffffffffffff\n      and\n      0xffffffffffffffffffffffffffffffffffffffff\n      and\n      dup2\n      mstore\n      0x20\n      add\n      swap1\n      dup2\n      mstore\n      0x20\n      add\n      0x00\n      keccak256\n        /* \"contracts/Twitter.sol\":5430:5432  id */\n      dup3\n        /* \"contracts/Twitter.sol\":5415:5433  tweets[author][id] */\n      dup2\n      sload\n      dup2\n      lt\n      tag_106\n      jumpi\n      tag_107\n      tag_95\n      jump\t// in\n    tag_107:\n    tag_106:\n      swap1\n      0x00\n      mstore\n      keccak256(0x00, 0x20)\n      swap1\n      0x05\n      mul\n      add\n        /* \"contracts/Twitter.sol\":5415:5439  tweets[author][id].likes */\n      0x04\n      add\n      0x00\n        /* \"contracts/Twitter.sol\":5415:5441  tweets[author][id].likes-- */\n      dup2\n      sload\n      dup1\n      swap3\n      swap2\n      swap1\n      tag_109\n      swap1\n      tag_110\n      jump\t// in\n    tag_109:\n      swap2\n      swap1\n      pop\n      sstore\n      pop\n        /* \"contracts/Twitter.sol\":5456:5518  TweetUnliked(msg.sender, author, id, tweets[author][id].likes) */\n      0x762c2616349603ac16eba0de8e6141b79129a07ab63bd99e0a80b3a471716943\n        /* \"contracts/Twitter.sol\":5469:5479  msg.sender */\n      caller\n        /* \"contracts/Twitter.sol\":5481:5487  author */\n      dup5\n        /* \"contracts/Twitter.sol\":5489:5491  id */\n      dup5\n        /* \"contracts/Twitter.sol\":5493:5499  tweets */\n      0x01\n        /* \"contracts/Twitter.sol\":5493:5507  tweets[author] */\n      0x00\n        /* \"contracts/Twitter.sol\":5500:5506  author */\n      dup9\n        /* \"contracts/Twitter.sol\":5493:5507  tweets[author] */\n      0xffffffffffffffffffffffffffffffffffffffff\n      and\n      0xffffffffffffffffffffffffffffffffffffffff\n      and\n      dup2\n      mstore\n      0x20\n      add\n      swap1\n      dup2\n      mstore\n      0x20\n      add\n      0x00\n      keccak256\n        /* \"contracts/Twitter.sol\":5508:5510  id */\n      dup7\n        /* \"contracts/Twitter.sol\":5493:5511  tweets[author][id] */\n      dup2\n      sload\n      dup2\n      lt\n      tag_111\n      jumpi\n      tag_112\n      tag_95\n      jump\t// in\n    tag_112:\n    tag_111:\n      swap1\n      0x00\n      mstore\n      keccak256(0x00, 0x20)\n      swap1\n      0x05\n      mul\n      add\n        /* \"contracts/Twitter.sol\":5493:5517  tweets[author][id].likes */\n      0x04\n      add\n      sload\n        /* \"contracts/Twitter.sol\":5456:5518  TweetUnliked(msg.sender, author, id, tweets[author][id].likes) */\n      mload(0x40)\n      tag_114\n      swap5\n      swap4\n      swap3\n      swap2\n      swap1\n      tag_115\n      jump\t// in\n    tag_114:\n      mload(0x40)\n      dup1\n      swap2\n      sub\n      swap1\n      log1\n        /* \"contracts/Twitter.sol\":3592:3837  {... */\n      pop\n        /* \"contracts/Twitter.sol\":5194:5525  function unlikeTweet(address author, uint256 id) external onlyRegistred {... */\n      pop\n      pop\n      jump\t// out\n        /* \"contracts/Twitter.sol\":3843:3962  function changeTweetLength(uint16 _newTweetLength) public onlyOwner {... */\n    tag_34:\n        /* \"@openzeppelin/contracts/access/Ownable.sol\":1531:1544  _checkOwner() */\n      tag_117\n        /* \"@openzeppelin/contracts/access/Ownable.sol\":1531:1542  _checkOwner */\n      tag_118\n        /* \"@openzeppelin/contracts/access/Ownable.sol\":1531:1544  _checkOwner() */\n      jump\t// in\n    tag_117:\n        /* \"contracts/Twitter.sol\":3940:3955  _newTweetLength */\n      dup1\n        /* \"contracts/Twitter.sol\":3921:3937  MAX_TWEET_LENGTH */\n      0x00\n      0x14\n        /* \"contracts/Twitter.sol\":3921:3955  MAX_TWEET_LENGTH = _newTweetLength */\n      0x0100\n      exp\n      dup2\n      sload\n      dup2\n      0xffff\n      mul\n      not\n      and\n      swap1\n      dup4\n      0xffff\n      and\n      mul\n      or\n      swap1\n      sstore\n      pop\n        /* \"contracts/Twitter.sol\":3843:3962  function changeTweetLength(uint16 _newTweetLength) public onlyOwner {... */\n      pop\n      jump\t// out\n        /* \"contracts/Twitter.sol\":4929:5188  function likeTweet(address author, uint256 id) external onlyRegistred {... */\n    tag_37:\n        /* \"contracts/Twitter.sol\":3602:3645  IProfile.UserProfile memory userProfileTemp */\n      0x00\n        /* \"contracts/Twitter.sol\":3648:3663  profileContract */\n      0x02\n      0x00\n      swap1\n      sload\n      swap1\n      0x0100\n      exp\n      swap1\n      div\n      0xffffffffffffffffffffffffffffffffffffffff\n      and\n        /* \"contracts/Twitter.sol\":3648:3687  profileContract... */\n      0xffffffffffffffffffffffffffffffffffffffff\n      and\n      0x0f53a470\n        /* \"contracts/Twitter.sol\":3688:3698  msg.sender */\n      caller\n        /* \"contracts/Twitter.sol\":3648:3699  profileContract... */\n      mload(0x40)\n      dup3\n      0xffffffff\n      and\n      0xe0\n      shl\n      dup2\n      mstore\n      0x04\n      add\n      tag_121\n      swap2\n      swap1\n      tag_56\n      jump\t// in\n    tag_121:\n      0x00\n      mload(0x40)\n      dup1\n      dup4\n      sub\n      dup2\n      dup7\n      gas\n      staticcall\n      iszero\n      dup1\n      iszero\n      tag_123\n      jumpi\n      returndatasize\n      0x00\n      dup1\n      returndatacopy\n      revert(0x00, returndatasize)\n    tag_123:\n      pop\n      pop\n      pop\n      pop\n      mload(0x40)\n      returndatasize\n      0x00\n      dup3\n      returndatacopy\n      returndatasize\n      not(0x1f)\n      0x1f\n      dup3\n      add\n      and\n      dup3\n      add\n      dup1\n      0x40\n      mstore\n      pop\n      dup2\n      add\n      swap1\n      tag_124\n      swap2\n      swap1\n      tag_88\n      jump\t// in\n    tag_124:\n        /* \"contracts/Twitter.sol\":3602:3699  IProfile.UserProfile memory userProfileTemp = profileContract... */\n      swap1\n      pop\n        /* \"contracts/Twitter.sol\":3774:3775  0 */\n      0x00\n        /* \"contracts/Twitter.sol\":3736:3751  userProfileTemp */\n      dup2\n        /* \"contracts/Twitter.sol\":3736:3763  userProfileTemp.displayNAme */\n      0x00\n      add\n      mload\n        /* \"contracts/Twitter.sol\":3730:3771  bytes(userProfileTemp.displayNAme).length */\n      mload\n        /* \"contracts/Twitter.sol\":3730:3775  bytes(userProfileTemp.displayNAme).length > 0 */\n      gt\n        /* \"contracts/Twitter.sol\":3709:3819  require(... */\n      tag_125\n      jumpi\n      mload(0x40)\n      0x08c379a000000000000000000000000000000000000000000000000000000000\n      dup2\n      mstore\n      0x04\n      add\n      tag_126\n      swap1\n      tag_91\n      jump\t// in\n    tag_126:\n      mload(0x40)\n      dup1\n      swap2\n      sub\n      swap1\n      revert\n    tag_125:\n        /* \"contracts/Twitter.sol\":5042:5044  id */\n      dup2\n        /* \"contracts/Twitter.sol\":5017:5023  tweets */\n      0x01\n        /* \"contracts/Twitter.sol\":5017:5031  tweets[author] */\n      0x00\n        /* \"contracts/Twitter.sol\":5024:5030  author */\n      dup6\n        /* \"contracts/Twitter.sol\":5017:5031  tweets[author] */\n      0xffffffffffffffffffffffffffffffffffffffff\n      and\n      0xffffffffffffffffffffffffffffffffffffffff\n      and\n      dup2\n      mstore\n      0x20\n      add\n      swap1\n      dup2\n      mstore\n      0x20\n      add\n      0x00\n      keccak256\n        /* \"contracts/Twitter.sol\":5032:5034  id */\n      dup4\n        /* \"contracts/Twitter.sol\":5017:5035  tweets[author][id] */\n      dup2\n      sload\n      dup2\n      lt\n      tag_128\n      jumpi\n      tag_129\n      tag_95\n      jump\t// in\n    tag_129:\n    tag_128:\n      swap1\n      0x00\n      mstore\n      keccak256(0x00, 0x20)\n      swap1\n      0x05\n      mul\n      add\n        /* \"contracts/Twitter.sol\":5017:5038  tweets[author][id].id */\n      0x00\n      add\n      sload\n        /* \"contracts/Twitter.sol\":5017:5044  tweets[author][id].id == id */\n      eq\n        /* \"contracts/Twitter.sol\":5009:5069  require(tweets[author][id].id == id, \"TWEET DOES NOT EXIST\") */\n      tag_131\n      jumpi\n      mload(0x40)\n      0x08c379a000000000000000000000000000000000000000000000000000000000\n      dup2\n      mstore\n      0x04\n      add\n      tag_132\n      swap1\n      tag_99\n      jump\t// in\n    tag_132:\n      mload(0x40)\n      dup1\n      swap2\n      sub\n      swap1\n      revert\n    tag_131:\n        /* \"contracts/Twitter.sol\":5079:5085  tweets */\n      0x01\n        /* \"contracts/Twitter.sol\":5079:5093  tweets[author] */\n      0x00\n        /* \"contracts/Twitter.sol\":5086:5092  author */\n      dup5\n        /* \"contracts/Twitter.sol\":5079:5093  tweets[author] */\n      0xffffffffffffffffffffffffffffffffffffffff\n      and\n      0xffffffffffffffffffffffffffffffffffffffff\n      and\n      dup2\n      mstore\n      0x20\n      add\n      swap1\n      dup2\n      mstore\n      0x20\n      add\n      0x00\n      keccak256\n        /* \"contracts/Twitter.sol\":5094:5096  id */\n      dup3\n        /* \"contracts/Twitter.sol\":5079:5097  tweets[author][id] */\n      dup2\n      sload\n      dup2\n      lt\n      tag_133\n      jumpi\n      tag_134\n      tag_95\n      jump\t// in\n    tag_134:\n    tag_133:\n      swap1\n      0x00\n      mstore\n      keccak256(0x00, 0x20)\n      swap1\n      0x05\n      mul\n      add\n        /* \"contracts/Twitter.sol\":5079:5103  tweets[author][id].likes */\n      0x04\n      add\n      0x00\n        /* \"contracts/Twitter.sol\":5079:5105  tweets[author][id].likes++ */\n      dup2\n      sload\n      dup1\n      swap3\n      swap2\n      swap1\n      tag_136\n      swap1\n      tag_137\n      jump\t// in\n    tag_136:\n      swap2\n      swap1\n      pop\n      sstore\n      pop\n        /* \"contracts/Twitter.sol\":5121:5181  TweetLiked(msg.sender, author, id, tweets[author][id].likes) */\n      0xe8a76fc0f16d11a00d1e93b689b63d76cf60af914dd3d915375dc41d01a0c3c8\n        /* \"contracts/Twitter.sol\":5132:5142  msg.sender */\n      caller\n        /* \"contracts/Twitter.sol\":5144:5150  author */\n      dup5\n        /* \"contracts/Twitter.sol\":5152:5154  id */\n      dup5\n        /* \"contracts/Twitter.sol\":5156:5162  tweets */\n      0x01\n        /* \"contracts/Twitter.sol\":5156:5170  tweets[author] */\n      0x00\n        /* \"contracts/Twitter.sol\":5163:5169  author */\n      dup9\n        /* \"contracts/Twitter.sol\":5156:5170  tweets[author] */\n      0xffffffffffffffffffffffffffffffffffffffff\n      and\n      0xffffffffffffffffffffffffffffffffffffffff\n      and\n      dup2\n      mstore\n      0x20\n      add\n      swap1\n      dup2\n      mstore\n      0x20\n      add\n      0x00\n      keccak256\n        /* \"contracts/Twitter.sol\":5171:5173  id */\n      dup7\n        /* \"contracts/Twitter.sol\":5156:5174  tweets[author][id] */\n      dup2\n      sload\n      dup2\n      lt\n      tag_138\n      jumpi\n      tag_139\n      tag_95\n      jump\t// in\n    tag_139:\n    tag_138:\n      swap1\n      0x00\n      mstore\n      keccak256(0x00, 0x20)\n      swap1\n      0x05\n      mul\n      add\n        /* \"contracts/Twitter.sol\":5156:5180  tweets[author][id].likes */\n      0x04\n      add\n      sload\n        /* \"contracts/Twitter.sol\":5121:5181  TweetLiked(msg.sender, author, id, tweets[author][id].likes) */\n      mload(0x40)\n      tag_141\n      swap5\n      swap4\n      swap3\n      swap2\n      swap1\n      tag_115\n      jump\t// in\n    tag_141:\n      mload(0x40)\n      dup1\n      swap2\n      sub\n      swap1\n      log1\n        /* \"contracts/Twitter.sol\":3592:3837  {... */\n      pop\n        /* \"contracts/Twitter.sol\":4929:5188  function likeTweet(address author, uint256 id) external onlyRegistred {... */\n      pop\n      pop\n      jump\t// out\n        /* \"contracts/Twitter.sol\":2627:2663  uint16 public MAX_TWEET_LENGTH = 250 */\n    tag_39:\n      0x00\n      0x14\n      swap1\n      sload\n      swap1\n      0x0100\n      exp\n      swap1\n      div\n      0xffff\n      and\n      dup2\n      jump\t// out\n        /* \"@openzeppelin/contracts/access/Ownable.sol\":2293:2394  function renounceOwnership() public virtual onlyOwner {... */\n    tag_43:\n        /* \"@openzeppelin/contracts/access/Ownable.sol\":1531:1544  _checkOwner() */\n      tag_143\n        /* \"@openzeppelin/contracts/access/Ownable.sol\":1531:1542  _checkOwner */\n      tag_118\n        /* \"@openzeppelin/contracts/access/Ownable.sol\":1531:1544  _checkOwner() */\n      jump\t// in\n    tag_143:\n        /* \"@openzeppelin/contracts/access/Ownable.sol\":2357:2387  _transferOwnership(address(0)) */\n      tag_145\n        /* \"@openzeppelin/contracts/access/Ownable.sol\":2384:2385  0 */\n      0x00\n        /* \"@openzeppelin/contracts/access/Ownable.sol\":2357:2375  _transferOwnership */\n      tag_146\n        /* \"@openzeppelin/contracts/access/Ownable.sol\":2357:2387  _transferOwnership(address(0)) */\n      jump\t// in\n    tag_145:\n        /* \"@openzeppelin/contracts/access/Ownable.sol\":2293:2394  function renounceOwnership() public virtual onlyOwner {... */\n      jump\t// out\n        /* \"contracts/Twitter.sol\":4237:4923  function createTweet(string memory _tweet) public onlyRegistred {... */\n    tag_47:\n        /* \"contracts/Twitter.sol\":3602:3645  IProfile.UserProfile memory userProfileTemp */\n      0x00\n        /* \"contracts/Twitter.sol\":3648:3663  profileContract */\n      0x02\n      0x00\n      swap1\n      sload\n      swap1\n      0x0100\n      exp\n      swap1\n      div\n      0xffffffffffffffffffffffffffffffffffffffff\n      and\n        /* \"contracts/Twitter.sol\":3648:3687  profileContract... */\n      0xffffffffffffffffffffffffffffffffffffffff\n      and\n      0x0f53a470\n        /* \"contracts/Twitter.sol\":3688:3698  msg.sender */\n      caller\n        /* \"contracts/Twitter.sol\":3648:3699  profileContract... */\n      mload(0x40)\n      dup3\n      0xffffffff\n      and\n      0xe0\n      shl\n      dup2\n      mstore\n      0x04\n      add\n      tag_148\n      swap2\n      swap1\n      tag_56\n      jump\t// in\n    tag_148:\n      0x00\n      mload(0x40)\n      dup1\n      dup4\n      sub\n      dup2\n      dup7\n      gas\n      staticcall\n      iszero\n      dup1\n      iszero\n      tag_150\n      jumpi\n      returndatasize\n      0x00\n      dup1\n      returndatacopy\n      revert(0x00, returndatasize)\n    tag_150:\n      pop\n      pop\n      pop\n      pop\n      mload(0x40)\n      returndatasize\n      0x00\n      dup3\n      returndatacopy\n      returndatasize\n      not(0x1f)\n      0x1f\n      dup3\n      add\n      and\n      dup3\n      add\n      dup1\n      0x40\n      mstore\n      pop\n      dup2\n      add\n      swap1\n      tag_151\n      swap2\n      swap1\n      tag_88\n      jump\t// in\n    tag_151:\n        /* \"contracts/Twitter.sol\":3602:3699  IProfile.UserProfile memory userProfileTemp = profileContract... */\n      swap1\n      pop\n        /* \"contracts/Twitter.sol\":3774:3775  0 */\n      0x00\n        /* \"contracts/Twitter.sol\":3736:3751  userProfileTemp */\n      dup2\n        /* \"contracts/Twitter.sol\":3736:3763  userProfileTemp.displayNAme */\n      0x00\n      add\n      mload\n        /* \"contracts/Twitter.sol\":3730:3771  bytes(userProfileTemp.displayNAme).length */\n      mload\n        /* \"contracts/Twitter.sol\":3730:3775  bytes(userProfileTemp.displayNAme).length > 0 */\n      gt\n        /* \"contracts/Twitter.sol\":3709:3819  require(... */\n      tag_152\n      jumpi\n      mload(0x40)\n      0x08c379a000000000000000000000000000000000000000000000000000000000\n      dup2\n      mstore\n      0x04\n      add\n      tag_153\n      swap1\n      tag_91\n      jump\t// in\n    tag_153:\n      mload(0x40)\n      dup1\n      swap2\n      sub\n      swap1\n      revert\n    tag_152:\n        /* \"contracts/Twitter.sol\":4437:4453  MAX_TWEET_LENGTH */\n      0x00\n      0x14\n      swap1\n      sload\n      swap1\n      0x0100\n      exp\n      swap1\n      div\n      0xffff\n      and\n        /* \"contracts/Twitter.sol\":4413:4453  bytes(_tweet).length <= MAX_TWEET_LENGTH */\n      0xffff\n      and\n        /* \"contracts/Twitter.sol\":4419:4425  _tweet */\n      dup3\n        /* \"contracts/Twitter.sol\":4413:4433  bytes(_tweet).length */\n      mload\n        /* \"contracts/Twitter.sol\":4413:4453  bytes(_tweet).length <= MAX_TWEET_LENGTH */\n      gt\n      iszero\n        /* \"contracts/Twitter.sol\":4392:4501  require(... */\n      tag_155\n      jumpi\n      mload(0x40)\n      0x08c379a000000000000000000000000000000000000000000000000000000000\n      dup2\n      mstore\n      0x04\n      add\n      tag_156\n      swap1\n      tag_157\n      jump\t// in\n    tag_156:\n      mload(0x40)\n      dup1\n      swap2\n      sub\n      swap1\n      revert\n    tag_155:\n        /* \"contracts/Twitter.sol\":4512:4533  Tweet memory newTweet */\n      0x00\n        /* \"contracts/Twitter.sol\":4536:4719  Tweet({... */\n      mload(0x40)\n      dup1\n      0xa0\n      add\n      0x40\n      mstore\n      dup1\n        /* \"contracts/Twitter.sol\":4560:4566  tweets */\n      0x01\n        /* \"contracts/Twitter.sol\":4560:4578  tweets[msg.sender] */\n      0x00\n        /* \"contracts/Twitter.sol\":4567:4577  msg.sender */\n      caller\n        /* \"contracts/Twitter.sol\":4560:4578  tweets[msg.sender] */\n      0xffffffffffffffffffffffffffffffffffffffff\n      and\n      0xffffffffffffffffffffffffffffffffffffffff\n      and\n      dup2\n      mstore\n      0x20\n      add\n      swap1\n      dup2\n      mstore\n      0x20\n      add\n      0x00\n      keccak256\n        /* \"contracts/Twitter.sol\":4560:4585  tweets[msg.sender].length */\n      dup1\n      sload\n      swap1\n      pop\n        /* \"contracts/Twitter.sol\":4536:4719  Tweet({... */\n      dup2\n      mstore\n      0x20\n      add\n        /* \"contracts/Twitter.sol\":4607:4617  msg.sender */\n      caller\n        /* \"contracts/Twitter.sol\":4536:4719  Tweet({... */\n      0xffffffffffffffffffffffffffffffffffffffff\n      and\n      dup2\n      mstore\n      0x20\n      add\n        /* \"contracts/Twitter.sol\":4640:4646  _tweet */\n      dup5\n        /* \"contracts/Twitter.sol\":4536:4719  Tweet({... */\n      dup2\n      mstore\n      0x20\n      add\n        /* \"contracts/Twitter.sol\":4671:4686  block.timestamp */\n      timestamp\n        /* \"contracts/Twitter.sol\":4536:4719  Tweet({... */\n      dup2\n      mstore\n      0x20\n      add\n        /* \"contracts/Twitter.sol\":4707:4708  0 */\n      0x00\n        /* \"contracts/Twitter.sol\":4536:4719  Tweet({... */\n      dup2\n      mstore\n      pop\n        /* \"contracts/Twitter.sol\":4512:4719  Tweet memory newTweet = Tweet({... */\n      swap1\n      pop\n        /* \"contracts/Twitter.sol\":4729:4735  tweets */\n      0x01\n        /* \"contracts/Twitter.sol\":4729:4747  tweets[msg.sender] */\n      0x00\n        /* \"contracts/Twitter.sol\":4736:4746  msg.sender */\n      caller\n        /* \"contracts/Twitter.sol\":4729:4747  tweets[msg.sender] */\n      0xffffffffffffffffffffffffffffffffffffffff\n      and\n      0xffffffffffffffffffffffffffffffffffffffff\n      and\n      dup2\n      mstore\n      0x20\n      add\n      swap1\n      dup2\n      mstore\n      0x20\n      add\n      0x00\n      keccak256\n        /* \"contracts/Twitter.sol\":4753:4761  newTweet */\n      dup2\n        /* \"contracts/Twitter.sol\":4729:4762  tweets[msg.sender].push(newTweet) */\n      swap1\n      dup1\n      0x01\n      dup2\n      sload\n      add\n      dup1\n      dup3\n      sstore\n      dup1\n      swap2\n      pop\n      pop\n      0x01\n      swap1\n      sub\n      swap1\n      0x00\n      mstore\n      keccak256(0x00, 0x20)\n      swap1\n      0x05\n      mul\n      add\n      0x00\n      swap1\n      swap2\n      swap1\n      swap2\n      swap1\n      swap2\n      pop\n      0x00\n      dup3\n      add\n      mload\n      dup2\n      0x00\n      add\n      sstore\n      0x20\n      dup3\n      add\n      mload\n      dup2\n      0x01\n      add\n      exp(0x0100, 0x00)\n      dup2\n      sload\n      dup2\n      0xffffffffffffffffffffffffffffffffffffffff\n      mul\n      not\n      and\n      swap1\n      dup4\n      0xffffffffffffffffffffffffffffffffffffffff\n      and\n      mul\n      or\n      swap1\n      sstore\n      pop\n      0x40\n      dup3\n      add\n      mload\n      dup2\n      0x02\n      add\n      swap1\n      dup2\n      tag_159\n      swap2\n      swap1\n      tag_160\n      jump\t// in\n    tag_159:\n      pop\n      0x60\n      dup3\n      add\n      mload\n      dup2\n      0x03\n      add\n      sstore\n      0x80\n      dup3\n      add\n      mload\n      dup2\n      0x04\n      add\n      sstore\n      pop\n      pop\n        /* \"contracts/Twitter.sol\":4778:4916  TweetCreated(... */\n      0x16fd3c13e9d46923e0a8bce11c7b473ec508a72e6c96cd2404b29ce972afc29e\n        /* \"contracts/Twitter.sol\":4804:4812  newTweet */\n      dup2\n        /* \"contracts/Twitter.sol\":4804:4815  newTweet.id */\n      0x00\n      add\n      mload\n        /* \"contracts/Twitter.sol\":4829:4837  newTweet */\n      dup3\n        /* \"contracts/Twitter.sol\":4829:4844  newTweet.author */\n      0x20\n      add\n      mload\n        /* \"contracts/Twitter.sol\":4858:4866  newTweet */\n      dup4\n        /* \"contracts/Twitter.sol\":4858:4874  newTweet.content */\n      0x40\n      add\n      mload\n        /* \"contracts/Twitter.sol\":4888:4896  newTweet */\n      dup5\n        /* \"contracts/Twitter.sol\":4888:4906  newTweet.timestamp */\n      0x60\n      add\n      mload\n        /* \"contracts/Twitter.sol\":4778:4916  TweetCreated(... */\n      mload(0x40)\n      tag_161\n      swap5\n      swap4\n      swap3\n      swap2\n      swap1\n      tag_162\n      jump\t// in\n    tag_161:\n      mload(0x40)\n      dup1\n      swap2\n      sub\n      swap1\n      log1\n        /* \"contracts/Twitter.sol\":4301:4923  {... */\n      pop\n        /* \"contracts/Twitter.sol\":3592:3837  {... */\n      pop\n        /* \"contracts/Twitter.sol\":4237:4923  function createTweet(string memory _tweet) public onlyRegistred {... */\n      pop\n      jump\t// out\n        /* \"contracts/Twitter.sol\":3968:4231  function getTotalLikes(address _author) external view returns (uint256) {... */\n    tag_50:\n        /* \"contracts/Twitter.sol\":4031:4038  uint256 */\n      0x00\n        /* \"contracts/Twitter.sol\":4050:4068  uint256 totalLikes */\n      dup1\n        /* \"contracts/Twitter.sol\":4071:4072  0 */\n      0x00\n        /* \"contracts/Twitter.sol\":4050:4072  uint256 totalLikes = 0 */\n      swap1\n      pop\n        /* \"contracts/Twitter.sol\":4087:4096  uint256 i */\n      0x00\n        /* \"contracts/Twitter.sol\":4082:4198  for (uint256 i = 0; i < tweets[_author].length; i++) {... */\n    tag_164:\n        /* \"contracts/Twitter.sol\":4106:4112  tweets */\n      0x01\n        /* \"contracts/Twitter.sol\":4106:4121  tweets[_author] */\n      0x00\n        /* \"contracts/Twitter.sol\":4113:4120  _author */\n      dup6\n        /* \"contracts/Twitter.sol\":4106:4121  tweets[_author] */\n      0xffffffffffffffffffffffffffffffffffffffff\n      and\n      0xffffffffffffffffffffffffffffffffffffffff\n      and\n      dup2\n      mstore\n      0x20\n      add\n      swap1\n      dup2\n      mstore\n      0x20\n      add\n      0x00\n      keccak256\n        /* \"contracts/Twitter.sol\":4106:4128  tweets[_author].length */\n      dup1\n      sload\n      swap1\n      pop\n        /* \"contracts/Twitter.sol\":4102:4103  i */\n      dup2\n        /* \"contracts/Twitter.sol\":4102:4128  i < tweets[_author].length */\n      lt\n        /* \"contracts/Twitter.sol\":4082:4198  for (uint256 i = 0; i < tweets[_author].length; i++) {... */\n      iszero\n      tag_165\n      jumpi\n        /* \"contracts/Twitter.sol\":4163:4169  tweets */\n      0x01\n        /* \"contracts/Twitter.sol\":4163:4178  tweets[_author] */\n      0x00\n        /* \"contracts/Twitter.sol\":4170:4177  _author */\n      dup6\n        /* \"contracts/Twitter.sol\":4163:4178  tweets[_author] */\n      0xffffffffffffffffffffffffffffffffffffffff\n      and\n      0xffffffffffffffffffffffffffffffffffffffff\n      and\n      dup2\n      mstore\n      0x20\n      add\n      swap1\n      dup2\n      mstore\n      0x20\n      add\n      0x00\n      keccak256\n        /* \"contracts/Twitter.sol\":4179:4180  i */\n      dup2\n        /* \"contracts/Twitter.sol\":4163:4181  tweets[_author][i] */\n      dup2\n      sload\n      dup2\n      lt\n      tag_167\n      jumpi\n      tag_168\n      tag_95\n      jump\t// in\n    tag_168:\n    tag_167:\n      swap1\n      0x00\n      mstore\n      keccak256(0x00, 0x20)\n      swap1\n      0x05\n      mul\n      add\n        /* \"contracts/Twitter.sol\":4163:4187  tweets[_author][i].likes */\n      0x04\n      add\n      sload\n        /* \"contracts/Twitter.sol\":4149:4187  totalLikes += tweets[_author][i].likes */\n      dup3\n      tag_170\n      swap2\n      swap1\n      tag_171\n      jump\t// in\n    tag_170:\n      swap2\n      pop\n        /* \"contracts/Twitter.sol\":4130:4133  i++ */\n      dup1\n      dup1\n      0x01\n      add\n      swap2\n      pop\n      pop\n        /* \"contracts/Twitter.sol\":4082:4198  for (uint256 i = 0; i < tweets[_author].length; i++) {... */\n      jump(tag_164)\n    tag_165:\n      pop\n        /* \"contracts/Twitter.sol\":4214:4224  totalLikes */\n      dup1\n        /* \"contracts/Twitter.sol\":4207:4224  return totalLikes */\n      swap2\n      pop\n      pop\n        /* \"contracts/Twitter.sol\":3968:4231  function getTotalLikes(address _author) external view returns (uint256) {... */\n      swap2\n      swap1\n      pop\n      jump\t// out\n        /* \"@openzeppelin/contracts/access/Ownable.sol\":1638:1723  function owner() public view virtual returns (address) {... */\n    tag_54:\n        /* \"@openzeppelin/contracts/access/Ownable.sol\":1684:1691  address */\n      0x00\n        /* \"@openzeppelin/contracts/access/Ownable.sol\":1710:1716  _owner */\n      dup1\n      0x00\n      swap1\n      sload\n      swap1\n      0x0100\n      exp\n      swap1\n      div\n      0xffffffffffffffffffffffffffffffffffffffff\n      and\n        /* \"@openzeppelin/contracts/access/Ownable.sol\":1703:1716  return _owner */\n      swap1\n      pop\n        /* \"@openzeppelin/contracts/access/Ownable.sol\":1638:1723  function owner() public view virtual returns (address) {... */\n      swap1\n      jump\t// out\n        /* \"contracts/Twitter.sol\":5531:5640  function getTweet(uint256 i) public view returns (Tweet memory) {... */\n    tag_60:\n        /* \"contracts/Twitter.sol\":5581:5593  Tweet memory */\n      tag_173\n      tag_174\n      jump\t// in\n    tag_173:\n        /* \"contracts/Twitter.sol\":5612:5618  tweets */\n      0x01\n        /* \"contracts/Twitter.sol\":5612:5630  tweets[msg.sender] */\n      0x00\n        /* \"contracts/Twitter.sol\":5619:5629  msg.sender */\n      caller\n        /* \"contracts/Twitter.sol\":5612:5630  tweets[msg.sender] */\n      0xffffffffffffffffffffffffffffffffffffffff\n      and\n      0xffffffffffffffffffffffffffffffffffffffff\n      and\n      dup2\n      mstore\n      0x20\n      add\n      swap1\n      dup2\n      mstore\n      0x20\n      add\n      0x00\n      keccak256\n        /* \"contracts/Twitter.sol\":5631:5632  i */\n      dup3\n        /* \"contracts/Twitter.sol\":5612:5633  tweets[msg.sender][i] */\n      dup2\n      sload\n      dup2\n      lt\n      tag_176\n      jumpi\n      tag_177\n      tag_95\n      jump\t// in\n    tag_177:\n    tag_176:\n      swap1\n      0x00\n      mstore\n      keccak256(0x00, 0x20)\n      swap1\n      0x05\n      mul\n      add\n        /* \"contracts/Twitter.sol\":5605:5633  return tweets[msg.sender][i] */\n      mload(0x40)\n      dup1\n      0xa0\n      add\n      0x40\n      mstore\n      swap1\n      dup2\n      0x00\n      dup3\n      add\n      sload\n      dup2\n      mstore\n      0x20\n      add\n      0x01\n      dup3\n      add\n      0x00\n      swap1\n      sload\n      swap1\n      0x0100\n      exp\n      swap1\n      div\n      0xffffffffffffffffffffffffffffffffffffffff\n      and\n      0xffffffffffffffffffffffffffffffffffffffff\n      and\n      0xffffffffffffffffffffffffffffffffffffffff\n      and\n      dup2\n      mstore\n      0x20\n      add\n      0x02\n      dup3\n      add\n      dup1\n      sload\n      tag_179\n      swap1\n      tag_69\n      jump\t// in\n    tag_179:\n      dup1\n      0x1f\n      add\n      0x20\n      dup1\n      swap2\n      div\n      mul\n      0x20\n      add\n      mload(0x40)\n      swap1\n      dup2\n      add\n      0x40\n      mstore\n      dup1\n      swap3\n      swap2\n      swap1\n      dup2\n      dup2\n      mstore\n      0x20\n      add\n      dup3\n      dup1\n      sload\n      tag_180\n      swap1\n      tag_69\n      jump\t// in\n    tag_180:\n      dup1\n      iszero\n      tag_181\n      jumpi\n      dup1\n      0x1f\n      lt\n      tag_182\n      jumpi\n      0x0100\n      dup1\n      dup4\n      sload\n      div\n      mul\n      dup4\n      mstore\n      swap2\n      0x20\n      add\n      swap2\n      jump(tag_181)\n    tag_182:\n      dup3\n      add\n      swap2\n      swap1\n      0x00\n      mstore\n      keccak256(0x00, 0x20)\n      swap1\n    tag_183:\n      dup2\n      sload\n      dup2\n      mstore\n      swap1\n      0x01\n      add\n      swap1\n      0x20\n      add\n      dup1\n      dup4\n      gt\n      tag_183\n      jumpi\n      dup3\n      swap1\n      sub\n      0x1f\n      and\n      dup3\n      add\n      swap2\n    tag_181:\n      pop\n      pop\n      pop\n      pop\n      pop\n      dup2\n      mstore\n      0x20\n      add\n      0x03\n      dup3\n      add\n      sload\n      dup2\n      mstore\n      0x20\n      add\n      0x04\n      dup3\n      add\n      sload\n      dup2\n      mstore\n      pop\n      pop\n      swap1\n      pop\n        /* \"contracts/Twitter.sol\":5531:5640  function getTweet(uint256 i) public view returns (Tweet memory) {... */\n      swap2\n      swap1\n      pop\n      jump\t// out\n        /* \"@openzeppelin/contracts/access/Ownable.sol\":2543:2758  function transferOwnership(address newOwner) public virtual onlyOwner {... */\n    tag_65:\n        /* \"@openzeppelin/contracts/access/Ownable.sol\":1531:1544  _checkOwner() */\n      tag_185\n        /* \"@openzeppelin/contracts/access/Ownable.sol\":1531:1542  _checkOwner */\n      tag_118\n        /* \"@openzeppelin/contracts/access/Ownable.sol\":1531:1544  _checkOwner() */\n      jump\t// in\n    tag_185:\n        /* \"@openzeppelin/contracts/access/Ownable.sol\":2647:2648  0 */\n      0x00\n        /* \"@openzeppelin/contracts/access/Ownable.sol\":2627:2649  newOwner == address(0) */\n      0xffffffffffffffffffffffffffffffffffffffff\n      and\n        /* \"@openzeppelin/contracts/access/Ownable.sol\":2627:2635  newOwner */\n      dup2\n        /* \"@openzeppelin/contracts/access/Ownable.sol\":2627:2649  newOwner == address(0) */\n      0xffffffffffffffffffffffffffffffffffffffff\n      and\n      sub\n        /* \"@openzeppelin/contracts/access/Ownable.sol\":2623:2714  if (newOwner == address(0)) {... */\n      tag_187\n      jumpi\n        /* \"@openzeppelin/contracts/access/Ownable.sol\":2700:2701  0 */\n      0x00\n        /* \"@openzeppelin/contracts/access/Ownable.sol\":2672:2703  OwnableInvalidOwner(address(0)) */\n      mload(0x40)\n      0x1e4fbdf700000000000000000000000000000000000000000000000000000000\n      dup2\n      mstore\n      0x04\n      add\n      tag_188\n      swap2\n      swap1\n      tag_56\n      jump\t// in\n    tag_188:\n      mload(0x40)\n      dup1\n      swap2\n      sub\n      swap1\n      revert\n        /* \"@openzeppelin/contracts/access/Ownable.sol\":2623:2714  if (newOwner == address(0)) {... */\n    tag_187:\n        /* \"@openzeppelin/contracts/access/Ownable.sol\":2723:2751  _transferOwnership(newOwner) */\n      tag_189\n        /* \"@openzeppelin/contracts/access/Ownable.sol\":2742:2750  newOwner */\n      dup2\n        /* \"@openzeppelin/contracts/access/Ownable.sol\":2723:2741  _transferOwnership */\n      tag_146\n        /* \"@openzeppelin/contracts/access/Ownable.sol\":2723:2751  _transferOwnership(newOwner) */\n      jump\t// in\n    tag_189:\n        /* \"@openzeppelin/contracts/access/Ownable.sol\":2543:2758  function transferOwnership(address newOwner) public virtual onlyOwner {... */\n      pop\n      jump\t// out\n        /* \"@openzeppelin/contracts/access/Ownable.sol\":1796:1958  function _checkOwner() internal view virtual {... */\n    tag_118:\n        /* \"@openzeppelin/contracts/access/Ownable.sol\":1866:1878  _msgSender() */\n      tag_191\n        /* \"@openzeppelin/contracts/access/Ownable.sol\":1866:1876  _msgSender */\n      tag_192\n        /* \"@openzeppelin/contracts/access/Ownable.sol\":1866:1878  _msgSender() */\n      jump\t// in\n    tag_191:\n        /* \"@openzeppelin/contracts/access/Ownable.sol\":1855:1878  owner() != _msgSender() */\n      0xffffffffffffffffffffffffffffffffffffffff\n      and\n        /* \"@openzeppelin/contracts/access/Ownable.sol\":1855:1862  owner() */\n      tag_193\n        /* \"@openzeppelin/contracts/access/Ownable.sol\":1855:1860  owner */\n      tag_54\n        /* \"@openzeppelin/contracts/access/Ownable.sol\":1855:1862  owner() */\n      jump\t// in\n    tag_193:\n        /* \"@openzeppelin/contracts/access/Ownable.sol\":1855:1878  owner() != _msgSender() */\n      0xffffffffffffffffffffffffffffffffffffffff\n      and\n      eq\n        /* \"@openzeppelin/contracts/access/Ownable.sol\":1851:1952  if (owner() != _msgSender()) {... */\n      tag_194\n      jumpi\n        /* \"@openzeppelin/contracts/access/Ownable.sol\":1928:1940  _msgSender() */\n      tag_195\n        /* \"@openzeppelin/contracts/access/Ownable.sol\":1928:1938  _msgSender */\n      tag_192\n        /* \"@openzeppelin/contracts/access/Ownable.sol\":1928:1940  _msgSender() */\n      jump\t// in\n    tag_195:\n        /* \"@openzeppelin/contracts/access/Ownable.sol\":1901:1941  OwnableUnauthorizedAccount(_msgSender()) */\n      mload(0x40)\n      0x118cdaa700000000000000000000000000000000000000000000000000000000\n      dup2\n      mstore\n      0x04\n      add\n      tag_196\n      swap2\n      swap1\n      tag_56\n      jump\t// in\n    tag_196:\n      mload(0x40)\n      dup1\n      swap2\n      sub\n      swap1\n      revert\n        /* \"@openzeppelin/contracts/access/Ownable.sol\":1851:1952  if (owner() != _msgSender()) {... */\n    tag_194:\n        /* \"@openzeppelin/contracts/access/Ownable.sol\":1796:1958  function _checkOwner() internal view virtual {... */\n      jump\t// out\n        /* \"@openzeppelin/contracts/access/Ownable.sol\":2912:3099  function _transferOwnership(address newOwner) internal virtual {... */\n    tag_146:\n        /* \"@openzeppelin/contracts/access/Ownable.sol\":2985:3001  address oldOwner */\n      0x00\n        /* \"@openzeppelin/contracts/access/Ownable.sol\":3004:3010  _owner */\n      dup1\n      0x00\n      swap1\n      sload\n      swap1\n      0x0100\n      exp\n      swap1\n      div\n      0xffffffffffffffffffffffffffffffffffffffff\n      and\n        /* \"@openzeppelin/contracts/access/Ownable.sol\":2985:3010  address oldOwner = _owner */\n      swap1\n      pop\n        /* \"@openzeppelin/contracts/access/Ownable.sol\":3029:3037  newOwner */\n      dup2\n        /* \"@openzeppelin/contracts/access/Ownable.sol\":3020:3026  _owner */\n      0x00\n      dup1\n        /* \"@openzeppelin/contracts/access/Ownable.sol\":3020:3037  _owner = newOwner */\n      0x0100\n      exp\n      dup2\n      sload\n      dup2\n      0xffffffffffffffffffffffffffffffffffffffff\n      mul\n      not\n      and\n      swap1\n      dup4\n      0xffffffffffffffffffffffffffffffffffffffff\n      and\n      mul\n      or\n      swap1\n      sstore\n      pop\n        /* \"@openzeppelin/contracts/access/Ownable.sol\":3083:3091  newOwner */\n      dup2\n        /* \"@openzeppelin/contracts/access/Ownable.sol\":3052:3092  OwnershipTransferred(oldOwner, newOwner) */\n      0xffffffffffffffffffffffffffffffffffffffff\n      and\n        /* \"@openzeppelin/contracts/access/Ownable.sol\":3073:3081  oldOwner */\n      dup2\n        /* \"@openzeppelin/contracts/access/Ownable.sol\":3052:3092  OwnershipTransferred(oldOwner, newOwner) */\n      0xffffffffffffffffffffffffffffffffffffffff\n      and\n      0x8be0079c531659141344cd1fd0a4f28419497f9722a3daafe3b4186f6b6457e0\n      mload(0x40)\n      mload(0x40)\n      dup1\n      swap2\n      sub\n      swap1\n      log3\n        /* \"@openzeppelin/contracts/access/Ownable.sol\":2975:3099  {... */\n      pop\n        /* \"@openzeppelin/contracts/access/Ownable.sol\":2912:3099  function _transferOwnership(address newOwner) internal virtual {... */\n      pop\n      jump\t// out\n        /* \"@openzeppelin/contracts/utils/Context.sol\":656:752  function _msgSender() internal view virtual returns (address) {... */\n    tag_192:\n        /* \"@openzeppelin/contracts/utils/Context.sol\":709:716  address */\n      0x00\n        /* \"@openzeppelin/contracts/utils/Context.sol\":735:745  msg.sender */\n      caller\n        /* \"@openzeppelin/contracts/utils/Context.sol\":728:745  return msg.sender */\n      swap1\n      pop\n        /* \"@openzeppelin/contracts/utils/Context.sol\":656:752  function _msgSender() internal view virtual returns (address) {... */\n      swap1\n      jump\t// out\n    tag_174:\n      mload(0x40)\n      dup1\n      0xa0\n      add\n      0x40\n      mstore\n      dup1\n      0x00\n      dup2\n      mstore\n      0x20\n      add\n      and(0xffffffffffffffffffffffffffffffffffffffff, 0x00)\n      dup2\n      mstore\n      0x20\n      add\n      0x60\n      dup2\n      mstore\n      0x20\n      add\n      0x00\n      dup2\n      mstore\n      0x20\n      add\n      0x00\n      dup2\n      mstore\n      pop\n      swap1\n      jump\t// out\n        /* \"#utility.yul\":7:82   */\n    tag_199:\n        /* \"#utility.yul\":40:46   */\n      0x00\n        /* \"#utility.yul\":73:75   */\n      0x40\n        /* \"#utility.yul\":67:76   */\n      mload\n        /* \"#utility.yul\":57:76   */\n      swap1\n      pop\n        /* \"#utility.yul\":7:82   */\n      swap1\n      jump\t// out\n        /* \"#utility.yul\":88:205   */\n    tag_200:\n        /* \"#utility.yul\":197:198   */\n      0x00\n        /* \"#utility.yul\":194:195   */\n      dup1\n        /* \"#utility.yul\":187:199   */\n      revert\n        /* \"#utility.yul\":211:328   */\n    tag_201:\n        /* \"#utility.yul\":320:321   */\n      0x00\n        /* \"#utility.yul\":317:318   */\n      dup1\n        /* \"#utility.yul\":310:322   */\n      revert\n        /* \"#utility.yul\":334:460   */\n    tag_202:\n        /* \"#utility.yul\":371:378   */\n      0x00\n        /* \"#utility.yul\":411:453   */\n      0xffffffffffffffffffffffffffffffffffffffff\n        /* \"#utility.yul\":404:409   */\n      dup3\n        /* \"#utility.yul\":400:454   */\n      and\n        /* \"#utility.yul\":389:454   */\n      swap1\n      pop\n        /* \"#utility.yul\":334:460   */\n      swap2\n      swap1\n      pop\n      jump\t// out\n        /* \"#utility.yul\":466:562   */\n    tag_203:\n        /* \"#utility.yul\":503:510   */\n      0x00\n        /* \"#utility.yul\":532:556   */\n      tag_277\n        /* \"#utility.yul\":550:555   */\n      dup3\n        /* \"#utility.yul\":532:556   */\n      tag_202\n      jump\t// in\n    tag_277:\n        /* \"#utility.yul\":521:556   */\n      swap1\n      pop\n        /* \"#utility.yul\":466:562   */\n      swap2\n      swap1\n      pop\n      jump\t// out\n        /* \"#utility.yul\":568:690   */\n    tag_204:\n        /* \"#utility.yul\":641:665   */\n      tag_279\n        /* \"#utility.yul\":659:664   */\n      dup2\n        /* \"#utility.yul\":641:665   */\n      tag_203\n      jump\t// in\n    tag_279:\n        /* \"#utility.yul\":634:639   */\n      dup2\n        /* \"#utility.yul\":631:666   */\n      eq\n        /* \"#utility.yul\":621:684   */\n      tag_280\n      jumpi\n        /* \"#utility.yul\":680:681   */\n      0x00\n        /* \"#utility.yul\":677:678   */\n      dup1\n        /* \"#utility.yul\":670:682   */\n      revert\n        /* \"#utility.yul\":621:684   */\n    tag_280:\n        /* \"#utility.yul\":568:690   */\n      pop\n      jump\t// out\n        /* \"#utility.yul\":696:835   */\n    tag_205:\n        /* \"#utility.yul\":742:747   */\n      0x00\n        /* \"#utility.yul\":780:786   */\n      dup2\n        /* \"#utility.yul\":767:787   */\n      calldataload\n        /* \"#utility.yul\":758:787   */\n      swap1\n      pop\n        /* \"#utility.yul\":796:829   */\n      tag_282\n        /* \"#utility.yul\":823:828   */\n      dup2\n        /* \"#utility.yul\":796:829   */\n      tag_204\n      jump\t// in\n    tag_282:\n        /* \"#utility.yul\":696:835   */\n      swap3\n      swap2\n      pop\n      pop\n      jump\t// out\n        /* \"#utility.yul\":841:918   */\n    tag_206:\n        /* \"#utility.yul\":878:885   */\n      0x00\n        /* \"#utility.yul\":907:912   */\n      dup2\n        /* \"#utility.yul\":896:912   */\n      swap1\n      pop\n        /* \"#utility.yul\":841:918   */\n      swap2\n      swap1\n      pop\n      jump\t// out\n        /* \"#utility.yul\":924:1046   */\n    tag_207:\n        /* \"#utility.yul\":997:1021   */\n      tag_285\n        /* \"#utility.yul\":1015:1020   */\n      dup2\n        /* \"#utility.yul\":997:1021   */\n      tag_206\n      jump\t// in\n    tag_285:\n        /* \"#utility.yul\":990:995   */\n      dup2\n        /* \"#utility.yul\":987:1022   */\n      eq\n        /* \"#utility.yul\":977:1040   */\n      tag_286\n      jumpi\n        /* \"#utility.yul\":1036:1037   */\n      0x00\n        /* \"#utility.yul\":1033:1034   */\n      dup1\n        /* \"#utility.yul\":1026:1038   */\n      revert\n        /* \"#utility.yul\":977:1040   */\n    tag_286:\n        /* \"#utility.yul\":924:1046   */\n      pop\n      jump\t// out\n        /* \"#utility.yul\":1052:1191   */\n    tag_208:\n        /* \"#utility.yul\":1098:1103   */\n      0x00\n        /* \"#utility.yul\":1136:1142   */\n      dup2\n        /* \"#utility.yul\":1123:1143   */\n      calldataload\n        /* \"#utility.yul\":1114:1143   */\n      swap1\n      pop\n        /* \"#utility.yul\":1152:1185   */\n      tag_288\n        /* \"#utility.yul\":1179:1184   */\n      dup2\n        /* \"#utility.yul\":1152:1185   */\n      tag_207\n      jump\t// in\n    tag_288:\n        /* \"#utility.yul\":1052:1191   */\n      swap3\n      swap2\n      pop\n      pop\n      jump\t// out\n        /* \"#utility.yul\":1197:1671   */\n    tag_18:\n        /* \"#utility.yul\":1265:1271   */\n      0x00\n        /* \"#utility.yul\":1273:1279   */\n      dup1\n        /* \"#utility.yul\":1322:1324   */\n      0x40\n        /* \"#utility.yul\":1310:1319   */\n      dup4\n        /* \"#utility.yul\":1301:1308   */\n      dup6\n        /* \"#utility.yul\":1297:1320   */\n      sub\n        /* \"#utility.yul\":1293:1325   */\n      slt\n        /* \"#utility.yul\":1290:1409   */\n      iszero\n      tag_290\n      jumpi\n        /* \"#utility.yul\":1328:1407   */\n      tag_291\n      tag_200\n      jump\t// in\n    tag_291:\n        /* \"#utility.yul\":1290:1409   */\n    tag_290:\n        /* \"#utility.yul\":1448:1449   */\n      0x00\n        /* \"#utility.yul\":1473:1526   */\n      tag_292\n        /* \"#utility.yul\":1518:1525   */\n      dup6\n        /* \"#utility.yul\":1509:1515   */\n      dup3\n        /* \"#utility.yul\":1498:1507   */\n      dup7\n        /* \"#utility.yul\":1494:1516   */\n      add\n        /* \"#utility.yul\":1473:1526   */\n      tag_205\n      jump\t// in\n    tag_292:\n        /* \"#utility.yul\":1463:1526   */\n      swap3\n      pop\n        /* \"#utility.yul\":1419:1536   */\n      pop\n        /* \"#utility.yul\":1575:1577   */\n      0x20\n        /* \"#utility.yul\":1601:1654   */\n      tag_293\n        /* \"#utility.yul\":1646:1653   */\n      dup6\n        /* \"#utility.yul\":1637:1643   */\n      dup3\n        /* \"#utility.yul\":1626:1635   */\n      dup7\n        /* \"#utility.yul\":1622:1644   */\n      add\n        /* \"#utility.yul\":1601:1654   */\n      tag_208\n      jump\t// in\n    tag_293:\n        /* \"#utility.yul\":1591:1654   */\n      swap2\n      pop\n        /* \"#utility.yul\":1546:1664   */\n      pop\n        /* \"#utility.yul\":1197:1671   */\n      swap3\n      pop\n      swap3\n      swap1\n      pop\n      jump\t// out\n        /* \"#utility.yul\":1677:1795   */\n    tag_209:\n        /* \"#utility.yul\":1764:1788   */\n      tag_295\n        /* \"#utility.yul\":1782:1787   */\n      dup2\n        /* \"#utility.yul\":1764:1788   */\n      tag_206\n      jump\t// in\n    tag_295:\n        /* \"#utility.yul\":1759:1762   */\n      dup3\n        /* \"#utility.yul\":1752:1789   */\n      mstore\n        /* \"#utility.yul\":1677:1795   */\n      pop\n      pop\n      jump\t// out\n        /* \"#utility.yul\":1801:1919   */\n    tag_210:\n        /* \"#utility.yul\":1888:1912   */\n      tag_297\n        /* \"#utility.yul\":1906:1911   */\n      dup2\n        /* \"#utility.yul\":1888:1912   */\n      tag_203\n      jump\t// in\n    tag_297:\n        /* \"#utility.yul\":1883:1886   */\n      dup3\n        /* \"#utility.yul\":1876:1913   */\n      mstore\n        /* \"#utility.yul\":1801:1919   */\n      pop\n      pop\n      jump\t// out\n        /* \"#utility.yul\":1925:2024   */\n    tag_211:\n        /* \"#utility.yul\":1977:1983   */\n      0x00\n        /* \"#utility.yul\":2011:2016   */\n      dup2\n        /* \"#utility.yul\":2005:2017   */\n      mload\n        /* \"#utility.yul\":1995:2017   */\n      swap1\n      pop\n        /* \"#utility.yul\":1925:2024   */\n      swap2\n      swap1\n      pop\n      jump\t// out\n        /* \"#utility.yul\":2030:2199   */\n    tag_212:\n        /* \"#utility.yul\":2114:2125   */\n      0x00\n        /* \"#utility.yul\":2148:2154   */\n      dup3\n        /* \"#utility.yul\":2143:2146   */\n      dup3\n        /* \"#utility.yul\":2136:2155   */\n      mstore\n        /* \"#utility.yul\":2188:2192   */\n      0x20\n        /* \"#utility.yul\":2183:2186   */\n      dup3\n        /* \"#utility.yul\":2179:2193   */\n      add\n        /* \"#utility.yul\":2164:2193   */\n      swap1\n      pop\n        /* \"#utility.yul\":2030:2199   */\n      swap3\n      swap2\n      pop\n      pop\n      jump\t// out\n        /* \"#utility.yul\":2205:2344   */\n    tag_213:\n        /* \"#utility.yul\":2294:2300   */\n      dup3\n        /* \"#utility.yul\":2289:2292   */\n      dup2\n        /* \"#utility.yul\":2284:2287   */\n      dup4\n        /* \"#utility.yul\":2278:2301   */\n      mcopy\n        /* \"#utility.yul\":2335:2336   */\n      0x00\n        /* \"#utility.yul\":2326:2332   */\n      dup4\n        /* \"#utility.yul\":2321:2324   */\n      dup4\n        /* \"#utility.yul\":2317:2333   */\n      add\n        /* \"#utility.yul\":2310:2337   */\n      mstore\n        /* \"#utility.yul\":2205:2344   */\n      pop\n      pop\n      pop\n      jump\t// out\n        /* \"#utility.yul\":2350:2452   */\n    tag_214:\n        /* \"#utility.yul\":2391:2397   */\n      0x00\n        /* \"#utility.yul\":2442:2444   */\n      0x1f\n        /* \"#utility.yul\":2438:2445   */\n      not\n        /* \"#utility.yul\":2433:2435   */\n      0x1f\n        /* \"#utility.yul\":2426:2431   */\n      dup4\n        /* \"#utility.yul\":2422:2436   */\n      add\n        /* \"#utility.yul\":2418:2446   */\n      and\n        /* \"#utility.yul\":2408:2446   */\n      swap1\n      pop\n        /* \"#utility.yul\":2350:2452   */\n      swap2\n      swap1\n      pop\n      jump\t// out\n        /* \"#utility.yul\":2458:2835   */\n    tag_215:\n        /* \"#utility.yul\":2546:2549   */\n      0x00\n        /* \"#utility.yul\":2574:2613   */\n      tag_303\n        /* \"#utility.yul\":2607:2612   */\n      dup3\n        /* \"#utility.yul\":2574:2613   */\n      tag_211\n      jump\t// in\n    tag_303:\n        /* \"#utility.yul\":2629:2700   */\n      tag_304\n        /* \"#utility.yul\":2693:2699   */\n      dup2\n        /* \"#utility.yul\":2688:2691   */\n      dup6\n        /* \"#utility.yul\":2629:2700   */\n      tag_212\n      jump\t// in\n    tag_304:\n        /* \"#utility.yul\":2622:2700   */\n      swap4\n      pop\n        /* \"#utility.yul\":2709:2774   */\n      tag_305\n        /* \"#utility.yul\":2767:2773   */\n      dup2\n        /* \"#utility.yul\":2762:2765   */\n      dup6\n        /* \"#utility.yul\":2755:2759   */\n      0x20\n        /* \"#utility.yul\":2748:2753   */\n      dup7\n        /* \"#utility.yul\":2744:2760   */\n      add\n        /* \"#utility.yul\":2709:2774   */\n      tag_213\n      jump\t// in\n    tag_305:\n        /* \"#utility.yul\":2799:2828   */\n      tag_306\n        /* \"#utility.yul\":2821:2827   */\n      dup2\n        /* \"#utility.yul\":2799:2828   */\n      tag_214\n      jump\t// in\n    tag_306:\n        /* \"#utility.yul\":2794:2797   */\n      dup5\n        /* \"#utility.yul\":2790:2829   */\n      add\n        /* \"#utility.yul\":2783:2829   */\n      swap2\n      pop\n        /* \"#utility.yul\":2550:2835   */\n      pop\n        /* \"#utility.yul\":2458:2835   */\n      swap3\n      swap2\n      pop\n      pop\n      jump\t// out\n        /* \"#utility.yul\":2841:3596   */\n    tag_21:\n        /* \"#utility.yul\":3066:3070   */\n      0x00\n        /* \"#utility.yul\":3104:3107   */\n      0xa0\n        /* \"#utility.yul\":3093:3102   */\n      dup3\n        /* \"#utility.yul\":3089:3108   */\n      add\n        /* \"#utility.yul\":3081:3108   */\n      swap1\n      pop\n        /* \"#utility.yul\":3118:3189   */\n      tag_308\n        /* \"#utility.yul\":3186:3187   */\n      0x00\n        /* \"#utility.yul\":3175:3184   */\n      dup4\n        /* \"#utility.yul\":3171:3188   */\n      add\n        /* \"#utility.yul\":3162:3168   */\n      dup9\n        /* \"#utility.yul\":3118:3189   */\n      tag_209\n      jump\t// in\n    tag_308:\n        /* \"#utility.yul\":3199:3271   */\n      tag_309\n        /* \"#utility.yul\":3267:3269   */\n      0x20\n        /* \"#utility.yul\":3256:3265   */\n      dup4\n        /* \"#utility.yul\":3252:3270   */\n      add\n        /* \"#utility.yul\":3243:3249   */\n      dup8\n        /* \"#utility.yul\":3199:3271   */\n      tag_210\n      jump\t// in\n    tag_309:\n        /* \"#utility.yul\":3318:3327   */\n      dup2\n        /* \"#utility.yul\":3312:3316   */\n      dup2\n        /* \"#utility.yul\":3308:3328   */\n      sub\n        /* \"#utility.yul\":3303:3305   */\n      0x40\n        /* \"#utility.yul\":3292:3301   */\n      dup4\n        /* \"#utility.yul\":3288:3306   */\n      add\n        /* \"#utility.yul\":3281:3329   */\n      mstore\n        /* \"#utility.yul\":3346:3424   */\n      tag_310\n        /* \"#utility.yul\":3419:3423   */\n      dup2\n        /* \"#utility.yul\":3410:3416   */\n      dup7\n        /* \"#utility.yul\":3346:3424   */\n      tag_215\n      jump\t// in\n    tag_310:\n        /* \"#utility.yul\":3338:3424   */\n      swap1\n      pop\n        /* \"#utility.yul\":3434:3506   */\n      tag_311\n        /* \"#utility.yul\":3502:3504   */\n      0x60\n        /* \"#utility.yul\":3491:3500   */\n      dup4\n        /* \"#utility.yul\":3487:3505   */\n      add\n        /* \"#utility.yul\":3478:3484   */\n      dup6\n        /* \"#utility.yul\":3434:3506   */\n      tag_209\n      jump\t// in\n    tag_311:\n        /* \"#utility.yul\":3516:3589   */\n      tag_312\n        /* \"#utility.yul\":3584:3587   */\n      0x80\n        /* \"#utility.yul\":3573:3582   */\n      dup4\n        /* \"#utility.yul\":3569:3588   */\n      add\n        /* \"#utility.yul\":3560:3566   */\n      dup5\n        /* \"#utility.yul\":3516:3589   */\n      tag_209\n      jump\t// in\n    tag_312:\n        /* \"#utility.yul\":2841:3596   */\n      swap7\n      swap6\n      pop\n      pop\n      pop\n      pop\n      pop\n      pop\n      jump\t// out\n        /* \"#utility.yul\":3602:3931   */\n    tag_24:\n        /* \"#utility.yul\":3661:3667   */\n      0x00\n        /* \"#utility.yul\":3710:3712   */\n      0x20\n        /* \"#utility.yul\":3698:3707   */\n      dup3\n        /* \"#utility.yul\":3689:3696   */\n      dup5\n        /* \"#utility.yul\":3685:3708   */\n      sub\n        /* \"#utility.yul\":3681:3713   */\n      slt\n        /* \"#utility.yul\":3678:3797   */\n      iszero\n      tag_314\n      jumpi\n        /* \"#utility.yul\":3716:3795   */\n      tag_315\n      tag_200\n      jump\t// in\n    tag_315:\n        /* \"#utility.yul\":3678:3797   */\n    tag_314:\n        /* \"#utility.yul\":3836:3837   */\n      0x00\n        /* \"#utility.yul\":3861:3914   */\n      tag_316\n        /* \"#utility.yul\":3906:3913   */\n      dup5\n        /* \"#utility.yul\":3897:3903   */\n      dup3\n        /* \"#utility.yul\":3886:3895   */\n      dup6\n        /* \"#utility.yul\":3882:3904   */\n      add\n        /* \"#utility.yul\":3861:3914   */\n      tag_205\n      jump\t// in\n    tag_316:\n        /* \"#utility.yul\":3851:3914   */\n      swap2\n      pop\n        /* \"#utility.yul\":3807:3924   */\n      pop\n        /* \"#utility.yul\":3602:3931   */\n      swap3\n      swap2\n      pop\n      pop\n      jump\t// out\n        /* \"#utility.yul\":3937:4073   */\n    tag_216:\n        /* \"#utility.yul\":4026:4032   */\n      0x00\n        /* \"#utility.yul\":4060:4065   */\n      dup2\n        /* \"#utility.yul\":4054:4066   */\n      mload\n        /* \"#utility.yul\":4044:4066   */\n      swap1\n      pop\n        /* \"#utility.yul\":3937:4073   */\n      swap2\n      swap1\n      pop\n      jump\t// out\n        /* \"#utility.yul\":4079:4285   */\n    tag_217:\n        /* \"#utility.yul\":4200:4211   */\n      0x00\n        /* \"#utility.yul\":4234:4240   */\n      dup3\n        /* \"#utility.yul\":4229:4232   */\n      dup3\n        /* \"#utility.yul\":4222:4241   */\n      mstore\n        /* \"#utility.yul\":4274:4278   */\n      0x20\n        /* \"#utility.yul\":4269:4272   */\n      dup3\n        /* \"#utility.yul\":4265:4279   */\n      add\n        /* \"#utility.yul\":4250:4279   */\n      swap1\n      pop\n        /* \"#utility.yul\":4079:4285   */\n      swap3\n      swap2\n      pop\n      pop\n      jump\t// out\n        /* \"#utility.yul\":4291:4445   */\n    tag_218:\n        /* \"#utility.yul\":4380:4384   */\n      0x00\n        /* \"#utility.yul\":4403:4406   */\n      dup2\n        /* \"#utility.yul\":4395:4406   */\n      swap1\n      pop\n        /* \"#utility.yul\":4433:4437   */\n      0x20\n        /* \"#utility.yul\":4428:4431   */\n      dup3\n        /* \"#utility.yul\":4424:4438   */\n      add\n        /* \"#utility.yul\":4416:4438   */\n      swap1\n      pop\n        /* \"#utility.yul\":4291:4445   */\n      swap2\n      swap1\n      pop\n      jump\t// out\n        /* \"#utility.yul\":4451:4559   */\n    tag_219:\n        /* \"#utility.yul\":4528:4552   */\n      tag_321\n        /* \"#utility.yul\":4546:4551   */\n      dup2\n        /* \"#utility.yul\":4528:4552   */\n      tag_206\n      jump\t// in\n    tag_321:\n        /* \"#utility.yul\":4523:4526   */\n      dup3\n        /* \"#utility.yul\":4516:4553   */\n      mstore\n        /* \"#utility.yul\":4451:4559   */\n      pop\n      pop\n      jump\t// out\n        /* \"#utility.yul\":4565:4673   */\n    tag_220:\n        /* \"#utility.yul\":4642:4666   */\n      tag_323\n        /* \"#utility.yul\":4660:4665   */\n      dup2\n        /* \"#utility.yul\":4642:4666   */\n      tag_203\n      jump\t// in\n    tag_323:\n        /* \"#utility.yul\":4637:4640   */\n      dup3\n        /* \"#utility.yul\":4630:4667   */\n      mstore\n        /* \"#utility.yul\":4565:4673   */\n      pop\n      pop\n      jump\t// out\n        /* \"#utility.yul\":4679:4838   */\n    tag_221:\n        /* \"#utility.yul\":4753:4764   */\n      0x00\n        /* \"#utility.yul\":4787:4793   */\n      dup3\n        /* \"#utility.yul\":4782:4785   */\n      dup3\n        /* \"#utility.yul\":4775:4794   */\n      mstore\n        /* \"#utility.yul\":4827:4831   */\n      0x20\n        /* \"#utility.yul\":4822:4825   */\n      dup3\n        /* \"#utility.yul\":4818:4832   */\n      add\n        /* \"#utility.yul\":4803:4832   */\n      swap1\n      pop\n        /* \"#utility.yul\":4679:4838   */\n      swap3\n      swap2\n      pop\n      pop\n      jump\t// out\n        /* \"#utility.yul\":4844:5201   */\n    tag_222:\n        /* \"#utility.yul\":4922:4925   */\n      0x00\n        /* \"#utility.yul\":4950:4989   */\n      tag_326\n        /* \"#utility.yul\":4983:4988   */\n      dup3\n        /* \"#utility.yul\":4950:4989   */\n      tag_211\n      jump\t// in\n    tag_326:\n        /* \"#utility.yul\":5005:5066   */\n      tag_327\n        /* \"#utility.yul\":5059:5065   */\n      dup2\n        /* \"#utility.yul\":5054:5057   */\n      dup6\n        /* \"#utility.yul\":5005:5066   */\n      tag_221\n      jump\t// in\n    tag_327:\n        /* \"#utility.yul\":4998:5066   */\n      swap4\n      pop\n        /* \"#utility.yul\":5075:5140   */\n      tag_328\n        /* \"#utility.yul\":5133:5139   */\n      dup2\n        /* \"#utility.yul\":5128:5131   */\n      dup6\n        /* \"#utility.yul\":5121:5125   */\n      0x20\n        /* \"#utility.yul\":5114:5119   */\n      dup7\n        /* \"#utility.yul\":5110:5126   */\n      add\n        /* \"#utility.yul\":5075:5140   */\n      tag_213\n      jump\t// in\n    tag_328:\n        /* \"#utility.yul\":5165:5194   */\n      tag_329\n        /* \"#utility.yul\":5187:5193   */\n      dup2\n        /* \"#utility.yul\":5165:5194   */\n      tag_214\n      jump\t// in\n    tag_329:\n        /* \"#utility.yul\":5160:5163   */\n      dup5\n        /* \"#utility.yul\":5156:5195   */\n      add\n        /* \"#utility.yul\":5149:5195   */\n      swap2\n      pop\n        /* \"#utility.yul\":4926:5201   */\n      pop\n        /* \"#utility.yul\":4844:5201   */\n      swap3\n      swap2\n      pop\n      pop\n      jump\t// out\n        /* \"#utility.yul\":5259:6380   */\n    tag_223:\n        /* \"#utility.yul\":5362:5365   */\n      0x00\n        /* \"#utility.yul\":5398:5402   */\n      0xa0\n        /* \"#utility.yul\":5393:5396   */\n      dup4\n        /* \"#utility.yul\":5389:5403   */\n      add\n        /* \"#utility.yul\":5483:5487   */\n      0x00\n        /* \"#utility.yul\":5476:5481   */\n      dup4\n        /* \"#utility.yul\":5472:5488   */\n      add\n        /* \"#utility.yul\":5466:5489   */\n      mload\n        /* \"#utility.yul\":5502:5565   */\n      tag_331\n        /* \"#utility.yul\":5559:5563   */\n      0x00\n        /* \"#utility.yul\":5554:5557   */\n      dup7\n        /* \"#utility.yul\":5550:5564   */\n      add\n        /* \"#utility.yul\":5536:5548   */\n      dup3\n        /* \"#utility.yul\":5502:5565   */\n      tag_219\n      jump\t// in\n    tag_331:\n        /* \"#utility.yul\":5413:5575   */\n      pop\n        /* \"#utility.yul\":5659:5663   */\n      0x20\n        /* \"#utility.yul\":5652:5657   */\n      dup4\n        /* \"#utility.yul\":5648:5664   */\n      add\n        /* \"#utility.yul\":5642:5665   */\n      mload\n        /* \"#utility.yul\":5678:5741   */\n      tag_332\n        /* \"#utility.yul\":5735:5739   */\n      0x20\n        /* \"#utility.yul\":5730:5733   */\n      dup7\n        /* \"#utility.yul\":5726:5740   */\n      add\n        /* \"#utility.yul\":5712:5724   */\n      dup3\n        /* \"#utility.yul\":5678:5741   */\n      tag_220\n      jump\t// in\n    tag_332:\n        /* \"#utility.yul\":5585:5751   */\n      pop\n        /* \"#utility.yul\":5836:5840   */\n      0x40\n        /* \"#utility.yul\":5829:5834   */\n      dup4\n        /* \"#utility.yul\":5825:5841   */\n      add\n        /* \"#utility.yul\":5819:5842   */\n      mload\n        /* \"#utility.yul\":5889:5892   */\n      dup5\n        /* \"#utility.yul\":5883:5887   */\n      dup3\n        /* \"#utility.yul\":5879:5893   */\n      sub\n        /* \"#utility.yul\":5872:5876   */\n      0x40\n        /* \"#utility.yul\":5867:5870   */\n      dup7\n        /* \"#utility.yul\":5863:5877   */\n      add\n        /* \"#utility.yul\":5856:5894   */\n      mstore\n        /* \"#utility.yul\":5915:5988   */\n      tag_333\n        /* \"#utility.yul\":5983:5987   */\n      dup3\n        /* \"#utility.yul\":5969:5981   */\n      dup3\n        /* \"#utility.yul\":5915:5988   */\n      tag_222\n      jump\t// in\n    tag_333:\n        /* \"#utility.yul\":5907:5988   */\n      swap2\n      pop\n        /* \"#utility.yul\":5761:5999   */\n      pop\n        /* \"#utility.yul\":6086:6090   */\n      0x60\n        /* \"#utility.yul\":6079:6084   */\n      dup4\n        /* \"#utility.yul\":6075:6091   */\n      add\n        /* \"#utility.yul\":6069:6092   */\n      mload\n        /* \"#utility.yul\":6105:6168   */\n      tag_334\n        /* \"#utility.yul\":6162:6166   */\n      0x60\n        /* \"#utility.yul\":6157:6160   */\n      dup7\n        /* \"#utility.yul\":6153:6167   */\n      add\n        /* \"#utility.yul\":6139:6151   */\n      dup3\n        /* \"#utility.yul\":6105:6168   */\n      tag_219\n      jump\t// in\n    tag_334:\n        /* \"#utility.yul\":6009:6178   */\n      pop\n        /* \"#utility.yul\":6261:6265   */\n      0x80\n        /* \"#utility.yul\":6254:6259   */\n      dup4\n        /* \"#utility.yul\":6250:6266   */\n      add\n        /* \"#utility.yul\":6244:6267   */\n      mload\n        /* \"#utility.yul\":6280:6343   */\n      tag_335\n        /* \"#utility.yul\":6337:6341   */\n      0x80\n        /* \"#utility.yul\":6332:6335   */\n      dup7\n        /* \"#utility.yul\":6328:6342   */\n      add\n        /* \"#utility.yul\":6314:6326   */\n      dup3\n        /* \"#utility.yul\":6280:6343   */\n      tag_219\n      jump\t// in\n    tag_335:\n        /* \"#utility.yul\":6188:6353   */\n      pop\n        /* \"#utility.yul\":6370:6374   */\n      dup1\n        /* \"#utility.yul\":6363:6374   */\n      swap2\n      pop\n        /* \"#utility.yul\":5367:6380   */\n      pop\n        /* \"#utility.yul\":5259:6380   */\n      swap3\n      swap2\n      pop\n      pop\n      jump\t// out\n        /* \"#utility.yul\":6386:6630   */\n    tag_224:\n        /* \"#utility.yul\":6499:6509   */\n      0x00\n        /* \"#utility.yul\":6534:6624   */\n      tag_337\n        /* \"#utility.yul\":6620:6623   */\n      dup4\n        /* \"#utility.yul\":6612:6618   */\n      dup4\n        /* \"#utility.yul\":6534:6624   */\n      tag_223\n      jump\t// in\n    tag_337:\n        /* \"#utility.yul\":6520:6624   */\n      swap1\n      pop\n        /* \"#utility.yul\":6386:6630   */\n      swap3\n      swap2\n      pop\n      pop\n      jump\t// out\n        /* \"#utility.yul\":6636:6771   */\n    tag_225:\n        /* \"#utility.yul\":6728:6732   */\n      0x00\n        /* \"#utility.yul\":6760:6764   */\n      0x20\n        /* \"#utility.yul\":6755:6758   */\n      dup3\n        /* \"#utility.yul\":6751:6765   */\n      add\n        /* \"#utility.yul\":6743:6765   */\n      swap1\n      pop\n        /* \"#utility.yul\":6636:6771   */\n      swap2\n      swap1\n      pop\n      jump\t// out\n        /* \"#utility.yul\":6833:7920   */\n    tag_226:\n        /* \"#utility.yul\":6996:6999   */\n      0x00\n        /* \"#utility.yul\":7025:7101   */\n      tag_340\n        /* \"#utility.yul\":7095:7100   */\n      dup3\n        /* \"#utility.yul\":7025:7101   */\n      tag_216\n      jump\t// in\n    tag_340:\n        /* \"#utility.yul\":7117:7225   */\n      tag_341\n        /* \"#utility.yul\":7218:7224   */\n      dup2\n        /* \"#utility.yul\":7213:7216   */\n      dup6\n        /* \"#utility.yul\":7117:7225   */\n      tag_217\n      jump\t// in\n    tag_341:\n        /* \"#utility.yul\":7110:7225   */\n      swap4\n      pop\n        /* \"#utility.yul\":7251:7254   */\n      dup4\n        /* \"#utility.yul\":7296:7300   */\n      0x20\n        /* \"#utility.yul\":7288:7294   */\n      dup3\n        /* \"#utility.yul\":7284:7301   */\n      mul\n        /* \"#utility.yul\":7279:7282   */\n      dup6\n        /* \"#utility.yul\":7275:7302   */\n      add\n        /* \"#utility.yul\":7326:7404   */\n      tag_342\n        /* \"#utility.yul\":7398:7403   */\n      dup6\n        /* \"#utility.yul\":7326:7404   */\n      tag_218\n      jump\t// in\n    tag_342:\n        /* \"#utility.yul\":7427:7434   */\n      dup1\n        /* \"#utility.yul\":7458:7459   */\n      0x00\n        /* \"#utility.yul\":7443:7875   */\n    tag_343:\n        /* \"#utility.yul\":7468:7474   */\n      dup6\n        /* \"#utility.yul\":7465:7466   */\n      dup2\n        /* \"#utility.yul\":7462:7475   */\n      lt\n        /* \"#utility.yul\":7443:7875   */\n      iszero\n      tag_345\n      jumpi\n        /* \"#utility.yul\":7539:7548   */\n      dup5\n        /* \"#utility.yul\":7533:7537   */\n      dup5\n        /* \"#utility.yul\":7529:7549   */\n      sub\n        /* \"#utility.yul\":7524:7527   */\n      dup10\n        /* \"#utility.yul\":7517:7550   */\n      mstore\n        /* \"#utility.yul\":7590:7596   */\n      dup2\n        /* \"#utility.yul\":7584:7597   */\n      mload\n        /* \"#utility.yul\":7618:7726   */\n      tag_346\n        /* \"#utility.yul\":7721:7725   */\n      dup6\n        /* \"#utility.yul\":7706:7719   */\n      dup3\n        /* \"#utility.yul\":7618:7726   */\n      tag_224\n      jump\t// in\n    tag_346:\n        /* \"#utility.yul\":7610:7726   */\n      swap5\n      pop\n        /* \"#utility.yul\":7749:7831   */\n      tag_347\n        /* \"#utility.yul\":7824:7830   */\n      dup4\n        /* \"#utility.yul\":7749:7831   */\n      tag_225\n      jump\t// in\n    tag_347:\n        /* \"#utility.yul\":7739:7831   */\n      swap3\n      pop\n        /* \"#utility.yul\":7860:7864   */\n      0x20\n        /* \"#utility.yul\":7855:7858   */\n      dup11\n        /* \"#utility.yul\":7851:7865   */\n      add\n        /* \"#utility.yul\":7844:7865   */\n      swap10\n      pop\n        /* \"#utility.yul\":7503:7875   */\n      pop\n        /* \"#utility.yul\":7490:7491   */\n      0x01\n        /* \"#utility.yul\":7487:7488   */\n      dup2\n        /* \"#utility.yul\":7483:7492   */\n      add\n        /* \"#utility.yul\":7478:7492   */\n      swap1\n      pop\n        /* \"#utility.yul\":7443:7875   */\n      jump(tag_343)\n    tag_345:\n        /* \"#utility.yul\":7447:7461   */\n      pop\n        /* \"#utility.yul\":7891:7895   */\n      dup3\n        /* \"#utility.yul\":7884:7895   */\n      swap8\n      pop\n        /* \"#utility.yul\":7911:7914   */\n      dup8\n        /* \"#utility.yul\":7904:7914   */\n      swap6\n      pop\n        /* \"#utility.yul\":7001:7920   */\n      pop\n      pop\n      pop\n      pop\n      pop\n        /* \"#utility.yul\":6833:7920   */\n      swap3\n      swap2\n      pop\n      pop\n      jump\t// out\n        /* \"#utility.yul\":7926:8387   */\n    tag_27:\n        /* \"#utility.yul\":8113:8117   */\n      0x00\n        /* \"#utility.yul\":8151:8153   */\n      0x20\n        /* \"#utility.yul\":8140:8149   */\n      dup3\n        /* \"#utility.yul\":8136:8154   */\n      add\n        /* \"#utility.yul\":8128:8154   */\n      swap1\n      pop\n        /* \"#utility.yul\":8200:8209   */\n      dup2\n        /* \"#utility.yul\":8194:8198   */\n      dup2\n        /* \"#utility.yul\":8190:8210   */\n      sub\n        /* \"#utility.yul\":8186:8187   */\n      0x00\n        /* \"#utility.yul\":8175:8184   */\n      dup4\n        /* \"#utility.yul\":8171:8188   */\n      add\n        /* \"#utility.yul\":8164:8211   */\n      mstore\n        /* \"#utility.yul\":8228:8380   */\n      tag_349\n        /* \"#utility.yul\":8375:8379   */\n      dup2\n        /* \"#utility.yul\":8366:8372   */\n      dup5\n        /* \"#utility.yul\":8228:8380   */\n      tag_226\n      jump\t// in\n    tag_349:\n        /* \"#utility.yul\":8220:8380   */\n      swap1\n      pop\n        /* \"#utility.yul\":7926:8387   */\n      swap3\n      swap2\n      pop\n      pop\n      jump\t// out\n        /* \"#utility.yul\":8393:8482   */\n    tag_227:\n        /* \"#utility.yul\":8429:8436   */\n      0x00\n        /* \"#utility.yul\":8469:8475   */\n      0xffff\n        /* \"#utility.yul\":8462:8467   */\n      dup3\n        /* \"#utility.yul\":8458:8476   */\n      and\n        /* \"#utility.yul\":8447:8476   */\n      swap1\n      pop\n        /* \"#utility.yul\":8393:8482   */\n      swap2\n      swap1\n      pop\n      jump\t// out\n        /* \"#utility.yul\":8488:8608   */\n    tag_228:\n        /* \"#utility.yul\":8560:8583   */\n      tag_352\n        /* \"#utility.yul\":8577:8582   */\n      dup2\n        /* \"#utility.yul\":8560:8583   */\n      tag_227\n      jump\t// in\n    tag_352:\n        /* \"#utility.yul\":8553:8558   */\n      dup2\n        /* \"#utility.yul\":8550:8584   */\n      eq\n        /* \"#utility.yul\":8540:8602   */\n      tag_353\n      jumpi\n        /* \"#utility.yul\":8598:8599   */\n      0x00\n        /* \"#utility.yul\":8595:8596   */\n      dup1\n        /* \"#utility.yul\":8588:8600   */\n      revert\n        /* \"#utility.yul\":8540:8602   */\n    tag_353:\n        /* \"#utility.yul\":8488:8608   */\n      pop\n      jump\t// out\n        /* \"#utility.yul\":8614:8751   */\n    tag_229:\n        /* \"#utility.yul\":8659:8664   */\n      0x00\n        /* \"#utility.yul\":8697:8703   */\n      dup2\n        /* \"#utility.yul\":8684:8704   */\n      calldataload\n        /* \"#utility.yul\":8675:8704   */\n      swap1\n      pop\n        /* \"#utility.yul\":8713:8745   */\n      tag_355\n        /* \"#utility.yul\":8739:8744   */\n      dup2\n        /* \"#utility.yul\":8713:8745   */\n      tag_228\n      jump\t// in\n    tag_355:\n        /* \"#utility.yul\":8614:8751   */\n      swap3\n      swap2\n      pop\n      pop\n      jump\t// out\n        /* \"#utility.yul\":8757:9084   */\n    tag_33:\n        /* \"#utility.yul\":8815:8821   */\n      0x00\n        /* \"#utility.yul\":8864:8866   */\n      0x20\n        /* \"#utility.yul\":8852:8861   */\n      dup3\n        /* \"#utility.yul\":8843:8850   */\n      dup5\n        /* \"#utility.yul\":8839:8862   */\n      sub\n        /* \"#utility.yul\":8835:8867   */\n      slt\n        /* \"#utility.yul\":8832:8951   */\n      iszero\n      tag_357\n      jumpi\n        /* \"#utility.yul\":8870:8949   */\n      tag_358\n      tag_200\n      jump\t// in\n    tag_358:\n        /* \"#utility.yul\":8832:8951   */\n    tag_357:\n        /* \"#utility.yul\":8990:8991   */\n      0x00\n        /* \"#utility.yul\":9015:9067   */\n      tag_359\n        /* \"#utility.yul\":9059:9066   */\n      dup5\n        /* \"#utility.yul\":9050:9056   */\n      dup3\n        /* \"#utility.yul\":9039:9048   */\n      dup6\n        /* \"#utility.yul\":9035:9057   */\n      add\n        /* \"#utility.yul\":9015:9067   */\n      tag_229\n      jump\t// in\n    tag_359:\n        /* \"#utility.yul\":9005:9067   */\n      swap2\n      pop\n        /* \"#utility.yul\":8961:9077   */\n      pop\n        /* \"#utility.yul\":8757:9084   */\n      swap3\n      swap2\n      pop\n      pop\n      jump\t// out\n        /* \"#utility.yul\":9090:9205   */\n    tag_230:\n        /* \"#utility.yul\":9175:9198   */\n      tag_361\n        /* \"#utility.yul\":9192:9197   */\n      dup2\n        /* \"#utility.yul\":9175:9198   */\n      tag_227\n      jump\t// in\n    tag_361:\n        /* \"#utility.yul\":9170:9173   */\n      dup3\n        /* \"#utility.yul\":9163:9199   */\n      mstore\n        /* \"#utility.yul\":9090:9205   */\n      pop\n      pop\n      jump\t// out\n        /* \"#utility.yul\":9211:9429   */\n    tag_41:\n        /* \"#utility.yul\":9302:9306   */\n      0x00\n        /* \"#utility.yul\":9340:9342   */\n      0x20\n        /* \"#utility.yul\":9329:9338   */\n      dup3\n        /* \"#utility.yul\":9325:9343   */\n      add\n        /* \"#utility.yul\":9317:9343   */\n      swap1\n      pop\n        /* \"#utility.yul\":9353:9422   */\n      tag_363\n        /* \"#utility.yul\":9419:9420   */\n      0x00\n        /* \"#utility.yul\":9408:9417   */\n      dup4\n        /* \"#utility.yul\":9404:9421   */\n      add\n        /* \"#utility.yul\":9395:9401   */\n      dup5\n        /* \"#utility.yul\":9353:9422   */\n      tag_230\n      jump\t// in\n    tag_363:\n        /* \"#utility.yul\":9211:9429   */\n      swap3\n      swap2\n      pop\n      pop\n      jump\t// out\n        /* \"#utility.yul\":9435:9552   */\n    tag_231:\n        /* \"#utility.yul\":9544:9545   */\n      0x00\n        /* \"#utility.yul\":9541:9542   */\n      dup1\n        /* \"#utility.yul\":9534:9546   */\n      revert\n        /* \"#utility.yul\":9558:9675   */\n    tag_232:\n        /* \"#utility.yul\":9667:9668   */\n      0x00\n        /* \"#utility.yul\":9664:9665   */\n      dup1\n        /* \"#utility.yul\":9657:9669   */\n      revert\n        /* \"#utility.yul\":9681:9861   */\n    tag_233:\n        /* \"#utility.yul\":9729:9806   */\n      0x4e487b7100000000000000000000000000000000000000000000000000000000\n        /* \"#utility.yul\":9726:9727   */\n      0x00\n        /* \"#utility.yul\":9719:9807   */\n      mstore\n        /* \"#utility.yul\":9826:9830   */\n      0x41\n        /* \"#utility.yul\":9823:9824   */\n      0x04\n        /* \"#utility.yul\":9816:9831   */\n      mstore\n        /* \"#utility.yul\":9850:9854   */\n      0x24\n        /* \"#utility.yul\":9847:9848   */\n      0x00\n        /* \"#utility.yul\":9840:9855   */\n      revert\n        /* \"#utility.yul\":9867:10148   */\n    tag_234:\n        /* \"#utility.yul\":9950:9977   */\n      tag_368\n        /* \"#utility.yul\":9972:9976   */\n      dup3\n        /* \"#utility.yul\":9950:9977   */\n      tag_214\n      jump\t// in\n    tag_368:\n        /* \"#utility.yul\":9942:9948   */\n      dup2\n        /* \"#utility.yul\":9938:9978   */\n      add\n        /* \"#utility.yul\":10080:10086   */\n      dup2\n        /* \"#utility.yul\":10068:10078   */\n      dup2\n        /* \"#utility.yul\":10065:10087   */\n      lt\n        /* \"#utility.yul\":10044:10062   */\n      0xffffffffffffffff\n        /* \"#utility.yul\":10032:10042   */\n      dup3\n        /* \"#utility.yul\":10029:10063   */\n      gt\n        /* \"#utility.yul\":10026:10088   */\n      or\n        /* \"#utility.yul\":10023:10111   */\n      iszero\n      tag_369\n      jumpi\n        /* \"#utility.yul\":10091:10109   */\n      tag_370\n      tag_233\n      jump\t// in\n    tag_370:\n        /* \"#utility.yul\":10023:10111   */\n    tag_369:\n        /* \"#utility.yul\":10131:10141   */\n      dup1\n        /* \"#utility.yul\":10127:10129   */\n      0x40\n        /* \"#utility.yul\":10120:10142   */\n      mstore\n        /* \"#utility.yul\":9910:10148   */\n      pop\n        /* \"#utility.yul\":9867:10148   */\n      pop\n      pop\n      jump\t// out\n        /* \"#utility.yul\":10154:10283   */\n    tag_235:\n        /* \"#utility.yul\":10188:10194   */\n      0x00\n        /* \"#utility.yul\":10215:10235   */\n      tag_372\n      tag_199\n      jump\t// in\n    tag_372:\n        /* \"#utility.yul\":10205:10235   */\n      swap1\n      pop\n        /* \"#utility.yul\":10244:10277   */\n      tag_373\n        /* \"#utility.yul\":10272:10276   */\n      dup3\n        /* \"#utility.yul\":10264:10270   */\n      dup3\n        /* \"#utility.yul\":10244:10277   */\n      tag_234\n      jump\t// in\n    tag_373:\n        /* \"#utility.yul\":10154:10283   */\n      swap2\n      swap1\n      pop\n      jump\t// out\n        /* \"#utility.yul\":10289:10597   */\n    tag_236:\n        /* \"#utility.yul\":10351:10355   */\n      0x00\n        /* \"#utility.yul\":10441:10459   */\n      0xffffffffffffffff\n        /* \"#utility.yul\":10433:10439   */\n      dup3\n        /* \"#utility.yul\":10430:10460   */\n      gt\n        /* \"#utility.yul\":10427:10483   */\n      iszero\n      tag_375\n      jumpi\n        /* \"#utility.yul\":10463:10481   */\n      tag_376\n      tag_233\n      jump\t// in\n    tag_376:\n        /* \"#utility.yul\":10427:10483   */\n    tag_375:\n        /* \"#utility.yul\":10501:10530   */\n      tag_377\n        /* \"#utility.yul\":10523:10529   */\n      dup3\n        /* \"#utility.yul\":10501:10530   */\n      tag_214\n      jump\t// in\n    tag_377:\n        /* \"#utility.yul\":10493:10530   */\n      swap1\n      pop\n        /* \"#utility.yul\":10585:10589   */\n      0x20\n        /* \"#utility.yul\":10579:10583   */\n      dup2\n        /* \"#utility.yul\":10575:10590   */\n      add\n        /* \"#utility.yul\":10567:10590   */\n      swap1\n      pop\n        /* \"#utility.yul\":10289:10597   */\n      swap2\n      swap1\n      pop\n      jump\t// out\n        /* \"#utility.yul\":10603:10751   */\n    tag_237:\n        /* \"#utility.yul\":10701:10707   */\n      dup3\n        /* \"#utility.yul\":10696:10699   */\n      dup2\n        /* \"#utility.yul\":10691:10694   */\n      dup4\n        /* \"#utility.yul\":10678:10708   */\n      calldatacopy\n        /* \"#utility.yul\":10742:10743   */\n      0x00\n        /* \"#utility.yul\":10733:10739   */\n      dup4\n        /* \"#utility.yul\":10728:10731   */\n      dup4\n        /* \"#utility.yul\":10724:10740   */\n      add\n        /* \"#utility.yul\":10717:10744   */\n      mstore\n        /* \"#utility.yul\":10603:10751   */\n      pop\n      pop\n      pop\n      jump\t// out\n        /* \"#utility.yul\":10757:11182   */\n    tag_238:\n        /* \"#utility.yul\":10835:10840   */\n      0x00\n        /* \"#utility.yul\":10860:10926   */\n      tag_380\n        /* \"#utility.yul\":10876:10925   */\n      tag_381\n        /* \"#utility.yul\":10918:10924   */\n      dup5\n        /* \"#utility.yul\":10876:10925   */\n      tag_236\n      jump\t// in\n    tag_381:\n        /* \"#utility.yul\":10860:10926   */\n      tag_235\n      jump\t// in\n    tag_380:\n        /* \"#utility.yul\":10851:10926   */\n      swap1\n      pop\n        /* \"#utility.yul\":10949:10955   */\n      dup3\n        /* \"#utility.yul\":10942:10947   */\n      dup2\n        /* \"#utility.yul\":10935:10956   */\n      mstore\n        /* \"#utility.yul\":10987:10991   */\n      0x20\n        /* \"#utility.yul\":10980:10985   */\n      dup2\n        /* \"#utility.yul\":10976:10992   */\n      add\n        /* \"#utility.yul\":11025:11028   */\n      dup5\n        /* \"#utility.yul\":11016:11022   */\n      dup5\n        /* \"#utility.yul\":11011:11014   */\n      dup5\n        /* \"#utility.yul\":11007:11023   */\n      add\n        /* \"#utility.yul\":11004:11029   */\n      gt\n        /* \"#utility.yul\":11001:11113   */\n      iszero\n      tag_382\n      jumpi\n        /* \"#utility.yul\":11032:11111   */\n      tag_383\n      tag_232\n      jump\t// in\n    tag_383:\n        /* \"#utility.yul\":11001:11113   */\n    tag_382:\n        /* \"#utility.yul\":11122:11176   */\n      tag_384\n        /* \"#utility.yul\":11169:11175   */\n      dup5\n        /* \"#utility.yul\":11164:11167   */\n      dup3\n        /* \"#utility.yul\":11159:11162   */\n      dup6\n        /* \"#utility.yul\":11122:11176   */\n      tag_237\n      jump\t// in\n    tag_384:\n        /* \"#utility.yul\":10841:11182   */\n      pop\n        /* \"#utility.yul\":10757:11182   */\n      swap4\n      swap3\n      pop\n      pop\n      pop\n      jump\t// out\n        /* \"#utility.yul\":11202:11542   */\n    tag_239:\n        /* \"#utility.yul\":11258:11263   */\n      0x00\n        /* \"#utility.yul\":11307:11310   */\n      dup3\n        /* \"#utility.yul\":11300:11304   */\n      0x1f\n        /* \"#utility.yul\":11292:11298   */\n      dup4\n        /* \"#utility.yul\":11288:11305   */\n      add\n        /* \"#utility.yul\":11284:11311   */\n      slt\n        /* \"#utility.yul\":11274:11396   */\n      tag_386\n      jumpi\n        /* \"#utility.yul\":11315:11394   */\n      tag_387\n      tag_231\n      jump\t// in\n    tag_387:\n        /* \"#utility.yul\":11274:11396   */\n    tag_386:\n        /* \"#utility.yul\":11432:11438   */\n      dup2\n        /* \"#utility.yul\":11419:11439   */\n      calldataload\n        /* \"#utility.yul\":11457:11536   */\n      tag_388\n        /* \"#utility.yul\":11532:11535   */\n      dup5\n        /* \"#utility.yul\":11524:11530   */\n      dup3\n        /* \"#utility.yul\":11517:11521   */\n      0x20\n        /* \"#utility.yul\":11509:11515   */\n      dup7\n        /* \"#utility.yul\":11505:11522   */\n      add\n        /* \"#utility.yul\":11457:11536   */\n      tag_238\n      jump\t// in\n    tag_388:\n        /* \"#utility.yul\":11448:11536   */\n      swap2\n      pop\n        /* \"#utility.yul\":11264:11542   */\n      pop\n        /* \"#utility.yul\":11202:11542   */\n      swap3\n      swap2\n      pop\n      pop\n      jump\t// out\n        /* \"#utility.yul\":11548:12057   */\n    tag_46:\n        /* \"#utility.yul\":11617:11623   */\n      0x00\n        /* \"#utility.yul\":11666:11668   */\n      0x20\n        /* \"#utility.yul\":11654:11663   */\n      dup3\n        /* \"#utility.yul\":11645:11652   */\n      dup5\n        /* \"#utility.yul\":11641:11664   */\n      sub\n        /* \"#utility.yul\":11637:11669   */\n      slt\n        /* \"#utility.yul\":11634:11753   */\n      iszero\n      tag_390\n      jumpi\n        /* \"#utility.yul\":11672:11751   */\n      tag_391\n      tag_200\n      jump\t// in\n    tag_391:\n        /* \"#utility.yul\":11634:11753   */\n    tag_390:\n        /* \"#utility.yul\":11820:11821   */\n      0x00\n        /* \"#utility.yul\":11809:11818   */\n      dup3\n        /* \"#utility.yul\":11805:11822   */\n      add\n        /* \"#utility.yul\":11792:11823   */\n      calldataload\n        /* \"#utility.yul\":11850:11868   */\n      0xffffffffffffffff\n        /* \"#utility.yul\":11842:11848   */\n      dup2\n        /* \"#utility.yul\":11839:11869   */\n      gt\n        /* \"#utility.yul\":11836:11953   */\n      iszero\n      tag_392\n      jumpi\n        /* \"#utility.yul\":11872:11951   */\n      tag_393\n      tag_201\n      jump\t// in\n    tag_393:\n        /* \"#utility.yul\":11836:11953   */\n    tag_392:\n        /* \"#utility.yul\":11977:12040   */\n      tag_394\n        /* \"#utility.yul\":12032:12039   */\n      dup5\n        /* \"#utility.yul\":12023:12029   */\n      dup3\n        /* \"#utility.yul\":12012:12021   */\n      dup6\n        /* \"#utility.yul\":12008:12030   */\n      add\n        /* \"#utility.yul\":11977:12040   */\n      tag_239\n      jump\t// in\n    tag_394:\n        /* \"#utility.yul\":11967:12040   */\n      swap2\n      pop\n        /* \"#utility.yul\":11763:12050   */\n      pop\n        /* \"#utility.yul\":11548:12057   */\n      swap3\n      swap2\n      pop\n      pop\n      jump\t// out\n        /* \"#utility.yul\":12063:12285   */\n    tag_52:\n        /* \"#utility.yul\":12156:12160   */\n      0x00\n        /* \"#utility.yul\":12194:12196   */\n      0x20\n        /* \"#utility.yul\":12183:12192   */\n      dup3\n        /* \"#utility.yul\":12179:12197   */\n      add\n        /* \"#utility.yul\":12171:12197   */\n      swap1\n      pop\n        /* \"#utility.yul\":12207:12278   */\n      tag_396\n        /* \"#utility.yul\":12275:12276   */\n      0x00\n        /* \"#utility.yul\":12264:12273   */\n      dup4\n        /* \"#utility.yul\":12260:12277   */\n      add\n        /* \"#utility.yul\":12251:12257   */\n      dup5\n        /* \"#utility.yul\":12207:12278   */\n      tag_209\n      jump\t// in\n    tag_396:\n        /* \"#utility.yul\":12063:12285   */\n      swap3\n      swap2\n      pop\n      pop\n      jump\t// out\n        /* \"#utility.yul\":12291:12513   */\n    tag_56:\n        /* \"#utility.yul\":12384:12388   */\n      0x00\n        /* \"#utility.yul\":12422:12424   */\n      0x20\n        /* \"#utility.yul\":12411:12420   */\n      dup3\n        /* \"#utility.yul\":12407:12425   */\n      add\n        /* \"#utility.yul\":12399:12425   */\n      swap1\n      pop\n        /* \"#utility.yul\":12435:12506   */\n      tag_398\n        /* \"#utility.yul\":12503:12504   */\n      0x00\n        /* \"#utility.yul\":12492:12501   */\n      dup4\n        /* \"#utility.yul\":12488:12505   */\n      add\n        /* \"#utility.yul\":12479:12485   */\n      dup5\n        /* \"#utility.yul\":12435:12506   */\n      tag_210\n      jump\t// in\n    tag_398:\n        /* \"#utility.yul\":12291:12513   */\n      swap3\n      swap2\n      pop\n      pop\n      jump\t// out\n        /* \"#utility.yul\":12519:12848   */\n    tag_59:\n        /* \"#utility.yul\":12578:12584   */\n      0x00\n        /* \"#utility.yul\":12627:12629   */\n      0x20\n        /* \"#utility.yul\":12615:12624   */\n      dup3\n        /* \"#utility.yul\":12606:12613   */\n      dup5\n        /* \"#utility.yul\":12602:12625   */\n      sub\n        /* \"#utility.yul\":12598:12630   */\n      slt\n        /* \"#utility.yul\":12595:12714   */\n      iszero\n      tag_400\n      jumpi\n        /* \"#utility.yul\":12633:12712   */\n      tag_401\n      tag_200\n      jump\t// in\n    tag_401:\n        /* \"#utility.yul\":12595:12714   */\n    tag_400:\n        /* \"#utility.yul\":12753:12754   */\n      0x00\n        /* \"#utility.yul\":12778:12831   */\n      tag_402\n        /* \"#utility.yul\":12823:12830   */\n      dup5\n        /* \"#utility.yul\":12814:12820   */\n      dup3\n        /* \"#utility.yul\":12803:12812   */\n      dup6\n        /* \"#utility.yul\":12799:12821   */\n      add\n        /* \"#utility.yul\":12778:12831   */\n      tag_208\n      jump\t// in\n    tag_402:\n        /* \"#utility.yul\":12768:12831   */\n      swap2\n      pop\n        /* \"#utility.yul\":12724:12841   */\n      pop\n        /* \"#utility.yul\":12519:12848   */\n      swap3\n      swap2\n      pop\n      pop\n      jump\t// out\n        /* \"#utility.yul\":12906:14037   */\n    tag_240:\n        /* \"#utility.yul\":13019:13022   */\n      0x00\n        /* \"#utility.yul\":13055:13059   */\n      0xa0\n        /* \"#utility.yul\":13050:13053   */\n      dup4\n        /* \"#utility.yul\":13046:13060   */\n      add\n        /* \"#utility.yul\":13140:13144   */\n      0x00\n        /* \"#utility.yul\":13133:13138   */\n      dup4\n        /* \"#utility.yul\":13129:13145   */\n      add\n        /* \"#utility.yul\":13123:13146   */\n      mload\n        /* \"#utility.yul\":13159:13222   */\n      tag_404\n        /* \"#utility.yul\":13216:13220   */\n      0x00\n        /* \"#utility.yul\":13211:13214   */\n      dup7\n        /* \"#utility.yul\":13207:13221   */\n      add\n        /* \"#utility.yul\":13193:13205   */\n      dup3\n        /* \"#utility.yul\":13159:13222   */\n      tag_219\n      jump\t// in\n    tag_404:\n        /* \"#utility.yul\":13070:13232   */\n      pop\n        /* \"#utility.yul\":13316:13320   */\n      0x20\n        /* \"#utility.yul\":13309:13314   */\n      dup4\n        /* \"#utility.yul\":13305:13321   */\n      add\n        /* \"#utility.yul\":13299:13322   */\n      mload\n        /* \"#utility.yul\":13335:13398   */\n      tag_405\n        /* \"#utility.yul\":13392:13396   */\n      0x20\n        /* \"#utility.yul\":13387:13390   */\n      dup7\n        /* \"#utility.yul\":13383:13397   */\n      add\n        /* \"#utility.yul\":13369:13381   */\n      dup3\n        /* \"#utility.yul\":13335:13398   */\n      tag_220\n      jump\t// in\n    tag_405:\n        /* \"#utility.yul\":13242:13408   */\n      pop\n        /* \"#utility.yul\":13493:13497   */\n      0x40\n        /* \"#utility.yul\":13486:13491   */\n      dup4\n        /* \"#utility.yul\":13482:13498   */\n      add\n        /* \"#utility.yul\":13476:13499   */\n      mload\n        /* \"#utility.yul\":13546:13549   */\n      dup5\n        /* \"#utility.yul\":13540:13544   */\n      dup3\n        /* \"#utility.yul\":13536:13550   */\n      sub\n        /* \"#utility.yul\":13529:13533   */\n      0x40\n        /* \"#utility.yul\":13524:13527   */\n      dup7\n        /* \"#utility.yul\":13520:13534   */\n      add\n        /* \"#utility.yul\":13513:13551   */\n      mstore\n        /* \"#utility.yul\":13572:13645   */\n      tag_406\n        /* \"#utility.yul\":13640:13644   */\n      dup3\n        /* \"#utility.yul\":13626:13638   */\n      dup3\n        /* \"#utility.yul\":13572:13645   */\n      tag_222\n      jump\t// in\n    tag_406:\n        /* \"#utility.yul\":13564:13645   */\n      swap2\n      pop\n        /* \"#utility.yul\":13418:13656   */\n      pop\n        /* \"#utility.yul\":13743:13747   */\n      0x60\n        /* \"#utility.yul\":13736:13741   */\n      dup4\n        /* \"#utility.yul\":13732:13748   */\n      add\n        /* \"#utility.yul\":13726:13749   */\n      mload\n        /* \"#utility.yul\":13762:13825   */\n      tag_407\n        /* \"#utility.yul\":13819:13823   */\n      0x60\n        /* \"#utility.yul\":13814:13817   */\n      dup7\n        /* \"#utility.yul\":13810:13824   */\n      add\n        /* \"#utility.yul\":13796:13808   */\n      dup3\n        /* \"#utility.yul\":13762:13825   */\n      tag_219\n      jump\t// in\n    tag_407:\n        /* \"#utility.yul\":13666:13835   */\n      pop\n        /* \"#utility.yul\":13918:13922   */\n      0x80\n        /* \"#utility.yul\":13911:13916   */\n      dup4\n        /* \"#utility.yul\":13907:13923   */\n      add\n        /* \"#utility.yul\":13901:13924   */\n      mload\n        /* \"#utility.yul\":13937:14000   */\n      tag_408\n        /* \"#utility.yul\":13994:13998   */\n      0x80\n        /* \"#utility.yul\":13989:13992   */\n      dup7\n        /* \"#utility.yul\":13985:13999   */\n      add\n        /* \"#utility.yul\":13971:13983   */\n      dup3\n        /* \"#utility.yul\":13937:14000   */\n      tag_219\n      jump\t// in\n    tag_408:\n        /* \"#utility.yul\":13845:14010   */\n      pop\n        /* \"#utility.yul\":14027:14031   */\n      dup1\n        /* \"#utility.yul\":14020:14031   */\n      swap2\n      pop\n        /* \"#utility.yul\":13024:14037   */\n      pop\n        /* \"#utility.yul\":12906:14037   */\n      swap3\n      swap2\n      pop\n      pop\n      jump\t// out\n        /* \"#utility.yul\":14043:14404   */\n    tag_62:\n        /* \"#utility.yul\":14180:14184   */\n      0x00\n        /* \"#utility.yul\":14218:14220   */\n      0x20\n        /* \"#utility.yul\":14207:14216   */\n      dup3\n        /* \"#utility.yul\":14203:14221   */\n      add\n        /* \"#utility.yul\":14195:14221   */\n      swap1\n      pop\n        /* \"#utility.yul\":14267:14276   */\n      dup2\n        /* \"#utility.yul\":14261:14265   */\n      dup2\n        /* \"#utility.yul\":14257:14277   */\n      sub\n        /* \"#utility.yul\":14253:14254   */\n      0x00\n        /* \"#utility.yul\":14242:14251   */\n      dup4\n        /* \"#utility.yul\":14238:14255   */\n      add\n        /* \"#utility.yul\":14231:14278   */\n      mstore\n        /* \"#utility.yul\":14295:14397   */\n      tag_410\n        /* \"#utility.yul\":14392:14396   */\n      dup2\n        /* \"#utility.yul\":14383:14389   */\n      dup5\n        /* \"#utility.yul\":14295:14397   */\n      tag_240\n      jump\t// in\n    tag_410:\n        /* \"#utility.yul\":14287:14397   */\n      swap1\n      pop\n        /* \"#utility.yul\":14043:14404   */\n      swap3\n      swap2\n      pop\n      pop\n      jump\t// out\n        /* \"#utility.yul\":14410:14590   */\n    tag_241:\n        /* \"#utility.yul\":14458:14535   */\n      0x4e487b7100000000000000000000000000000000000000000000000000000000\n        /* \"#utility.yul\":14455:14456   */\n      0x00\n        /* \"#utility.yul\":14448:14536   */\n      mstore\n        /* \"#utility.yul\":14555:14559   */\n      0x22\n        /* \"#utility.yul\":14552:14553   */\n      0x04\n        /* \"#utility.yul\":14545:14560   */\n      mstore\n        /* \"#utility.yul\":14579:14583   */\n      0x24\n        /* \"#utility.yul\":14576:14577   */\n      0x00\n        /* \"#utility.yul\":14569:14584   */\n      revert\n        /* \"#utility.yul\":14596:14916   */\n    tag_69:\n        /* \"#utility.yul\":14640:14646   */\n      0x00\n        /* \"#utility.yul\":14677:14678   */\n      0x02\n        /* \"#utility.yul\":14671:14675   */\n      dup3\n        /* \"#utility.yul\":14667:14679   */\n      div\n        /* \"#utility.yul\":14657:14679   */\n      swap1\n      pop\n        /* \"#utility.yul\":14724:14725   */\n      0x01\n        /* \"#utility.yul\":14718:14722   */\n      dup3\n        /* \"#utility.yul\":14714:14726   */\n      and\n        /* \"#utility.yul\":14745:14763   */\n      dup1\n        /* \"#utility.yul\":14735:14816   */\n      tag_413\n      jumpi\n        /* \"#utility.yul\":14801:14805   */\n      0x7f\n        /* \"#utility.yul\":14793:14799   */\n      dup3\n        /* \"#utility.yul\":14789:14806   */\n      and\n        /* \"#utility.yul\":14779:14806   */\n      swap2\n      pop\n        /* \"#utility.yul\":14735:14816   */\n    tag_413:\n        /* \"#utility.yul\":14863:14865   */\n      0x20\n        /* \"#utility.yul\":14855:14861   */\n      dup3\n        /* \"#utility.yul\":14852:14866   */\n      lt\n        /* \"#utility.yul\":14832:14850   */\n      dup2\n        /* \"#utility.yul\":14829:14867   */\n      sub\n        /* \"#utility.yul\":14826:14910   */\n      tag_414\n      jumpi\n        /* \"#utility.yul\":14882:14900   */\n      tag_415\n      tag_241\n      jump\t// in\n    tag_415:\n        /* \"#utility.yul\":14826:14910   */\n    tag_414:\n        /* \"#utility.yul\":14647:14916   */\n      pop\n        /* \"#utility.yul\":14596:14916   */\n      swap2\n      swap1\n      pop\n      jump\t// out\n        /* \"#utility.yul\":14922:15039   */\n    tag_242:\n        /* \"#utility.yul\":15031:15032   */\n      0x00\n        /* \"#utility.yul\":15028:15029   */\n      dup1\n        /* \"#utility.yul\":15021:15033   */\n      revert\n        /* \"#utility.yul\":15045:15162   */\n    tag_243:\n        /* \"#utility.yul\":15154:15155   */\n      0x00\n        /* \"#utility.yul\":15151:15152   */\n      dup1\n        /* \"#utility.yul\":15144:15156   */\n      revert\n        /* \"#utility.yul\":15168:15602   */\n    tag_244:\n        /* \"#utility.yul\":15257:15262   */\n      0x00\n        /* \"#utility.yul\":15282:15348   */\n      tag_419\n        /* \"#utility.yul\":15298:15347   */\n      tag_420\n        /* \"#utility.yul\":15340:15346   */\n      dup5\n        /* \"#utility.yul\":15298:15347   */\n      tag_236\n      jump\t// in\n    tag_420:\n        /* \"#utility.yul\":15282:15348   */\n      tag_235\n      jump\t// in\n    tag_419:\n        /* \"#utility.yul\":15273:15348   */\n      swap1\n      pop\n        /* \"#utility.yul\":15371:15377   */\n      dup3\n        /* \"#utility.yul\":15364:15369   */\n      dup2\n        /* \"#utility.yul\":15357:15378   */\n      mstore\n        /* \"#utility.yul\":15409:15413   */\n      0x20\n        /* \"#utility.yul\":15402:15407   */\n      dup2\n        /* \"#utility.yul\":15398:15414   */\n      add\n        /* \"#utility.yul\":15447:15450   */\n      dup5\n        /* \"#utility.yul\":15438:15444   */\n      dup5\n        /* \"#utility.yul\":15433:15436   */\n      dup5\n        /* \"#utility.yul\":15429:15445   */\n      add\n        /* \"#utility.yul\":15426:15451   */\n      gt\n        /* \"#utility.yul\":15423:15535   */\n      iszero\n      tag_421\n      jumpi\n        /* \"#utility.yul\":15454:15533   */\n      tag_422\n      tag_232\n      jump\t// in\n    tag_422:\n        /* \"#utility.yul\":15423:15535   */\n    tag_421:\n        /* \"#utility.yul\":15544:15596   */\n      tag_423\n        /* \"#utility.yul\":15589:15595   */\n      dup5\n        /* \"#utility.yul\":15584:15587   */\n      dup3\n        /* \"#utility.yul\":15579:15582   */\n      dup6\n        /* \"#utility.yul\":15544:15596   */\n      tag_213\n      jump\t// in\n    tag_423:\n        /* \"#utility.yul\":15263:15602   */\n      pop\n        /* \"#utility.yul\":15168:15602   */\n      swap4\n      swap3\n      pop\n      pop\n      pop\n      jump\t// out\n        /* \"#utility.yul\":15622:15977   */\n    tag_245:\n        /* \"#utility.yul\":15689:15694   */\n      0x00\n        /* \"#utility.yul\":15738:15741   */\n      dup3\n        /* \"#utility.yul\":15731:15735   */\n      0x1f\n        /* \"#utility.yul\":15723:15729   */\n      dup4\n        /* \"#utility.yul\":15719:15736   */\n      add\n        /* \"#utility.yul\":15715:15742   */\n      slt\n        /* \"#utility.yul\":15705:15827   */\n      tag_425\n      jumpi\n        /* \"#utility.yul\":15746:15825   */\n      tag_426\n      tag_231\n      jump\t// in\n    tag_426:\n        /* \"#utility.yul\":15705:15827   */\n    tag_425:\n        /* \"#utility.yul\":15856:15862   */\n      dup2\n        /* \"#utility.yul\":15850:15863   */\n      mload\n        /* \"#utility.yul\":15881:15971   */\n      tag_427\n        /* \"#utility.yul\":15967:15970   */\n      dup5\n        /* \"#utility.yul\":15959:15965   */\n      dup3\n        /* \"#utility.yul\":15952:15956   */\n      0x20\n        /* \"#utility.yul\":15944:15950   */\n      dup7\n        /* \"#utility.yul\":15940:15957   */\n      add\n        /* \"#utility.yul\":15881:15971   */\n      tag_244\n      jump\t// in\n    tag_427:\n        /* \"#utility.yul\":15872:15971   */\n      swap2\n      pop\n        /* \"#utility.yul\":15695:15977   */\n      pop\n        /* \"#utility.yul\":15622:15977   */\n      swap3\n      swap2\n      pop\n      pop\n      jump\t// out\n        /* \"#utility.yul\":16018:16960   */\n    tag_246:\n        /* \"#utility.yul\":16106:16111   */\n      0x00\n        /* \"#utility.yul\":16150:16154   */\n      0x40\n        /* \"#utility.yul\":16138:16147   */\n      dup3\n        /* \"#utility.yul\":16133:16136   */\n      dup5\n        /* \"#utility.yul\":16129:16148   */\n      sub\n        /* \"#utility.yul\":16125:16155   */\n      slt\n        /* \"#utility.yul\":16122:16239   */\n      iszero\n      tag_429\n      jumpi\n        /* \"#utility.yul\":16158:16237   */\n      tag_430\n      tag_242\n      jump\t// in\n    tag_430:\n        /* \"#utility.yul\":16122:16239   */\n    tag_429:\n        /* \"#utility.yul\":16257:16278   */\n      tag_431\n        /* \"#utility.yul\":16273:16277   */\n      0x40\n        /* \"#utility.yul\":16257:16278   */\n      tag_235\n      jump\t// in\n    tag_431:\n        /* \"#utility.yul\":16248:16278   */\n      swap1\n      pop\n        /* \"#utility.yul\":16365:16366   */\n      0x00\n        /* \"#utility.yul\":16354:16363   */\n      dup3\n        /* \"#utility.yul\":16350:16367   */\n      add\n        /* \"#utility.yul\":16344:16368   */\n      mload\n        /* \"#utility.yul\":16395:16413   */\n      0xffffffffffffffff\n        /* \"#utility.yul\":16387:16393   */\n      dup2\n        /* \"#utility.yul\":16384:16414   */\n      gt\n        /* \"#utility.yul\":16381:16498   */\n      iszero\n      tag_432\n      jumpi\n        /* \"#utility.yul\":16417:16496   */\n      tag_433\n      tag_243\n      jump\t// in\n    tag_433:\n        /* \"#utility.yul\":16381:16498   */\n    tag_432:\n        /* \"#utility.yul\":16537:16607   */\n      tag_434\n        /* \"#utility.yul\":16603:16606   */\n      dup5\n        /* \"#utility.yul\":16594:16600   */\n      dup3\n        /* \"#utility.yul\":16583:16592   */\n      dup6\n        /* \"#utility.yul\":16579:16601   */\n      add\n        /* \"#utility.yul\":16537:16607   */\n      tag_245\n      jump\t// in\n    tag_434:\n        /* \"#utility.yul\":16530:16534   */\n      0x00\n        /* \"#utility.yul\":16523:16528   */\n      dup4\n        /* \"#utility.yul\":16519:16535   */\n      add\n        /* \"#utility.yul\":16512:16608   */\n      mstore\n        /* \"#utility.yul\":16288:16619   */\n      pop\n        /* \"#utility.yul\":16698:16700   */\n      0x20\n        /* \"#utility.yul\":16687:16696   */\n      dup3\n        /* \"#utility.yul\":16683:16701   */\n      add\n        /* \"#utility.yul\":16677:16702   */\n      mload\n        /* \"#utility.yul\":16729:16747   */\n      0xffffffffffffffff\n        /* \"#utility.yul\":16721:16727   */\n      dup2\n        /* \"#utility.yul\":16718:16748   */\n      gt\n        /* \"#utility.yul\":16715:16832   */\n      iszero\n      tag_435\n      jumpi\n        /* \"#utility.yul\":16751:16830   */\n      tag_436\n      tag_243\n      jump\t// in\n    tag_436:\n        /* \"#utility.yul\":16715:16832   */\n    tag_435:\n        /* \"#utility.yul\":16871:16941   */\n      tag_437\n        /* \"#utility.yul\":16937:16940   */\n      dup5\n        /* \"#utility.yul\":16928:16934   */\n      dup3\n        /* \"#utility.yul\":16917:16926   */\n      dup6\n        /* \"#utility.yul\":16913:16935   */\n      add\n        /* \"#utility.yul\":16871:16941   */\n      tag_245\n      jump\t// in\n    tag_437:\n        /* \"#utility.yul\":16864:16868   */\n      0x20\n        /* \"#utility.yul\":16857:16862   */\n      dup4\n        /* \"#utility.yul\":16853:16869   */\n      add\n        /* \"#utility.yul\":16846:16942   */\n      mstore\n        /* \"#utility.yul\":16629:16953   */\n      pop\n        /* \"#utility.yul\":16018:16960   */\n      swap3\n      swap2\n      pop\n      pop\n      jump\t// out\n        /* \"#utility.yul\":16966:17526   */\n    tag_88:\n        /* \"#utility.yul\":17064:17070   */\n      0x00\n        /* \"#utility.yul\":17113:17115   */\n      0x20\n        /* \"#utility.yul\":17101:17110   */\n      dup3\n        /* \"#utility.yul\":17092:17099   */\n      dup5\n        /* \"#utility.yul\":17088:17111   */\n      sub\n        /* \"#utility.yul\":17084:17116   */\n      slt\n        /* \"#utility.yul\":17081:17200   */\n      iszero\n      tag_439\n      jumpi\n        /* \"#utility.yul\":17119:17198   */\n      tag_440\n      tag_200\n      jump\t// in\n    tag_440:\n        /* \"#utility.yul\":17081:17200   */\n    tag_439:\n        /* \"#utility.yul\":17260:17261   */\n      0x00\n        /* \"#utility.yul\":17249:17258   */\n      dup3\n        /* \"#utility.yul\":17245:17262   */\n      add\n        /* \"#utility.yul\":17239:17263   */\n      mload\n        /* \"#utility.yul\":17290:17308   */\n      0xffffffffffffffff\n        /* \"#utility.yul\":17282:17288   */\n      dup2\n        /* \"#utility.yul\":17279:17309   */\n      gt\n        /* \"#utility.yul\":17276:17393   */\n      iszero\n      tag_441\n      jumpi\n        /* \"#utility.yul\":17312:17391   */\n      tag_442\n      tag_201\n      jump\t// in\n    tag_442:\n        /* \"#utility.yul\":17276:17393   */\n    tag_441:\n        /* \"#utility.yul\":17417:17509   */\n      tag_443\n        /* \"#utility.yul\":17501:17508   */\n      dup5\n        /* \"#utility.yul\":17492:17498   */\n      dup3\n        /* \"#utility.yul\":17481:17490   */\n      dup6\n        /* \"#utility.yul\":17477:17499   */\n      add\n        /* \"#utility.yul\":17417:17509   */\n      tag_246\n      jump\t// in\n    tag_443:\n        /* \"#utility.yul\":17407:17509   */\n      swap2\n      pop\n        /* \"#utility.yul\":17210:17519   */\n      pop\n        /* \"#utility.yul\":16966:17526   */\n      swap3\n      swap2\n      pop\n      pop\n      jump\t// out\n        /* \"#utility.yul\":17532:17700   */\n    tag_247:\n        /* \"#utility.yul\":17672:17692   */\n      0x55534552204e4f54205245474953545245440000000000000000000000000000\n        /* \"#utility.yul\":17668:17669   */\n      0x00\n        /* \"#utility.yul\":17660:17666   */\n      dup3\n        /* \"#utility.yul\":17656:17670   */\n      add\n        /* \"#utility.yul\":17649:17693   */\n      mstore\n        /* \"#utility.yul\":17532:17700   */\n      pop\n      jump\t// out\n        /* \"#utility.yul\":17706:18072   */\n    tag_248:\n        /* \"#utility.yul\":17848:17851   */\n      0x00\n        /* \"#utility.yul\":17869:17936   */\n      tag_446\n        /* \"#utility.yul\":17933:17935   */\n      0x12\n        /* \"#utility.yul\":17928:17931   */\n      dup4\n        /* \"#utility.yul\":17869:17936   */\n      tag_212\n      jump\t// in\n    tag_446:\n        /* \"#utility.yul\":17862:17936   */\n      swap2\n      pop\n        /* \"#utility.yul\":17945:18038   */\n      tag_447\n        /* \"#utility.yul\":18034:18037   */\n      dup3\n        /* \"#utility.yul\":17945:18038   */\n      tag_247\n      jump\t// in\n    tag_447:\n        /* \"#utility.yul\":18063:18065   */\n      0x20\n        /* \"#utility.yul\":18058:18061   */\n      dup3\n        /* \"#utility.yul\":18054:18066   */\n      add\n        /* \"#utility.yul\":18047:18066   */\n      swap1\n      pop\n        /* \"#utility.yul\":17706:18072   */\n      swap2\n      swap1\n      pop\n      jump\t// out\n        /* \"#utility.yul\":18078:18497   */\n    tag_91:\n        /* \"#utility.yul\":18244:18248   */\n      0x00\n        /* \"#utility.yul\":18282:18284   */\n      0x20\n        /* \"#utility.yul\":18271:18280   */\n      dup3\n        /* \"#utility.yul\":18267:18285   */\n      add\n        /* \"#utility.yul\":18259:18285   */\n      swap1\n      pop\n        /* \"#utility.yul\":18331:18340   */\n      dup2\n        /* \"#utility.yul\":18325:18329   */\n      dup2\n        /* \"#utility.yul\":18321:18341   */\n      sub\n        /* \"#utility.yul\":18317:18318   */\n      0x00\n        /* \"#utility.yul\":18306:18315   */\n      dup4\n        /* \"#utility.yul\":18302:18319   */\n      add\n        /* \"#utility.yul\":18295:18342   */\n      mstore\n        /* \"#utility.yul\":18359:18490   */\n      tag_449\n        /* \"#utility.yul\":18485:18489   */\n      dup2\n        /* \"#utility.yul\":18359:18490   */\n      tag_248\n      jump\t// in\n    tag_449:\n        /* \"#utility.yul\":18351:18490   */\n      swap1\n      pop\n        /* \"#utility.yul\":18078:18497   */\n      swap2\n      swap1\n      pop\n      jump\t// out\n        /* \"#utility.yul\":18503:18683   */\n    tag_95:\n        /* \"#utility.yul\":18551:18628   */\n      0x4e487b7100000000000000000000000000000000000000000000000000000000\n        /* \"#utility.yul\":18548:18549   */\n      0x00\n        /* \"#utility.yul\":18541:18629   */\n      mstore\n        /* \"#utility.yul\":18648:18652   */\n      0x32\n        /* \"#utility.yul\":18645:18646   */\n      0x04\n        /* \"#utility.yul\":18638:18653   */\n      mstore\n        /* \"#utility.yul\":18672:18676   */\n      0x24\n        /* \"#utility.yul\":18669:18670   */\n      0x00\n        /* \"#utility.yul\":18662:18677   */\n      revert\n        /* \"#utility.yul\":18689:18859   */\n    tag_249:\n        /* \"#utility.yul\":18829:18851   */\n      0x545745455420444f4553204e4f54204558495354000000000000000000000000\n        /* \"#utility.yul\":18825:18826   */\n      0x00\n        /* \"#utility.yul\":18817:18823   */\n      dup3\n        /* \"#utility.yul\":18813:18827   */\n      add\n        /* \"#utility.yul\":18806:18852   */\n      mstore\n        /* \"#utility.yul\":18689:18859   */\n      pop\n      jump\t// out\n        /* \"#utility.yul\":18865:19231   */\n    tag_250:\n        /* \"#utility.yul\":19007:19010   */\n      0x00\n        /* \"#utility.yul\":19028:19095   */\n      tag_453\n        /* \"#utility.yul\":19092:19094   */\n      0x14\n        /* \"#utility.yul\":19087:19090   */\n      dup4\n        /* \"#utility.yul\":19028:19095   */\n      tag_212\n      jump\t// in\n    tag_453:\n        /* \"#utility.yul\":19021:19095   */\n      swap2\n      pop\n        /* \"#utility.yul\":19104:19197   */\n      tag_454\n        /* \"#utility.yul\":19193:19196   */\n      dup3\n        /* \"#utility.yul\":19104:19197   */\n      tag_249\n      jump\t// in\n    tag_454:\n        /* \"#utility.yul\":19222:19224   */\n      0x20\n        /* \"#utility.yul\":19217:19220   */\n      dup3\n        /* \"#utility.yul\":19213:19225   */\n      add\n        /* \"#utility.yul\":19206:19225   */\n      swap1\n      pop\n        /* \"#utility.yul\":18865:19231   */\n      swap2\n      swap1\n      pop\n      jump\t// out\n        /* \"#utility.yul\":19237:19656   */\n    tag_99:\n        /* \"#utility.yul\":19403:19407   */\n      0x00\n        /* \"#utility.yul\":19441:19443   */\n      0x20\n        /* \"#utility.yul\":19430:19439   */\n      dup3\n        /* \"#utility.yul\":19426:19444   */\n      add\n        /* \"#utility.yul\":19418:19444   */\n      swap1\n      pop\n        /* \"#utility.yul\":19490:19499   */\n      dup2\n        /* \"#utility.yul\":19484:19488   */\n      dup2\n        /* \"#utility.yul\":19480:19500   */\n      sub\n        /* \"#utility.yul\":19476:19477   */\n      0x00\n        /* \"#utility.yul\":19465:19474   */\n      dup4\n        /* \"#utility.yul\":19461:19478   */\n      add\n        /* \"#utility.yul\":19454:19501   */\n      mstore\n        /* \"#utility.yul\":19518:19649   */\n      tag_456\n        /* \"#utility.yul\":19644:19648   */\n      dup2\n        /* \"#utility.yul\":19518:19649   */\n      tag_250\n      jump\t// in\n    tag_456:\n        /* \"#utility.yul\":19510:19649   */\n      swap1\n      pop\n        /* \"#utility.yul\":19237:19656   */\n      swap2\n      swap1\n      pop\n      jump\t// out\n        /* \"#utility.yul\":19662:19830   */\n    tag_251:\n        /* \"#utility.yul\":19802:19822   */\n      0x545745455420484153204e4f204c494b45530000000000000000000000000000\n        /* \"#utility.yul\":19798:19799   */\n      0x00\n        /* \"#utility.yul\":19790:19796   */\n      dup3\n        /* \"#utility.yul\":19786:19800   */\n      add\n        /* \"#utility.yul\":19779:19823   */\n      mstore\n        /* \"#utility.yul\":19662:19830   */\n      pop\n      jump\t// out\n        /* \"#utility.yul\":19836:20202   */\n    tag_252:\n        /* \"#utility.yul\":19978:19981   */\n      0x00\n        /* \"#utility.yul\":19999:20066   */\n      tag_459\n        /* \"#utility.yul\":20063:20065   */\n      0x12\n        /* \"#utility.yul\":20058:20061   */\n      dup4\n        /* \"#utility.yul\":19999:20066   */\n      tag_212\n      jump\t// in\n    tag_459:\n        /* \"#utility.yul\":19992:20066   */\n      swap2\n      pop\n        /* \"#utility.yul\":20075:20168   */\n      tag_460\n        /* \"#utility.yul\":20164:20167   */\n      dup3\n        /* \"#utility.yul\":20075:20168   */\n      tag_251\n      jump\t// in\n    tag_460:\n        /* \"#utility.yul\":20193:20195   */\n      0x20\n        /* \"#utility.yul\":20188:20191   */\n      dup3\n        /* \"#utility.yul\":20184:20196   */\n      add\n        /* \"#utility.yul\":20177:20196   */\n      swap1\n      pop\n        /* \"#utility.yul\":19836:20202   */\n      swap2\n      swap1\n      pop\n      jump\t// out\n        /* \"#utility.yul\":20208:20627   */\n    tag_105:\n        /* \"#utility.yul\":20374:20378   */\n      0x00\n        /* \"#utility.yul\":20412:20414   */\n      0x20\n        /* \"#utility.yul\":20401:20410   */\n      dup3\n        /* \"#utility.yul\":20397:20415   */\n      add\n        /* \"#utility.yul\":20389:20415   */\n      swap1\n      pop\n        /* \"#utility.yul\":20461:20470   */\n      dup2\n        /* \"#utility.yul\":20455:20459   */\n      dup2\n        /* \"#utility.yul\":20451:20471   */\n      sub\n        /* \"#utility.yul\":20447:20448   */\n      0x00\n        /* \"#utility.yul\":20436:20445   */\n      dup4\n        /* \"#utility.yul\":20432:20449   */\n      add\n        /* \"#utility.yul\":20425:20472   */\n      mstore\n        /* \"#utility.yul\":20489:20620   */\n      tag_462\n        /* \"#utility.yul\":20615:20619   */\n      dup2\n        /* \"#utility.yul\":20489:20620   */\n      tag_252\n      jump\t// in\n    tag_462:\n        /* \"#utility.yul\":20481:20620   */\n      swap1\n      pop\n        /* \"#utility.yul\":20208:20627   */\n      swap2\n      swap1\n      pop\n      jump\t// out\n        /* \"#utility.yul\":20633:20813   */\n    tag_253:\n        /* \"#utility.yul\":20681:20758   */\n      0x4e487b7100000000000000000000000000000000000000000000000000000000\n        /* \"#utility.yul\":20678:20679   */\n      0x00\n        /* \"#utility.yul\":20671:20759   */\n      mstore\n        /* \"#utility.yul\":20778:20782   */\n      0x11\n        /* \"#utility.yul\":20775:20776   */\n      0x04\n        /* \"#utility.yul\":20768:20783   */\n      mstore\n        /* \"#utility.yul\":20802:20806   */\n      0x24\n        /* \"#utility.yul\":20799:20800   */\n      0x00\n        /* \"#utility.yul\":20792:20807   */\n      revert\n        /* \"#utility.yul\":20819:20990   */\n    tag_110:\n        /* \"#utility.yul\":20858:20861   */\n      0x00\n        /* \"#utility.yul\":20881:20905   */\n      tag_465\n        /* \"#utility.yul\":20899:20904   */\n      dup3\n        /* \"#utility.yul\":20881:20905   */\n      tag_206\n      jump\t// in\n    tag_465:\n        /* \"#utility.yul\":20872:20905   */\n      swap2\n      pop\n        /* \"#utility.yul\":20927:20931   */\n      0x00\n        /* \"#utility.yul\":20920:20925   */\n      dup3\n        /* \"#utility.yul\":20917:20932   */\n      sub\n        /* \"#utility.yul\":20914:20955   */\n      tag_466\n      jumpi\n        /* \"#utility.yul\":20935:20953   */\n      tag_467\n      tag_253\n      jump\t// in\n    tag_467:\n        /* \"#utility.yul\":20914:20955   */\n    tag_466:\n        /* \"#utility.yul\":20982:20983   */\n      0x01\n        /* \"#utility.yul\":20975:20980   */\n      dup3\n        /* \"#utility.yul\":20971:20984   */\n      sub\n        /* \"#utility.yul\":20964:20984   */\n      swap1\n      pop\n        /* \"#utility.yul\":20819:20990   */\n      swap2\n      swap1\n      pop\n      jump\t// out\n        /* \"#utility.yul\":20996:21549   */\n    tag_115:\n        /* \"#utility.yul\":21173:21177   */\n      0x00\n        /* \"#utility.yul\":21211:21214   */\n      0x80\n        /* \"#utility.yul\":21200:21209   */\n      dup3\n        /* \"#utility.yul\":21196:21215   */\n      add\n        /* \"#utility.yul\":21188:21215   */\n      swap1\n      pop\n        /* \"#utility.yul\":21225:21296   */\n      tag_469\n        /* \"#utility.yul\":21293:21294   */\n      0x00\n        /* \"#utility.yul\":21282:21291   */\n      dup4\n        /* \"#utility.yul\":21278:21295   */\n      add\n        /* \"#utility.yul\":21269:21275   */\n      dup8\n        /* \"#utility.yul\":21225:21296   */\n      tag_210\n      jump\t// in\n    tag_469:\n        /* \"#utility.yul\":21306:21378   */\n      tag_470\n        /* \"#utility.yul\":21374:21376   */\n      0x20\n        /* \"#utility.yul\":21363:21372   */\n      dup4\n        /* \"#utility.yul\":21359:21377   */\n      add\n        /* \"#utility.yul\":21350:21356   */\n      dup7\n        /* \"#utility.yul\":21306:21378   */\n      tag_210\n      jump\t// in\n    tag_470:\n        /* \"#utility.yul\":21388:21460   */\n      tag_471\n        /* \"#utility.yul\":21456:21458   */\n      0x40\n        /* \"#utility.yul\":21445:21454   */\n      dup4\n        /* \"#utility.yul\":21441:21459   */\n      add\n        /* \"#utility.yul\":21432:21438   */\n      dup6\n        /* \"#utility.yul\":21388:21460   */\n      tag_209\n      jump\t// in\n    tag_471:\n        /* \"#utility.yul\":21470:21542   */\n      tag_472\n        /* \"#utility.yul\":21538:21540   */\n      0x60\n        /* \"#utility.yul\":21527:21536   */\n      dup4\n        /* \"#utility.yul\":21523:21541   */\n      add\n        /* \"#utility.yul\":21514:21520   */\n      dup5\n        /* \"#utility.yul\":21470:21542   */\n      tag_209\n      jump\t// in\n    tag_472:\n        /* \"#utility.yul\":20996:21549   */\n      swap6\n      swap5\n      pop\n      pop\n      pop\n      pop\n      pop\n      jump\t// out\n        /* \"#utility.yul\":21555:21788   */\n    tag_137:\n        /* \"#utility.yul\":21594:21597   */\n      0x00\n        /* \"#utility.yul\":21617:21641   */\n      tag_474\n        /* \"#utility.yul\":21635:21640   */\n      dup3\n        /* \"#utility.yul\":21617:21641   */\n      tag_206\n      jump\t// in\n    tag_474:\n        /* \"#utility.yul\":21608:21641   */\n      swap2\n      pop\n        /* \"#utility.yul\":21663:21729   */\n      0xffffffffffffffffffffffffffffffffffffffffffffffffffffffffffffffff\n        /* \"#utility.yul\":21656:21661   */\n      dup3\n        /* \"#utility.yul\":21653:21730   */\n      sub\n        /* \"#utility.yul\":21650:21753   */\n      tag_475\n      jumpi\n        /* \"#utility.yul\":21733:21751   */\n      tag_476\n      tag_253\n      jump\t// in\n    tag_476:\n        /* \"#utility.yul\":21650:21753   */\n    tag_475:\n        /* \"#utility.yul\":21780:21781   */\n      0x01\n        /* \"#utility.yul\":21773:21778   */\n      dup3\n        /* \"#utility.yul\":21769:21782   */\n      add\n        /* \"#utility.yul\":21762:21782   */\n      swap1\n      pop\n        /* \"#utility.yul\":21555:21788   */\n      swap2\n      swap1\n      pop\n      jump\t// out\n        /* \"#utility.yul\":21794:21966   */\n    tag_254:\n        /* \"#utility.yul\":21934:21958   */\n      0x547765657420697320746f6f206c6f6e672062726f2100000000000000000000\n        /* \"#utility.yul\":21930:21931   */\n      0x00\n        /* \"#utility.yul\":21922:21928   */\n      dup3\n        /* \"#utility.yul\":21918:21932   */\n      add\n        /* \"#utility.yul\":21911:21959   */\n      mstore\n        /* \"#utility.yul\":21794:21966   */\n      pop\n      jump\t// out\n        /* \"#utility.yul\":21972:22338   */\n    tag_255:\n        /* \"#utility.yul\":22114:22117   */\n      0x00\n        /* \"#utility.yul\":22135:22202   */\n      tag_479\n        /* \"#utility.yul\":22199:22201   */\n      0x16\n        /* \"#utility.yul\":22194:22197   */\n      dup4\n        /* \"#utility.yul\":22135:22202   */\n      tag_212\n      jump\t// in\n    tag_479:\n        /* \"#utility.yul\":22128:22202   */\n      swap2\n      pop\n        /* \"#utility.yul\":22211:22304   */\n      tag_480\n        /* \"#utility.yul\":22300:22303   */\n      dup3\n        /* \"#utility.yul\":22211:22304   */\n      tag_254\n      jump\t// in\n    tag_480:\n        /* \"#utility.yul\":22329:22331   */\n      0x20\n        /* \"#utility.yul\":22324:22327   */\n      dup3\n        /* \"#utility.yul\":22320:22332   */\n      add\n        /* \"#utility.yul\":22313:22332   */\n      swap1\n      pop\n        /* \"#utility.yul\":21972:22338   */\n      swap2\n      swap1\n      pop\n      jump\t// out\n        /* \"#utility.yul\":22344:22763   */\n    tag_157:\n        /* \"#utility.yul\":22510:22514   */\n      0x00\n        /* \"#utility.yul\":22548:22550   */\n      0x20\n        /* \"#utility.yul\":22537:22546   */\n      dup3\n        /* \"#utility.yul\":22533:22551   */\n      add\n        /* \"#utility.yul\":22525:22551   */\n      swap1\n      pop\n        /* \"#utility.yul\":22597:22606   */\n      dup2\n        /* \"#utility.yul\":22591:22595   */\n      dup2\n        /* \"#utility.yul\":22587:22607   */\n      sub\n        /* \"#utility.yul\":22583:22584   */\n      0x00\n        /* \"#utility.yul\":22572:22581   */\n      dup4\n        /* \"#utility.yul\":22568:22585   */\n      add\n        /* \"#utility.yul\":22561:22608   */\n      mstore\n        /* \"#utility.yul\":22625:22756   */\n      tag_482\n        /* \"#utility.yul\":22751:22755   */\n      dup2\n        /* \"#utility.yul\":22625:22756   */\n      tag_255\n      jump\t// in\n    tag_482:\n        /* \"#utility.yul\":22617:22756   */\n      swap1\n      pop\n        /* \"#utility.yul\":22344:22763   */\n      swap2\n      swap1\n      pop\n      jump\t// out\n        /* \"#utility.yul\":22769:22910   */\n    tag_256:\n        /* \"#utility.yul\":22818:22822   */\n      0x00\n        /* \"#utility.yul\":22841:22844   */\n      dup2\n        /* \"#utility.yul\":22833:22844   */\n      swap1\n      pop\n        /* \"#utility.yul\":22864:22867   */\n      dup2\n        /* \"#utility.yul\":22861:22862   */\n      0x00\n        /* \"#utility.yul\":22854:22868   */\n      mstore\n        /* \"#utility.yul\":22898:22902   */\n      0x20\n        /* \"#utility.yul\":22895:22896   */\n      0x00\n        /* \"#utility.yul\":22885:22903   */\n      keccak256\n        /* \"#utility.yul\":22877:22903   */\n      swap1\n      pop\n        /* \"#utility.yul\":22769:22910   */\n      swap2\n      swap1\n      pop\n      jump\t// out\n        /* \"#utility.yul\":22916:23009   */\n    tag_257:\n        /* \"#utility.yul\":22953:22959   */\n      0x00\n        /* \"#utility.yul\":23000:23002   */\n      0x20\n        /* \"#utility.yul\":22995:22997   */\n      0x1f\n        /* \"#utility.yul\":22988:22993   */\n      dup4\n        /* \"#utility.yul\":22984:22998   */\n      add\n        /* \"#utility.yul\":22980:23003   */\n      div\n        /* \"#utility.yul\":22970:23003   */\n      swap1\n      pop\n        /* \"#utility.yul\":22916:23009   */\n      swap2\n      swap1\n      pop\n      jump\t// out\n        /* \"#utility.yul\":23015:23122   */\n    tag_258:\n        /* \"#utility.yul\":23059:23067   */\n      0x00\n        /* \"#utility.yul\":23109:23114   */\n      dup3\n        /* \"#utility.yul\":23103:23107   */\n      dup3\n        /* \"#utility.yul\":23099:23115   */\n      shl\n        /* \"#utility.yul\":23078:23115   */\n      swap1\n      pop\n        /* \"#utility.yul\":23015:23122   */\n      swap3\n      swap2\n      pop\n      pop\n      jump\t// out\n        /* \"#utility.yul\":23128:23521   */\n    tag_259:\n        /* \"#utility.yul\":23197:23203   */\n      0x00\n        /* \"#utility.yul\":23247:23248   */\n      0x08\n        /* \"#utility.yul\":23235:23245   */\n      dup4\n        /* \"#utility.yul\":23231:23249   */\n      mul\n        /* \"#utility.yul\":23270:23367   */\n      tag_487\n        /* \"#utility.yul\":23300:23366   */\n      0xffffffffffffffffffffffffffffffffffffffffffffffffffffffffffffffff\n        /* \"#utility.yul\":23289:23298   */\n      dup3\n        /* \"#utility.yul\":23270:23367   */\n      tag_258\n      jump\t// in\n    tag_487:\n        /* \"#utility.yul\":23388:23427   */\n      tag_488\n        /* \"#utility.yul\":23418:23426   */\n      dup7\n        /* \"#utility.yul\":23407:23416   */\n      dup4\n        /* \"#utility.yul\":23388:23427   */\n      tag_258\n      jump\t// in\n    tag_488:\n        /* \"#utility.yul\":23376:23427   */\n      swap6\n      pop\n        /* \"#utility.yul\":23460:23464   */\n      dup1\n        /* \"#utility.yul\":23456:23465   */\n      not\n        /* \"#utility.yul\":23449:23454   */\n      dup5\n        /* \"#utility.yul\":23445:23466   */\n      and\n        /* \"#utility.yul\":23436:23466   */\n      swap4\n      pop\n        /* \"#utility.yul\":23509:23513   */\n      dup1\n        /* \"#utility.yul\":23499:23507   */\n      dup7\n        /* \"#utility.yul\":23495:23514   */\n      and\n        /* \"#utility.yul\":23488:23493   */\n      dup5\n        /* \"#utility.yul\":23485:23515   */\n      or\n        /* \"#utility.yul\":23475:23515   */\n      swap3\n      pop\n        /* \"#utility.yul\":23204:23521   */\n      pop\n      pop\n        /* \"#utility.yul\":23128:23521   */\n      swap4\n      swap3\n      pop\n      pop\n      pop\n      jump\t// out\n        /* \"#utility.yul\":23527:23587   */\n    tag_260:\n        /* \"#utility.yul\":23555:23558   */\n      0x00\n        /* \"#utility.yul\":23576:23581   */\n      dup2\n        /* \"#utility.yul\":23569:23581   */\n      swap1\n      pop\n        /* \"#utility.yul\":23527:23587   */\n      swap2\n      swap1\n      pop\n      jump\t// out\n        /* \"#utility.yul\":23593:23735   */\n    tag_261:\n        /* \"#utility.yul\":23643:23652   */\n      0x00\n        /* \"#utility.yul\":23676:23729   */\n      tag_491\n        /* \"#utility.yul\":23694:23728   */\n      tag_492\n        /* \"#utility.yul\":23703:23727   */\n      tag_493\n        /* \"#utility.yul\":23721:23726   */\n      dup5\n        /* \"#utility.yul\":23703:23727   */\n      tag_206\n      jump\t// in\n    tag_493:\n        /* \"#utility.yul\":23694:23728   */\n      tag_260\n      jump\t// in\n    tag_492:\n        /* \"#utility.yul\":23676:23729   */\n      tag_206\n      jump\t// in\n    tag_491:\n        /* \"#utility.yul\":23663:23729   */\n      swap1\n      pop\n        /* \"#utility.yul\":23593:23735   */\n      swap2\n      swap1\n      pop\n      jump\t// out\n        /* \"#utility.yul\":23741:23816   */\n    tag_262:\n        /* \"#utility.yul\":23784:23787   */\n      0x00\n        /* \"#utility.yul\":23805:23810   */\n      dup2\n        /* \"#utility.yul\":23798:23810   */\n      swap1\n      pop\n        /* \"#utility.yul\":23741:23816   */\n      swap2\n      swap1\n      pop\n      jump\t// out\n        /* \"#utility.yul\":23822:24091   */\n    tag_263:\n        /* \"#utility.yul\":23932:23971   */\n      tag_496\n        /* \"#utility.yul\":23963:23970   */\n      dup4\n        /* \"#utility.yul\":23932:23971   */\n      tag_261\n      jump\t// in\n    tag_496:\n        /* \"#utility.yul\":23993:24084   */\n      tag_497\n        /* \"#utility.yul\":24042:24083   */\n      tag_498\n        /* \"#utility.yul\":24066:24082   */\n      dup3\n        /* \"#utility.yul\":24042:24083   */\n      tag_262\n      jump\t// in\n    tag_498:\n        /* \"#utility.yul\":24034:24040   */\n      dup5\n        /* \"#utility.yul\":24027:24031   */\n      dup5\n        /* \"#utility.yul\":24021:24032   */\n      sload\n        /* \"#utility.yul\":23993:24084   */\n      tag_259\n      jump\t// in\n    tag_497:\n        /* \"#utility.yul\":23987:23991   */\n      dup3\n        /* \"#utility.yul\":23980:24085   */\n      sstore\n        /* \"#utility.yul\":23898:24091   */\n      pop\n        /* \"#utility.yul\":23822:24091   */\n      pop\n      pop\n      pop\n      jump\t// out\n        /* \"#utility.yul\":24097:24170   */\n    tag_264:\n        /* \"#utility.yul\":24142:24145   */\n      0x00\n        /* \"#utility.yul\":24097:24170   */\n      swap1\n      jump\t// out\n        /* \"#utility.yul\":24176:24365   */\n    tag_265:\n        /* \"#utility.yul\":24253:24285   */\n      tag_501\n      tag_264\n      jump\t// in\n    tag_501:\n        /* \"#utility.yul\":24294:24359   */\n      tag_502\n        /* \"#utility.yul\":24352:24358   */\n      dup2\n        /* \"#utility.yul\":24344:24350   */\n      dup5\n        /* \"#utility.yul\":24338:24342   */\n      dup5\n        /* \"#utility.yul\":24294:24359   */\n      tag_263\n      jump\t// in\n    tag_502:\n        /* \"#utility.yul\":24229:24365   */\n      pop\n        /* \"#utility.yul\":24176:24365   */\n      pop\n      pop\n      jump\t// out\n        /* \"#utility.yul\":24371:24557   */\n    tag_266:\n        /* \"#utility.yul\":24431:24551   */\n    tag_504:\n        /* \"#utility.yul\":24448:24451   */\n      dup2\n        /* \"#utility.yul\":24441:24446   */\n      dup2\n        /* \"#utility.yul\":24438:24452   */\n      lt\n        /* \"#utility.yul\":24431:24551   */\n      iszero\n      tag_506\n      jumpi\n        /* \"#utility.yul\":24502:24541   */\n      tag_507\n        /* \"#utility.yul\":24539:24540   */\n      0x00\n        /* \"#utility.yul\":24532:24537   */\n      dup3\n        /* \"#utility.yul\":24502:24541   */\n      tag_265\n      jump\t// in\n    tag_507:\n        /* \"#utility.yul\":24475:24476   */\n      0x01\n        /* \"#utility.yul\":24468:24473   */\n      dup2\n        /* \"#utility.yul\":24464:24477   */\n      add\n        /* \"#utility.yul\":24455:24477   */\n      swap1\n      pop\n        /* \"#utility.yul\":24431:24551   */\n      jump(tag_504)\n    tag_506:\n        /* \"#utility.yul\":24371:24557   */\n      pop\n      pop\n      jump\t// out\n        /* \"#utility.yul\":24563:25106   */\n    tag_267:\n        /* \"#utility.yul\":24664:24666   */\n      0x1f\n        /* \"#utility.yul\":24659:24662   */\n      dup3\n        /* \"#utility.yul\":24656:24667   */\n      gt\n        /* \"#utility.yul\":24653:25099   */\n      iszero\n      tag_509\n      jumpi\n        /* \"#utility.yul\":24698:24736   */\n      tag_510\n        /* \"#utility.yul\":24730:24735   */\n      dup2\n        /* \"#utility.yul\":24698:24736   */\n      tag_256\n      jump\t// in\n    tag_510:\n        /* \"#utility.yul\":24782:24811   */\n      tag_511\n        /* \"#utility.yul\":24800:24810   */\n      dup5\n        /* \"#utility.yul\":24782:24811   */\n      tag_257\n      jump\t// in\n    tag_511:\n        /* \"#utility.yul\":24772:24780   */\n      dup2\n        /* \"#utility.yul\":24768:24812   */\n      add\n        /* \"#utility.yul\":24965:24967   */\n      0x20\n        /* \"#utility.yul\":24953:24963   */\n      dup6\n        /* \"#utility.yul\":24950:24968   */\n      lt\n        /* \"#utility.yul\":24947:24996   */\n      iszero\n      tag_512\n      jumpi\n        /* \"#utility.yul\":24986:24994   */\n      dup2\n        /* \"#utility.yul\":24971:24994   */\n      swap1\n      pop\n        /* \"#utility.yul\":24947:24996   */\n    tag_512:\n        /* \"#utility.yul\":25009:25089   */\n      tag_513\n        /* \"#utility.yul\":25065:25087   */\n      tag_514\n        /* \"#utility.yul\":25083:25086   */\n      dup6\n        /* \"#utility.yul\":25065:25087   */\n      tag_257\n      jump\t// in\n    tag_514:\n        /* \"#utility.yul\":25055:25063   */\n      dup4\n        /* \"#utility.yul\":25051:25088   */\n      add\n        /* \"#utility.yul\":25038:25049   */\n      dup3\n        /* \"#utility.yul\":25009:25089   */\n      tag_266\n      jump\t// in\n    tag_513:\n        /* \"#utility.yul\":24668:25099   */\n      pop\n      pop\n        /* \"#utility.yul\":24653:25099   */\n    tag_509:\n        /* \"#utility.yul\":24563:25106   */\n      pop\n      pop\n      pop\n      jump\t// out\n        /* \"#utility.yul\":25112:25229   */\n    tag_268:\n        /* \"#utility.yul\":25166:25174   */\n      0x00\n        /* \"#utility.yul\":25216:25221   */\n      dup3\n        /* \"#utility.yul\":25210:25214   */\n      dup3\n        /* \"#utility.yul\":25206:25222   */\n      shr\n        /* \"#utility.yul\":25185:25222   */\n      swap1\n      pop\n        /* \"#utility.yul\":25112:25229   */\n      swap3\n      swap2\n      pop\n      pop\n      jump\t// out\n        /* \"#utility.yul\":25235:25404   */\n    tag_269:\n        /* \"#utility.yul\":25279:25285   */\n      0x00\n        /* \"#utility.yul\":25312:25363   */\n      tag_517\n        /* \"#utility.yul\":25360:25361   */\n      0x00\n        /* \"#utility.yul\":25356:25362   */\n      not\n        /* \"#utility.yul\":25348:25353   */\n      dup5\n        /* \"#utility.yul\":25345:25346   */\n      0x08\n        /* \"#utility.yul\":25341:25354   */\n      mul\n        /* \"#utility.yul\":25312:25363   */\n      tag_268\n      jump\t// in\n    tag_517:\n        /* \"#utility.yul\":25308:25364   */\n      not\n        /* \"#utility.yul\":25393:25397   */\n      dup1\n        /* \"#utility.yul\":25387:25391   */\n      dup4\n        /* \"#utility.yul\":25383:25398   */\n      and\n        /* \"#utility.yul\":25373:25398   */\n      swap2\n      pop\n        /* \"#utility.yul\":25286:25404   */\n      pop\n        /* \"#utility.yul\":25235:25404   */\n      swap3\n      swap2\n      pop\n      pop\n      jump\t// out\n        /* \"#utility.yul\":25409:25704   */\n    tag_270:\n        /* \"#utility.yul\":25485:25489   */\n      0x00\n        /* \"#utility.yul\":25631:25660   */\n      tag_519\n        /* \"#utility.yul\":25656:25659   */\n      dup4\n        /* \"#utility.yul\":25650:25654   */\n      dup4\n        /* \"#utility.yul\":25631:25660   */\n      tag_269\n      jump\t// in\n    tag_519:\n        /* \"#utility.yul\":25623:25660   */\n      swap2\n      pop\n        /* \"#utility.yul\":25693:25696   */\n      dup3\n        /* \"#utility.yul\":25690:25691   */\n      0x02\n        /* \"#utility.yul\":25686:25697   */\n      mul\n        /* \"#utility.yul\":25680:25684   */\n      dup3\n        /* \"#utility.yul\":25677:25698   */\n      or\n        /* \"#utility.yul\":25669:25698   */\n      swap1\n      pop\n        /* \"#utility.yul\":25409:25704   */\n      swap3\n      swap2\n      pop\n      pop\n      jump\t// out\n        /* \"#utility.yul\":25709:27104   */\n    tag_160:\n        /* \"#utility.yul\":25826:25863   */\n      tag_521\n        /* \"#utility.yul\":25859:25862   */\n      dup3\n        /* \"#utility.yul\":25826:25863   */\n      tag_211\n      jump\t// in\n    tag_521:\n        /* \"#utility.yul\":25928:25946   */\n      0xffffffffffffffff\n        /* \"#utility.yul\":25920:25926   */\n      dup2\n        /* \"#utility.yul\":25917:25947   */\n      gt\n        /* \"#utility.yul\":25914:25970   */\n      iszero\n      tag_522\n      jumpi\n        /* \"#utility.yul\":25950:25968   */\n      tag_523\n      tag_233\n      jump\t// in\n    tag_523:\n        /* \"#utility.yul\":25914:25970   */\n    tag_522:\n        /* \"#utility.yul\":25994:26032   */\n      tag_524\n        /* \"#utility.yul\":26026:26030   */\n      dup3\n        /* \"#utility.yul\":26020:26031   */\n      sload\n        /* \"#utility.yul\":25994:26032   */\n      tag_69\n      jump\t// in\n    tag_524:\n        /* \"#utility.yul\":26079:26146   */\n      tag_525\n        /* \"#utility.yul\":26139:26145   */\n      dup3\n        /* \"#utility.yul\":26131:26137   */\n      dup3\n        /* \"#utility.yul\":26125:26129   */\n      dup6\n        /* \"#utility.yul\":26079:26146   */\n      tag_267\n      jump\t// in\n    tag_525:\n        /* \"#utility.yul\":26173:26174   */\n      0x00\n        /* \"#utility.yul\":26197:26201   */\n      0x20\n        /* \"#utility.yul\":26184:26201   */\n      swap1\n      pop\n        /* \"#utility.yul\":26229:26231   */\n      0x1f\n        /* \"#utility.yul\":26221:26227   */\n      dup4\n        /* \"#utility.yul\":26218:26232   */\n      gt\n        /* \"#utility.yul\":26246:26247   */\n      0x01\n        /* \"#utility.yul\":26241:26859   */\n      dup2\n      eq\n      tag_527\n      jumpi\n        /* \"#utility.yul\":26903:26904   */\n      0x00\n        /* \"#utility.yul\":26920:26926   */\n      dup5\n        /* \"#utility.yul\":26917:26994   */\n      iszero\n      tag_528\n      jumpi\n        /* \"#utility.yul\":26969:26978   */\n      dup3\n        /* \"#utility.yul\":26964:26967   */\n      dup8\n        /* \"#utility.yul\":26960:26979   */\n      add\n        /* \"#utility.yul\":26954:26980   */\n      mload\n        /* \"#utility.yul\":26945:26980   */\n      swap1\n      pop\n        /* \"#utility.yul\":26917:26994   */\n    tag_528:\n        /* \"#utility.yul\":27020:27087   */\n      tag_529\n        /* \"#utility.yul\":27080:27086   */\n      dup6\n        /* \"#utility.yul\":27073:27078   */\n      dup3\n        /* \"#utility.yul\":27020:27087   */\n      tag_270\n      jump\t// in\n    tag_529:\n        /* \"#utility.yul\":27014:27018   */\n      dup7\n        /* \"#utility.yul\":27007:27088   */\n      sstore\n        /* \"#utility.yul\":26876:27098   */\n      pop\n        /* \"#utility.yul\":26211:27098   */\n      jump(tag_526)\n        /* \"#utility.yul\":26241:26859   */\n    tag_527:\n        /* \"#utility.yul\":26293:26297   */\n      0x1f\n        /* \"#utility.yul\":26289:26298   */\n      not\n        /* \"#utility.yul\":26281:26287   */\n      dup5\n        /* \"#utility.yul\":26277:26299   */\n      and\n        /* \"#utility.yul\":26327:26364   */\n      tag_530\n        /* \"#utility.yul\":26359:26363   */\n      dup7\n        /* \"#utility.yul\":26327:26364   */\n      tag_256\n      jump\t// in\n    tag_530:\n        /* \"#utility.yul\":26386:26387   */\n      0x00\n        /* \"#utility.yul\":26400:26608   */\n    tag_531:\n        /* \"#utility.yul\":26414:26421   */\n      dup3\n        /* \"#utility.yul\":26411:26412   */\n      dup2\n        /* \"#utility.yul\":26408:26422   */\n      lt\n        /* \"#utility.yul\":26400:26608   */\n      iszero\n      tag_533\n      jumpi\n        /* \"#utility.yul\":26493:26502   */\n      dup5\n        /* \"#utility.yul\":26488:26491   */\n      dup10\n        /* \"#utility.yul\":26484:26503   */\n      add\n        /* \"#utility.yul\":26478:26504   */\n      mload\n        /* \"#utility.yul\":26470:26476   */\n      dup3\n        /* \"#utility.yul\":26463:26505   */\n      sstore\n        /* \"#utility.yul\":26544:26545   */\n      0x01\n        /* \"#utility.yul\":26536:26542   */\n      dup3\n        /* \"#utility.yul\":26532:26546   */\n      add\n        /* \"#utility.yul\":26522:26546   */\n      swap2\n      pop\n        /* \"#utility.yul\":26591:26593   */\n      0x20\n        /* \"#utility.yul\":26580:26589   */\n      dup6\n        /* \"#utility.yul\":26576:26594   */\n      add\n        /* \"#utility.yul\":26563:26594   */\n      swap5\n      pop\n        /* \"#utility.yul\":26437:26441   */\n      0x20\n        /* \"#utility.yul\":26434:26435   */\n      dup2\n        /* \"#utility.yul\":26430:26442   */\n      add\n        /* \"#utility.yul\":26425:26442   */\n      swap1\n      pop\n        /* \"#utility.yul\":26400:26608   */\n      jump(tag_531)\n    tag_533:\n        /* \"#utility.yul\":26636:26642   */\n      dup7\n        /* \"#utility.yul\":26627:26634   */\n      dup4\n        /* \"#utility.yul\":26624:26643   */\n      lt\n        /* \"#utility.yul\":26621:26800   */\n      iszero\n      tag_534\n      jumpi\n        /* \"#utility.yul\":26694:26703   */\n      dup5\n        /* \"#utility.yul\":26689:26692   */\n      dup10\n        /* \"#utility.yul\":26685:26704   */\n      add\n        /* \"#utility.yul\":26679:26705   */\n      mload\n        /* \"#utility.yul\":26737:26785   */\n      tag_535\n        /* \"#utility.yul\":26779:26783   */\n      0x1f\n        /* \"#utility.yul\":26771:26777   */\n      dup10\n        /* \"#utility.yul\":26767:26784   */\n      and\n        /* \"#utility.yul\":26756:26765   */\n      dup3\n        /* \"#utility.yul\":26737:26785   */\n      tag_269\n      jump\t// in\n    tag_535:\n        /* \"#utility.yul\":26729:26735   */\n      dup4\n        /* \"#utility.yul\":26722:26786   */\n      sstore\n        /* \"#utility.yul\":26644:26800   */\n      pop\n        /* \"#utility.yul\":26621:26800   */\n    tag_534:\n        /* \"#utility.yul\":26846:26847   */\n      0x01\n        /* \"#utility.yul\":26842:26843   */\n      0x02\n        /* \"#utility.yul\":26834:26840   */\n      dup9\n        /* \"#utility.yul\":26830:26844   */\n      mul\n        /* \"#utility.yul\":26826:26848   */\n      add\n        /* \"#utility.yul\":26820:26824   */\n      dup9\n        /* \"#utility.yul\":26813:26849   */\n      sstore\n        /* \"#utility.yul\":26248:26859   */\n      pop\n      pop\n      pop\n        /* \"#utility.yul\":26211:27098   */\n    tag_526:\n      pop\n        /* \"#utility.yul\":25801:27104   */\n      pop\n      pop\n      pop\n        /* \"#utility.yul\":25709:27104   */\n      pop\n      pop\n      jump\t// out\n        /* \"#utility.yul\":27110:27754   */\n    tag_162:\n        /* \"#utility.yul\":27307:27311   */\n      0x00\n        /* \"#utility.yul\":27345:27348   */\n      0x80\n        /* \"#utility.yul\":27334:27343   */\n      dup3\n        /* \"#utility.yul\":27330:27349   */\n      add\n        /* \"#utility.yul\":27322:27349   */\n      swap1\n      pop\n        /* \"#utility.yul\":27359:27430   */\n      tag_537\n        /* \"#utility.yul\":27427:27428   */\n      0x00\n        /* \"#utility.yul\":27416:27425   */\n      dup4\n        /* \"#utility.yul\":27412:27429   */\n      add\n        /* \"#utility.yul\":27403:27409   */\n      dup8\n        /* \"#utility.yul\":27359:27430   */\n      tag_209\n      jump\t// in\n    tag_537:\n        /* \"#utility.yul\":27440:27512   */\n      tag_538\n        /* \"#utility.yul\":27508:27510   */\n      0x20\n        /* \"#utility.yul\":27497:27506   */\n      dup4\n        /* \"#utility.yul\":27493:27511   */\n      add\n        /* \"#utility.yul\":27484:27490   */\n      dup7\n        /* \"#utility.yul\":27440:27512   */\n      tag_210\n      jump\t// in\n    tag_538:\n        /* \"#utility.yul\":27559:27568   */\n      dup2\n        /* \"#utility.yul\":27553:27557   */\n      dup2\n        /* \"#utility.yul\":27549:27569   */\n      sub\n        /* \"#utility.yul\":27544:27546   */\n      0x40\n        /* \"#utility.yul\":27533:27542   */\n      dup4\n        /* \"#utility.yul\":27529:27547   */\n      add\n        /* \"#utility.yul\":27522:27570   */\n      mstore\n        /* \"#utility.yul\":27587:27665   */\n      tag_539\n        /* \"#utility.yul\":27660:27664   */\n      dup2\n        /* \"#utility.yul\":27651:27657   */\n      dup6\n        /* \"#utility.yul\":27587:27665   */\n      tag_215\n      jump\t// in\n    tag_539:\n        /* \"#utility.yul\":27579:27665   */\n      swap1\n      pop\n        /* \"#utility.yul\":27675:27747   */\n      tag_540\n        /* \"#utility.yul\":27743:27745   */\n      0x60\n        /* \"#utility.yul\":27732:27741   */\n      dup4\n        /* \"#utility.yul\":27728:27746   */\n      add\n        /* \"#utility.yul\":27719:27725   */\n      dup5\n        /* \"#utility.yul\":27675:27747   */\n      tag_209\n      jump\t// in\n    tag_540:\n        /* \"#utility.yul\":27110:27754   */\n      swap6\n      swap5\n      pop\n      pop\n      pop\n      pop\n      pop\n      jump\t// out\n        /* \"#utility.yul\":27760:27951   */\n    tag_171:\n        /* \"#utility.yul\":27800:27803   */\n      0x00\n        /* \"#utility.yul\":27819:27839   */\n      tag_542\n        /* \"#utility.yul\":27837:27838   */\n      dup3\n        /* \"#utility.yul\":27819:27839   */\n      tag_206\n      jump\t// in\n    tag_542:\n        /* \"#utility.yul\":27814:27839   */\n      swap2\n      pop\n        /* \"#utility.yul\":27853:27873   */\n      tag_543\n        /* \"#utility.yul\":27871:27872   */\n      dup4\n        /* \"#utility.yul\":27853:27873   */\n      tag_206\n      jump\t// in\n    tag_543:\n        /* \"#utility.yul\":27848:27873   */\n      swap3\n      pop\n        /* \"#utility.yul\":27896:27897   */\n      dup3\n        /* \"#utility.yul\":27893:27894   */\n      dup3\n        /* \"#utility.yul\":27889:27898   */\n      add\n        /* \"#utility.yul\":27882:27898   */\n      swap1\n      pop\n        /* \"#utility.yul\":27917:27920   */\n      dup1\n        /* \"#utility.yul\":27914:27915   */\n      dup3\n        /* \"#utility.yul\":27911:27921   */\n      gt\n        /* \"#utility.yul\":27908:27944   */\n      iszero\n      tag_544\n      jumpi\n        /* \"#utility.yul\":27924:27942   */\n      tag_545\n      tag_253\n      jump\t// in\n    tag_545:\n        /* \"#utility.yul\":27908:27944   */\n    tag_544:\n        /* \"#utility.yul\":27760:27951   */\n      swap3\n      swap2\n      pop\n      pop\n      jump\t// out\n\n    auxdata: 0xa26469706673582212204f979fae5534b92096a085009fa505d0d3ec37e144883b4d1133cf2951ce942a64736f6c634300081a0033\n}\n",
				"bytecode": {
					"linkReferences": {},
					"object": "608060405260fa5f60146101000a81548161ffff021916908361ffff16021790555034801561002c575f80fd5b506040516122ed3803806122ed833981810160405281019061004e9190610234565b335f73ffffffffffffffffffffffffffffffffffffffff168173ffffffffffffffffffffffffffffffffffffffff16036100bf575f6040517f1e4fbdf70000000000000000000000000000000000000000000000000000000081526004016100b6919061026e565b60405180910390fd5b6100ce8161011560201b60201c565b508060025f6101000a81548173ffffffffffffffffffffffffffffffffffffffff021916908373ffffffffffffffffffffffffffffffffffffffff16021790555050610287565b5f805f9054906101000a900473ffffffffffffffffffffffffffffffffffffffff169050815f806101000a81548173ffffffffffffffffffffffffffffffffffffffff021916908373ffffffffffffffffffffffffffffffffffffffff1602179055508173ffffffffffffffffffffffffffffffffffffffff168173ffffffffffffffffffffffffffffffffffffffff167f8be0079c531659141344cd1fd0a4f28419497f9722a3daafe3b4186f6b6457e060405160405180910390a35050565b5f80fd5b5f73ffffffffffffffffffffffffffffffffffffffff82169050919050565b5f610203826101da565b9050919050565b610213816101f9565b811461021d575f80fd5b50565b5f8151905061022e8161020a565b92915050565b5f60208284031215610249576102486101d6565b5b5f61025684828501610220565b91505092915050565b610268816101f9565b82525050565b5f6020820190506102815f83018461025f565b92915050565b612059806102945f395ff3fe608060405234801561000f575f80fd5b50600436106100b2575f3560e01c8063715018a61161006f578063715018a61461018c5780637c9cd2bc14610196578063820785cc146101b25780638da5cb5b146101e2578063c3ad5ecb14610200578063f2fde38b14610230576100b2565b806305a1b4a9146100b657806312e7ee1c146100ea5780633d9b569f1461011a57806358bfa4ab1461013657806363378216146101525780636eb107971461016e575b5f80fd5b6100d060048036038101906100cb9190611300565b61024c565b6040516100e19594939291906113cc565b60405180910390f35b61010460048036038101906100ff9190611424565b61033d565b60405161011191906115e3565b60405180910390f35b610134600480360381019061012f9190611300565b6104d8565b005b610150600480360381019061014b919061163a565b61080f565b005b61016c60048036038101906101679190611300565b610836565b005b610176610acd565b6040516101839190611674565b60405180910390f35b610194610ae0565b005b6101b060048036038101906101ab91906117b9565b610af3565b005b6101cc60048036038101906101c79190611424565b610dde565b6040516101d99190611800565b60405180910390f35b6101ea610eb0565b6040516101f79190611819565b60405180910390f35b61021a60048036038101906102159190611832565b610ed7565b60405161022791906118d0565b60405180910390f35b61024a60048036038101906102459190611424565b61104e565b005b6001602052815f5260405f208181548110610265575f80fd5b905f5260205f2090600502015f9150915050805f015490806001015f9054906101000a900473ffffffffffffffffffffffffffffffffffffffff16908060020180546102b09061191d565b80601f01602080910402602001604051908101604052809291908181526020018280546102dc9061191d565b80156103275780601f106102fe57610100808354040283529160200191610327565b820191905f5260205f20905b81548152906001019060200180831161030a57829003601f168201915b5050505050908060030154908060040154905085565b606060015f8373ffffffffffffffffffffffffffffffffffffffff1673ffffffffffffffffffffffffffffffffffffffff1681526020019081526020015f20805480602002602001604051908101604052809291908181526020015f905b828210156104cd578382905f5260205f2090600502016040518060a00160405290815f8201548152602001600182015f9054906101000a900473ffffffffffffffffffffffffffffffffffffffff1673ffffffffffffffffffffffffffffffffffffffff1673ffffffffffffffffffffffffffffffffffffffff16815260200160028201805461042a9061191d565b80601f01602080910402602001604051908101604052809291908181526020018280546104569061191d565b80156104a15780601f10610478576101008083540402835291602001916104a1565b820191905f5260205f20905b81548152906001019060200180831161048457829003601f168201915b50505050508152602001600382015481526020016004820154815250508152602001906001019061039b565b505050509050919050565b5f60025f9054906101000a900473ffffffffffffffffffffffffffffffffffffffff1673ffffffffffffffffffffffffffffffffffffffff16630f53a470336040518263ffffffff1660e01b81526004016105339190611819565b5f60405180830381865afa15801561054d573d5f803e3d5ffd5b505050506040513d5f823e3d601f19601f820116820180604052508101906105759190611a48565b90505f815f015151116105bd576040517f08c379a00000000000000000000000000000000000000000000000000000000081526004016105b490611ad9565b60405180910390fd5b8160015f8573ffffffffffffffffffffffffffffffffffffffff1673ffffffffffffffffffffffffffffffffffffffff1681526020019081526020015f20838154811061060d5761060c611af7565b5b905f5260205f2090600502015f01541461065c576040517f08c379a000000000000000000000000000000000000000000000000000000000815260040161065390611b6e565b60405180910390fd5b5f60015f8573ffffffffffffffffffffffffffffffffffffffff1673ffffffffffffffffffffffffffffffffffffffff1681526020019081526020015f2083815481106106ac576106ab611af7565b5b905f5260205f20906005020160040154116106fc576040517f08c379a00000000000000000000000000000000000000000000000000000000081526004016106f390611bd6565b60405180910390fd5b60015f8473ffffffffffffffffffffffffffffffffffffffff1673ffffffffffffffffffffffffffffffffffffffff1681526020019081526020015f20828154811061074b5761074a611af7565b5b905f5260205f2090600502016004015f81548092919061076a90611c21565b91905055507f762c2616349603ac16eba0de8e6141b79129a07ab63bd99e0a80b3a47171694333848460015f8873ffffffffffffffffffffffffffffffffffffffff1673ffffffffffffffffffffffffffffffffffffffff1681526020019081526020015f2086815481106107e2576107e1611af7565b5b905f5260205f209060050201600401546040516108029493929190611c48565b60405180910390a1505050565b6108176110d2565b805f60146101000a81548161ffff021916908361ffff16021790555050565b5f60025f9054906101000a900473ffffffffffffffffffffffffffffffffffffffff1673ffffffffffffffffffffffffffffffffffffffff16630f53a470336040518263ffffffff1660e01b81526004016108919190611819565b5f60405180830381865afa1580156108ab573d5f803e3d5ffd5b505050506040513d5f823e3d601f19601f820116820180604052508101906108d39190611a48565b90505f815f0151511161091b576040517f08c379a000000000000000000000000000000000000000000000000000000000815260040161091290611ad9565b60405180910390fd5b8160015f8573ffffffffffffffffffffffffffffffffffffffff1673ffffffffffffffffffffffffffffffffffffffff1681526020019081526020015f20838154811061096b5761096a611af7565b5b905f5260205f2090600502015f0154146109ba576040517f08c379a00000000000000000000000000000000000000000000000000000000081526004016109b190611b6e565b60405180910390fd5b60015f8473ffffffffffffffffffffffffffffffffffffffff1673ffffffffffffffffffffffffffffffffffffffff1681526020019081526020015f208281548110610a0957610a08611af7565b5b905f5260205f2090600502016004015f815480929190610a2890611c8b565b91905055507fe8a76fc0f16d11a00d1e93b689b63d76cf60af914dd3d915375dc41d01a0c3c833848460015f8873ffffffffffffffffffffffffffffffffffffffff1673ffffffffffffffffffffffffffffffffffffffff1681526020019081526020015f208681548110610aa057610a9f611af7565b5b905f5260205f20906005020160040154604051610ac09493929190611c48565b60405180910390a1505050565b5f60149054906101000a900461ffff1681565b610ae86110d2565b610af15f611159565b565b5f60025f9054906101000a900473ffffffffffffffffffffffffffffffffffffffff1673ffffffffffffffffffffffffffffffffffffffff16630f53a470336040518263ffffffff1660e01b8152600401610b4e9190611819565b5f60405180830381865afa158015610b68573d5f803e3d5ffd5b505050506040513d5f823e3d601f19601f82011682018060405250810190610b909190611a48565b90505f815f01515111610bd8576040517f08c379a0000000000000000000000000000000000000000000000000000000008152600401610bcf90611ad9565b60405180910390fd5b5f60149054906101000a900461ffff1661ffff1682511115610c2f576040517f08c379a0000000000000000000000000000000000000000000000000000000008152600401610c2690611d1c565b60405180910390fd5b5f6040518060a0016040528060015f3373ffffffffffffffffffffffffffffffffffffffff1673ffffffffffffffffffffffffffffffffffffffff1681526020019081526020015f208054905081526020013373ffffffffffffffffffffffffffffffffffffffff1681526020018481526020014281526020015f815250905060015f3373ffffffffffffffffffffffffffffffffffffffff1673ffffffffffffffffffffffffffffffffffffffff1681526020019081526020015f2081908060018154018082558091505060019003905f5260205f2090600502015f909190919091505f820151815f01556020820151816001015f6101000a81548173ffffffffffffffffffffffffffffffffffffffff021916908373ffffffffffffffffffffffffffffffffffffffff1602179055506040820151816002019081610d769190611ed7565b50606082015181600301556080820151816004015550507f16fd3c13e9d46923e0a8bce11c7b473ec508a72e6c96cd2404b29ce972afc29e815f0151826020015183604001518460600151604051610dd19493929190611fa6565b60405180910390a1505050565b5f805f90505f5b60015f8573ffffffffffffffffffffffffffffffffffffffff1673ffffffffffffffffffffffffffffffffffffffff1681526020019081526020015f2080549050811015610ea65760015f8573ffffffffffffffffffffffffffffffffffffffff1673ffffffffffffffffffffffffffffffffffffffff1681526020019081526020015f208181548110610e7c57610e7b611af7565b5b905f5260205f2090600502016004015482610e979190611ff0565b91508080600101915050610de5565b5080915050919050565b5f805f9054906101000a900473ffffffffffffffffffffffffffffffffffffffff16905090565b610edf611221565b60015f3373ffffffffffffffffffffffffffffffffffffffff1673ffffffffffffffffffffffffffffffffffffffff1681526020019081526020015f208281548110610f2e57610f2d611af7565b5b905f5260205f2090600502016040518060a00160405290815f8201548152602001600182015f9054906101000a900473ffffffffffffffffffffffffffffffffffffffff1673ffffffffffffffffffffffffffffffffffffffff1673ffffffffffffffffffffffffffffffffffffffff168152602001600282018054610fb39061191d565b80601f0160208091040260200160405190810160405280929190818152602001828054610fdf9061191d565b801561102a5780601f106110015761010080835404028352916020019161102a565b820191905f5260205f20905b81548152906001019060200180831161100d57829003601f168201915b50505050508152602001600382015481526020016004820154815250509050919050565b6110566110d2565b5f73ffffffffffffffffffffffffffffffffffffffff168173ffffffffffffffffffffffffffffffffffffffff16036110c6575f6040517f1e4fbdf70000000000000000000000000000000000000000000000000000000081526004016110bd9190611819565b60405180910390fd5b6110cf81611159565b50565b6110da61121a565b73ffffffffffffffffffffffffffffffffffffffff166110f8610eb0565b73ffffffffffffffffffffffffffffffffffffffff16146111575761111b61121a565b6040517f118cdaa700000000000000000000000000000000000000000000000000000000815260040161114e9190611819565b60405180910390fd5b565b5f805f9054906101000a900473ffffffffffffffffffffffffffffffffffffffff169050815f806101000a81548173ffffffffffffffffffffffffffffffffffffffff021916908373ffffffffffffffffffffffffffffffffffffffff1602179055508173ffffffffffffffffffffffffffffffffffffffff168173ffffffffffffffffffffffffffffffffffffffff167f8be0079c531659141344cd1fd0a4f28419497f9722a3daafe3b4186f6b6457e060405160405180910390a35050565b5f33905090565b6040518060a001604052805f81526020015f73ffffffffffffffffffffffffffffffffffffffff168152602001606081526020015f81526020015f81525090565b5f604051905090565b5f80fd5b5f80fd5b5f73ffffffffffffffffffffffffffffffffffffffff82169050919050565b5f61129c82611273565b9050919050565b6112ac81611292565b81146112b6575f80fd5b50565b5f813590506112c7816112a3565b92915050565b5f819050919050565b6112df816112cd565b81146112e9575f80fd5b50565b5f813590506112fa816112d6565b92915050565b5f80604083850312156113165761131561126b565b5b5f611323858286016112b9565b9250506020611334858286016112ec565b9150509250929050565b611347816112cd565b82525050565b61135681611292565b82525050565b5f81519050919050565b5f82825260208201905092915050565b8281835e5f83830152505050565b5f601f19601f8301169050919050565b5f61139e8261135c565b6113a88185611366565b93506113b8818560208601611376565b6113c181611384565b840191505092915050565b5f60a0820190506113df5f83018861133e565b6113ec602083018761134d565b81810360408301526113fe8186611394565b905061140d606083018561133e565b61141a608083018461133e565b9695505050505050565b5f602082840312156114395761143861126b565b5b5f611446848285016112b9565b91505092915050565b5f81519050919050565b5f82825260208201905092915050565b5f819050602082019050919050565b611481816112cd565b82525050565b61149081611292565b82525050565b5f82825260208201905092915050565b5f6114b08261135c565b6114ba8185611496565b93506114ca818560208601611376565b6114d381611384565b840191505092915050565b5f60a083015f8301516114f35f860182611478565b5060208301516115066020860182611487565b506040830151848203604086015261151e82826114a6565b91505060608301516115336060860182611478565b5060808301516115466080860182611478565b508091505092915050565b5f61155c83836114de565b905092915050565b5f602082019050919050565b5f61157a8261144f565b6115848185611459565b93508360208202850161159685611469565b805f5b858110156115d157848403895281516115b28582611551565b94506115bd83611564565b925060208a01995050600181019050611599565b50829750879550505050505092915050565b5f6020820190508181035f8301526115fb8184611570565b905092915050565b5f61ffff82169050919050565b61161981611603565b8114611623575f80fd5b50565b5f8135905061163481611610565b92915050565b5f6020828403121561164f5761164e61126b565b5b5f61165c84828501611626565b91505092915050565b61166e81611603565b82525050565b5f6020820190506116875f830184611665565b92915050565b5f80fd5b5f80fd5b7f4e487b71000000000000000000000000000000000000000000000000000000005f52604160045260245ffd5b6116cb82611384565b810181811067ffffffffffffffff821117156116ea576116e9611695565b5b80604052505050565b5f6116fc611262565b905061170882826116c2565b919050565b5f67ffffffffffffffff82111561172757611726611695565b5b61173082611384565b9050602081019050919050565b828183375f83830152505050565b5f61175d6117588461170d565b6116f3565b90508281526020810184848401111561177957611778611691565b5b61178484828561173d565b509392505050565b5f82601f8301126117a05761179f61168d565b5b81356117b084826020860161174b565b91505092915050565b5f602082840312156117ce576117cd61126b565b5b5f82013567ffffffffffffffff8111156117eb576117ea61126f565b5b6117f78482850161178c565b91505092915050565b5f6020820190506118135f83018461133e565b92915050565b5f60208201905061182c5f83018461134d565b92915050565b5f602082840312156118475761184661126b565b5b5f611854848285016112ec565b91505092915050565b5f60a083015f8301516118725f860182611478565b5060208301516118856020860182611487565b506040830151848203604086015261189d82826114a6565b91505060608301516118b26060860182611478565b5060808301516118c56080860182611478565b508091505092915050565b5f6020820190508181035f8301526118e8818461185d565b905092915050565b7f4e487b71000000000000000000000000000000000000000000000000000000005f52602260045260245ffd5b5f600282049050600182168061193457607f821691505b602082108103611947576119466118f0565b5b50919050565b5f80fd5b5f80fd5b5f6119676119628461170d565b6116f3565b90508281526020810184848401111561198357611982611691565b5b61198e848285611376565b509392505050565b5f82601f8301126119aa576119a961168d565b5b81516119ba848260208601611955565b91505092915050565b5f604082840312156119d8576119d761194d565b5b6119e260406116f3565b90505f82015167ffffffffffffffff811115611a0157611a00611951565b5b611a0d84828501611996565b5f83015250602082015167ffffffffffffffff811115611a3057611a2f611951565b5b611a3c84828501611996565b60208301525092915050565b5f60208284031215611a5d57611a5c61126b565b5b5f82015167ffffffffffffffff811115611a7a57611a7961126f565b5b611a86848285016119c3565b91505092915050565b7f55534552204e4f542052454749535452454400000000000000000000000000005f82015250565b5f611ac3601283611366565b9150611ace82611a8f565b602082019050919050565b5f6020820190508181035f830152611af081611ab7565b9050919050565b7f4e487b71000000000000000000000000000000000000000000000000000000005f52603260045260245ffd5b7f545745455420444f4553204e4f542045584953540000000000000000000000005f82015250565b5f611b58601483611366565b9150611b6382611b24565b602082019050919050565b5f6020820190508181035f830152611b8581611b4c565b9050919050565b7f545745455420484153204e4f204c494b455300000000000000000000000000005f82015250565b5f611bc0601283611366565b9150611bcb82611b8c565b602082019050919050565b5f6020820190508181035f830152611bed81611bb4565b9050919050565b7f4e487b71000000000000000000000000000000000000000000000000000000005f52601160045260245ffd5b5f611c2b826112cd565b91505f8203611c3d57611c3c611bf4565b5b600182039050919050565b5f608082019050611c5b5f83018761134d565b611c68602083018661134d565b611c75604083018561133e565b611c82606083018461133e565b95945050505050565b5f611c95826112cd565b91507fffffffffffffffffffffffffffffffffffffffffffffffffffffffffffffffff8203611cc757611cc6611bf4565b5b600182019050919050565b7f547765657420697320746f6f206c6f6e672062726f21000000000000000000005f82015250565b5f611d06601683611366565b9150611d1182611cd2565b602082019050919050565b5f6020820190508181035f830152611d3381611cfa565b9050919050565b5f819050815f5260205f209050919050565b5f6020601f8301049050919050565b5f82821b905092915050565b5f60088302611d967fffffffffffffffffffffffffffffffffffffffffffffffffffffffffffffffff82611d5b565b611da08683611d5b565b95508019841693508086168417925050509392505050565b5f819050919050565b5f611ddb611dd6611dd1846112cd565b611db8565b6112cd565b9050919050565b5f819050919050565b611df483611dc1565b611e08611e0082611de2565b848454611d67565b825550505050565b5f90565b611e1c611e10565b611e27818484611deb565b505050565b5b81811015611e4a57611e3f5f82611e14565b600181019050611e2d565b5050565b601f821115611e8f57611e6081611d3a565b611e6984611d4c565b81016020851015611e78578190505b611e8c611e8485611d4c565b830182611e2c565b50505b505050565b5f82821c905092915050565b5f611eaf5f1984600802611e94565b1980831691505092915050565b5f611ec78383611ea0565b9150826002028217905092915050565b611ee08261135c565b67ffffffffffffffff811115611ef957611ef8611695565b5b611f03825461191d565b611f0e828285611e4e565b5f60209050601f831160018114611f3f575f8415611f2d578287015190505b611f378582611ebc565b865550611f9e565b601f198416611f4d86611d3a565b5f5b82811015611f7457848901518255600182019150602085019450602081019050611f4f565b86831015611f915784890151611f8d601f891682611ea0565b8355505b6001600288020188555050505b505050505050565b5f608082019050611fb95f83018761133e565b611fc6602083018661134d565b8181036040830152611fd88185611394565b9050611fe7606083018461133e565b95945050505050565b5f611ffa826112cd565b9150612005836112cd565b925082820190508082111561201d5761201c611bf4565b5b9291505056fea26469706673582212204f979fae5534b92096a085009fa505d0d3ec37e144883b4d1133cf2951ce942a64736f6c634300081a0033",
					"opcodes": "PUSH1 0x80 PUSH1 0x40 MSTORE PUSH1 0xFA PUSH0 PUSH1 0x14 PUSH2 0x100 EXP DUP2 SLOAD DUP2 PUSH2 0xFFFF MUL NOT AND SWAP1 DUP4 PUSH2 0xFFFF AND MUL OR SWAP1 SSTORE POP CALLVALUE DUP1 ISZERO PUSH2 0x2C JUMPI PUSH0 DUP1 REVERT JUMPDEST POP PUSH1 0x40 MLOAD PUSH2 0x22ED CODESIZE SUB DUP1 PUSH2 0x22ED DUP4 CODECOPY DUP2 DUP2 ADD PUSH1 0x40 MSTORE DUP2 ADD SWAP1 PUSH2 0x4E SWAP2 SWAP1 PUSH2 0x234 JUMP JUMPDEST CALLER PUSH0 PUSH20 0xFFFFFFFFFFFFFFFFFFFFFFFFFFFFFFFFFFFFFFFF AND DUP2 PUSH20 0xFFFFFFFFFFFFFFFFFFFFFFFFFFFFFFFFFFFFFFFF AND SUB PUSH2 0xBF JUMPI PUSH0 PUSH1 0x40 MLOAD PUSH32 0x1E4FBDF700000000000000000000000000000000000000000000000000000000 DUP2 MSTORE PUSH1 0x4 ADD PUSH2 0xB6 SWAP2 SWAP1 PUSH2 0x26E JUMP JUMPDEST PUSH1 0x40 MLOAD DUP1 SWAP2 SUB SWAP1 REVERT JUMPDEST PUSH2 0xCE DUP2 PUSH2 0x115 PUSH1 0x20 SHL PUSH1 0x20 SHR JUMP JUMPDEST POP DUP1 PUSH1 0x2 PUSH0 PUSH2 0x100 EXP DUP2 SLOAD DUP2 PUSH20 0xFFFFFFFFFFFFFFFFFFFFFFFFFFFFFFFFFFFFFFFF MUL NOT AND SWAP1 DUP4 PUSH20 0xFFFFFFFFFFFFFFFFFFFFFFFFFFFFFFFFFFFFFFFF AND MUL OR SWAP1 SSTORE POP POP PUSH2 0x287 JUMP JUMPDEST PUSH0 DUP1 PUSH0 SWAP1 SLOAD SWAP1 PUSH2 0x100 EXP SWAP1 DIV PUSH20 0xFFFFFFFFFFFFFFFFFFFFFFFFFFFFFFFFFFFFFFFF AND SWAP1 POP DUP2 PUSH0 DUP1 PUSH2 0x100 EXP DUP2 SLOAD DUP2 PUSH20 0xFFFFFFFFFFFFFFFFFFFFFFFFFFFFFFFFFFFFFFFF MUL NOT AND SWAP1 DUP4 PUSH20 0xFFFFFFFFFFFFFFFFFFFFFFFFFFFFFFFFFFFFFFFF AND MUL OR SWAP1 SSTORE POP DUP2 PUSH20 0xFFFFFFFFFFFFFFFFFFFFFFFFFFFFFFFFFFFFFFFF AND DUP2 PUSH20 0xFFFFFFFFFFFFFFFFFFFFFFFFFFFFFFFFFFFFFFFF AND PUSH32 0x8BE0079C531659141344CD1FD0A4F28419497F9722A3DAAFE3B4186F6B6457E0 PUSH1 0x40 MLOAD PUSH1 0x40 MLOAD DUP1 SWAP2 SUB SWAP1 LOG3 POP POP JUMP JUMPDEST PUSH0 DUP1 REVERT JUMPDEST PUSH0 PUSH20 0xFFFFFFFFFFFFFFFFFFFFFFFFFFFFFFFFFFFFFFFF DUP3 AND SWAP1 POP SWAP2 SWAP1 POP JUMP JUMPDEST PUSH0 PUSH2 0x203 DUP3 PUSH2 0x1DA JUMP JUMPDEST SWAP1 POP SWAP2 SWAP1 POP JUMP JUMPDEST PUSH2 0x213 DUP2 PUSH2 0x1F9 JUMP JUMPDEST DUP2 EQ PUSH2 0x21D JUMPI PUSH0 DUP1 REVERT JUMPDEST POP JUMP JUMPDEST PUSH0 DUP2 MLOAD SWAP1 POP PUSH2 0x22E DUP2 PUSH2 0x20A JUMP JUMPDEST SWAP3 SWAP2 POP POP JUMP JUMPDEST PUSH0 PUSH1 0x20 DUP3 DUP5 SUB SLT ISZERO PUSH2 0x249 JUMPI PUSH2 0x248 PUSH2 0x1D6 JUMP JUMPDEST JUMPDEST PUSH0 PUSH2 0x256 DUP5 DUP3 DUP6 ADD PUSH2 0x220 JUMP JUMPDEST SWAP2 POP POP SWAP3 SWAP2 POP POP JUMP JUMPDEST PUSH2 0x268 DUP2 PUSH2 0x1F9 JUMP JUMPDEST DUP3 MSTORE POP POP JUMP JUMPDEST PUSH0 PUSH1 0x20 DUP3 ADD SWAP1 POP PUSH2 0x281 PUSH0 DUP4 ADD DUP5 PUSH2 0x25F JUMP JUMPDEST SWAP3 SWAP2 POP POP JUMP JUMPDEST PUSH2 0x2059 DUP1 PUSH2 0x294 PUSH0 CODECOPY PUSH0 RETURN INVALID PUSH1 0x80 PUSH1 0x40 MSTORE CALLVALUE DUP1 ISZERO PUSH2 0xF JUMPI PUSH0 DUP1 REVERT JUMPDEST POP PUSH1 0x4 CALLDATASIZE LT PUSH2 0xB2 JUMPI PUSH0 CALLDATALOAD PUSH1 0xE0 SHR DUP1 PUSH4 0x715018A6 GT PUSH2 0x6F JUMPI DUP1 PUSH4 0x715018A6 EQ PUSH2 0x18C JUMPI DUP1 PUSH4 0x7C9CD2BC EQ PUSH2 0x196 JUMPI DUP1 PUSH4 0x820785CC EQ PUSH2 0x1B2 JUMPI DUP1 PUSH4 0x8DA5CB5B EQ PUSH2 0x1E2 JUMPI DUP1 PUSH4 0xC3AD5ECB EQ PUSH2 0x200 JUMPI DUP1 PUSH4 0xF2FDE38B EQ PUSH2 0x230 JUMPI PUSH2 0xB2 JUMP JUMPDEST DUP1 PUSH4 0x5A1B4A9 EQ PUSH2 0xB6 JUMPI DUP1 PUSH4 0x12E7EE1C EQ PUSH2 0xEA JUMPI DUP1 PUSH4 0x3D9B569F EQ PUSH2 0x11A JUMPI DUP1 PUSH4 0x58BFA4AB EQ PUSH2 0x136 JUMPI DUP1 PUSH4 0x63378216 EQ PUSH2 0x152 JUMPI DUP1 PUSH4 0x6EB10797 EQ PUSH2 0x16E JUMPI JUMPDEST PUSH0 DUP1 REVERT JUMPDEST PUSH2 0xD0 PUSH1 0x4 DUP1 CALLDATASIZE SUB DUP2 ADD SWAP1 PUSH2 0xCB SWAP2 SWAP1 PUSH2 0x1300 JUMP JUMPDEST PUSH2 0x24C JUMP JUMPDEST PUSH1 0x40 MLOAD PUSH2 0xE1 SWAP6 SWAP5 SWAP4 SWAP3 SWAP2 SWAP1 PUSH2 0x13CC JUMP JUMPDEST PUSH1 0x40 MLOAD DUP1 SWAP2 SUB SWAP1 RETURN JUMPDEST PUSH2 0x104 PUSH1 0x4 DUP1 CALLDATASIZE SUB DUP2 ADD SWAP1 PUSH2 0xFF SWAP2 SWAP1 PUSH2 0x1424 JUMP JUMPDEST PUSH2 0x33D JUMP JUMPDEST PUSH1 0x40 MLOAD PUSH2 0x111 SWAP2 SWAP1 PUSH2 0x15E3 JUMP JUMPDEST PUSH1 0x40 MLOAD DUP1 SWAP2 SUB SWAP1 RETURN JUMPDEST PUSH2 0x134 PUSH1 0x4 DUP1 CALLDATASIZE SUB DUP2 ADD SWAP1 PUSH2 0x12F SWAP2 SWAP1 PUSH2 0x1300 JUMP JUMPDEST PUSH2 0x4D8 JUMP JUMPDEST STOP JUMPDEST PUSH2 0x150 PUSH1 0x4 DUP1 CALLDATASIZE SUB DUP2 ADD SWAP1 PUSH2 0x14B SWAP2 SWAP1 PUSH2 0x163A JUMP JUMPDEST PUSH2 0x80F JUMP JUMPDEST STOP JUMPDEST PUSH2 0x16C PUSH1 0x4 DUP1 CALLDATASIZE SUB DUP2 ADD SWAP1 PUSH2 0x167 SWAP2 SWAP1 PUSH2 0x1300 JUMP JUMPDEST PUSH2 0x836 JUMP JUMPDEST STOP JUMPDEST PUSH2 0x176 PUSH2 0xACD JUMP JUMPDEST PUSH1 0x40 MLOAD PUSH2 0x183 SWAP2 SWAP1 PUSH2 0x1674 JUMP JUMPDEST PUSH1 0x40 MLOAD DUP1 SWAP2 SUB SWAP1 RETURN JUMPDEST PUSH2 0x194 PUSH2 0xAE0 JUMP JUMPDEST STOP JUMPDEST PUSH2 0x1B0 PUSH1 0x4 DUP1 CALLDATASIZE SUB DUP2 ADD SWAP1 PUSH2 0x1AB SWAP2 SWAP1 PUSH2 0x17B9 JUMP JUMPDEST PUSH2 0xAF3 JUMP JUMPDEST STOP JUMPDEST PUSH2 0x1CC PUSH1 0x4 DUP1 CALLDATASIZE SUB DUP2 ADD SWAP1 PUSH2 0x1C7 SWAP2 SWAP1 PUSH2 0x1424 JUMP JUMPDEST PUSH2 0xDDE JUMP JUMPDEST PUSH1 0x40 MLOAD PUSH2 0x1D9 SWAP2 SWAP1 PUSH2 0x1800 JUMP JUMPDEST PUSH1 0x40 MLOAD DUP1 SWAP2 SUB SWAP1 RETURN JUMPDEST PUSH2 0x1EA PUSH2 0xEB0 JUMP JUMPDEST PUSH1 0x40 MLOAD PUSH2 0x1F7 SWAP2 SWAP1 PUSH2 0x1819 JUMP JUMPDEST PUSH1 0x40 MLOAD DUP1 SWAP2 SUB SWAP1 RETURN JUMPDEST PUSH2 0x21A PUSH1 0x4 DUP1 CALLDATASIZE SUB DUP2 ADD SWAP1 PUSH2 0x215 SWAP2 SWAP1 PUSH2 0x1832 JUMP JUMPDEST PUSH2 0xED7 JUMP JUMPDEST PUSH1 0x40 MLOAD PUSH2 0x227 SWAP2 SWAP1 PUSH2 0x18D0 JUMP JUMPDEST PUSH1 0x40 MLOAD DUP1 SWAP2 SUB SWAP1 RETURN JUMPDEST PUSH2 0x24A PUSH1 0x4 DUP1 CALLDATASIZE SUB DUP2 ADD SWAP1 PUSH2 0x245 SWAP2 SWAP1 PUSH2 0x1424 JUMP JUMPDEST PUSH2 0x104E JUMP JUMPDEST STOP JUMPDEST PUSH1 0x1 PUSH1 0x20 MSTORE DUP2 PUSH0 MSTORE PUSH1 0x40 PUSH0 KECCAK256 DUP2 DUP2 SLOAD DUP2 LT PUSH2 0x265 JUMPI PUSH0 DUP1 REVERT JUMPDEST SWAP1 PUSH0 MSTORE PUSH1 0x20 PUSH0 KECCAK256 SWAP1 PUSH1 0x5 MUL ADD PUSH0 SWAP2 POP SWAP2 POP POP DUP1 PUSH0 ADD SLOAD SWAP1 DUP1 PUSH1 0x1 ADD PUSH0 SWAP1 SLOAD SWAP1 PUSH2 0x100 EXP SWAP1 DIV PUSH20 0xFFFFFFFFFFFFFFFFFFFFFFFFFFFFFFFFFFFFFFFF AND SWAP1 DUP1 PUSH1 0x2 ADD DUP1 SLOAD PUSH2 0x2B0 SWAP1 PUSH2 0x191D JUMP JUMPDEST DUP1 PUSH1 0x1F ADD PUSH1 0x20 DUP1 SWAP2 DIV MUL PUSH1 0x20 ADD PUSH1 0x40 MLOAD SWAP1 DUP2 ADD PUSH1 0x40 MSTORE DUP1 SWAP3 SWAP2 SWAP1 DUP2 DUP2 MSTORE PUSH1 0x20 ADD DUP3 DUP1 SLOAD PUSH2 0x2DC SWAP1 PUSH2 0x191D JUMP JUMPDEST DUP1 ISZERO PUSH2 0x327 JUMPI DUP1 PUSH1 0x1F LT PUSH2 0x2FE JUMPI PUSH2 0x100 DUP1 DUP4 SLOAD DIV MUL DUP4 MSTORE SWAP2 PUSH1 0x20 ADD SWAP2 PUSH2 0x327 JUMP JUMPDEST DUP3 ADD SWAP2 SWAP1 PUSH0 MSTORE PUSH1 0x20 PUSH0 KECCAK256 SWAP1 JUMPDEST DUP2 SLOAD DUP2 MSTORE SWAP1 PUSH1 0x1 ADD SWAP1 PUSH1 0x20 ADD DUP1 DUP4 GT PUSH2 0x30A JUMPI DUP3 SWAP1 SUB PUSH1 0x1F AND DUP3 ADD SWAP2 JUMPDEST POP POP POP POP POP SWAP1 DUP1 PUSH1 0x3 ADD SLOAD SWAP1 DUP1 PUSH1 0x4 ADD SLOAD SWAP1 POP DUP6 JUMP JUMPDEST PUSH1 0x60 PUSH1 0x1 PUSH0 DUP4 PUSH20 0xFFFFFFFFFFFFFFFFFFFFFFFFFFFFFFFFFFFFFFFF AND PUSH20 0xFFFFFFFFFFFFFFFFFFFFFFFFFFFFFFFFFFFFFFFF AND DUP2 MSTORE PUSH1 0x20 ADD SWAP1 DUP2 MSTORE PUSH1 0x20 ADD PUSH0 KECCAK256 DUP1 SLOAD DUP1 PUSH1 0x20 MUL PUSH1 0x20 ADD PUSH1 0x40 MLOAD SWAP1 DUP2 ADD PUSH1 0x40 MSTORE DUP1 SWAP3 SWAP2 SWAP1 DUP2 DUP2 MSTORE PUSH1 0x20 ADD PUSH0 SWAP1 JUMPDEST DUP3 DUP3 LT ISZERO PUSH2 0x4CD JUMPI DUP4 DUP3 SWAP1 PUSH0 MSTORE PUSH1 0x20 PUSH0 KECCAK256 SWAP1 PUSH1 0x5 MUL ADD PUSH1 0x40 MLOAD DUP1 PUSH1 0xA0 ADD PUSH1 0x40 MSTORE SWAP1 DUP2 PUSH0 DUP3 ADD SLOAD DUP2 MSTORE PUSH1 0x20 ADD PUSH1 0x1 DUP3 ADD PUSH0 SWAP1 SLOAD SWAP1 PUSH2 0x100 EXP SWAP1 DIV PUSH20 0xFFFFFFFFFFFFFFFFFFFFFFFFFFFFFFFFFFFFFFFF AND PUSH20 0xFFFFFFFFFFFFFFFFFFFFFFFFFFFFFFFFFFFFFFFF AND PUSH20 0xFFFFFFFFFFFFFFFFFFFFFFFFFFFFFFFFFFFFFFFF AND DUP2 MSTORE PUSH1 0x20 ADD PUSH1 0x2 DUP3 ADD DUP1 SLOAD PUSH2 0x42A SWAP1 PUSH2 0x191D JUMP JUMPDEST DUP1 PUSH1 0x1F ADD PUSH1 0x20 DUP1 SWAP2 DIV MUL PUSH1 0x20 ADD PUSH1 0x40 MLOAD SWAP1 DUP2 ADD PUSH1 0x40 MSTORE DUP1 SWAP3 SWAP2 SWAP1 DUP2 DUP2 MSTORE PUSH1 0x20 ADD DUP3 DUP1 SLOAD PUSH2 0x456 SWAP1 PUSH2 0x191D JUMP JUMPDEST DUP1 ISZERO PUSH2 0x4A1 JUMPI DUP1 PUSH1 0x1F LT PUSH2 0x478 JUMPI PUSH2 0x100 DUP1 DUP4 SLOAD DIV MUL DUP4 MSTORE SWAP2 PUSH1 0x20 ADD SWAP2 PUSH2 0x4A1 JUMP JUMPDEST DUP3 ADD SWAP2 SWAP1 PUSH0 MSTORE PUSH1 0x20 PUSH0 KECCAK256 SWAP1 JUMPDEST DUP2 SLOAD DUP2 MSTORE SWAP1 PUSH1 0x1 ADD SWAP1 PUSH1 0x20 ADD DUP1 DUP4 GT PUSH2 0x484 JUMPI DUP3 SWAP1 SUB PUSH1 0x1F AND DUP3 ADD SWAP2 JUMPDEST POP POP POP POP POP DUP2 MSTORE PUSH1 0x20 ADD PUSH1 0x3 DUP3 ADD SLOAD DUP2 MSTORE PUSH1 0x20 ADD PUSH1 0x4 DUP3 ADD SLOAD DUP2 MSTORE POP POP DUP2 MSTORE PUSH1 0x20 ADD SWAP1 PUSH1 0x1 ADD SWAP1 PUSH2 0x39B JUMP JUMPDEST POP POP POP POP SWAP1 POP SWAP2 SWAP1 POP JUMP JUMPDEST PUSH0 PUSH1 0x2 PUSH0 SWAP1 SLOAD SWAP1 PUSH2 0x100 EXP SWAP1 DIV PUSH20 0xFFFFFFFFFFFFFFFFFFFFFFFFFFFFFFFFFFFFFFFF AND PUSH20 0xFFFFFFFFFFFFFFFFFFFFFFFFFFFFFFFFFFFFFFFF AND PUSH4 0xF53A470 CALLER PUSH1 0x40 MLOAD DUP3 PUSH4 0xFFFFFFFF AND PUSH1 0xE0 SHL DUP2 MSTORE PUSH1 0x4 ADD PUSH2 0x533 SWAP2 SWAP1 PUSH2 0x1819 JUMP JUMPDEST PUSH0 PUSH1 0x40 MLOAD DUP1 DUP4 SUB DUP2 DUP7 GAS STATICCALL ISZERO DUP1 ISZERO PUSH2 0x54D JUMPI RETURNDATASIZE PUSH0 DUP1 RETURNDATACOPY RETURNDATASIZE PUSH0 REVERT JUMPDEST POP POP POP POP PUSH1 0x40 MLOAD RETURNDATASIZE PUSH0 DUP3 RETURNDATACOPY RETURNDATASIZE PUSH1 0x1F NOT PUSH1 0x1F DUP3 ADD AND DUP3 ADD DUP1 PUSH1 0x40 MSTORE POP DUP2 ADD SWAP1 PUSH2 0x575 SWAP2 SWAP1 PUSH2 0x1A48 JUMP JUMPDEST SWAP1 POP PUSH0 DUP2 PUSH0 ADD MLOAD MLOAD GT PUSH2 0x5BD JUMPI PUSH1 0x40 MLOAD PUSH32 0x8C379A000000000000000000000000000000000000000000000000000000000 DUP2 MSTORE PUSH1 0x4 ADD PUSH2 0x5B4 SWAP1 PUSH2 0x1AD9 JUMP JUMPDEST PUSH1 0x40 MLOAD DUP1 SWAP2 SUB SWAP1 REVERT JUMPDEST DUP2 PUSH1 0x1 PUSH0 DUP6 PUSH20 0xFFFFFFFFFFFFFFFFFFFFFFFFFFFFFFFFFFFFFFFF AND PUSH20 0xFFFFFFFFFFFFFFFFFFFFFFFFFFFFFFFFFFFFFFFF AND DUP2 MSTORE PUSH1 0x20 ADD SWAP1 DUP2 MSTORE PUSH1 0x20 ADD PUSH0 KECCAK256 DUP4 DUP2 SLOAD DUP2 LT PUSH2 0x60D JUMPI PUSH2 0x60C PUSH2 0x1AF7 JUMP JUMPDEST JUMPDEST SWAP1 PUSH0 MSTORE PUSH1 0x20 PUSH0 KECCAK256 SWAP1 PUSH1 0x5 MUL ADD PUSH0 ADD SLOAD EQ PUSH2 0x65C JUMPI PUSH1 0x40 MLOAD PUSH32 0x8C379A000000000000000000000000000000000000000000000000000000000 DUP2 MSTORE PUSH1 0x4 ADD PUSH2 0x653 SWAP1 PUSH2 0x1B6E JUMP JUMPDEST PUSH1 0x40 MLOAD DUP1 SWAP2 SUB SWAP1 REVERT JUMPDEST PUSH0 PUSH1 0x1 PUSH0 DUP6 PUSH20 0xFFFFFFFFFFFFFFFFFFFFFFFFFFFFFFFFFFFFFFFF AND PUSH20 0xFFFFFFFFFFFFFFFFFFFFFFFFFFFFFFFFFFFFFFFF AND DUP2 MSTORE PUSH1 0x20 ADD SWAP1 DUP2 MSTORE PUSH1 0x20 ADD PUSH0 KECCAK256 DUP4 DUP2 SLOAD DUP2 LT PUSH2 0x6AC JUMPI PUSH2 0x6AB PUSH2 0x1AF7 JUMP JUMPDEST JUMPDEST SWAP1 PUSH0 MSTORE PUSH1 0x20 PUSH0 KECCAK256 SWAP1 PUSH1 0x5 MUL ADD PUSH1 0x4 ADD SLOAD GT PUSH2 0x6FC JUMPI PUSH1 0x40 MLOAD PUSH32 0x8C379A000000000000000000000000000000000000000000000000000000000 DUP2 MSTORE PUSH1 0x4 ADD PUSH2 0x6F3 SWAP1 PUSH2 0x1BD6 JUMP JUMPDEST PUSH1 0x40 MLOAD DUP1 SWAP2 SUB SWAP1 REVERT JUMPDEST PUSH1 0x1 PUSH0 DUP5 PUSH20 0xFFFFFFFFFFFFFFFFFFFFFFFFFFFFFFFFFFFFFFFF AND PUSH20 0xFFFFFFFFFFFFFFFFFFFFFFFFFFFFFFFFFFFFFFFF AND DUP2 MSTORE PUSH1 0x20 ADD SWAP1 DUP2 MSTORE PUSH1 0x20 ADD PUSH0 KECCAK256 DUP3 DUP2 SLOAD DUP2 LT PUSH2 0x74B JUMPI PUSH2 0x74A PUSH2 0x1AF7 JUMP JUMPDEST JUMPDEST SWAP1 PUSH0 MSTORE PUSH1 0x20 PUSH0 KECCAK256 SWAP1 PUSH1 0x5 MUL ADD PUSH1 0x4 ADD PUSH0 DUP2 SLOAD DUP1 SWAP3 SWAP2 SWAP1 PUSH2 0x76A SWAP1 PUSH2 0x1C21 JUMP JUMPDEST SWAP2 SWAP1 POP SSTORE POP PUSH32 0x762C2616349603AC16EBA0DE8E6141B79129A07AB63BD99E0A80B3A471716943 CALLER DUP5 DUP5 PUSH1 0x1 PUSH0 DUP9 PUSH20 0xFFFFFFFFFFFFFFFFFFFFFFFFFFFFFFFFFFFFFFFF AND PUSH20 0xFFFFFFFFFFFFFFFFFFFFFFFFFFFFFFFFFFFFFFFF AND DUP2 MSTORE PUSH1 0x20 ADD SWAP1 DUP2 MSTORE PUSH1 0x20 ADD PUSH0 KECCAK256 DUP7 DUP2 SLOAD DUP2 LT PUSH2 0x7E2 JUMPI PUSH2 0x7E1 PUSH2 0x1AF7 JUMP JUMPDEST JUMPDEST SWAP1 PUSH0 MSTORE PUSH1 0x20 PUSH0 KECCAK256 SWAP1 PUSH1 0x5 MUL ADD PUSH1 0x4 ADD SLOAD PUSH1 0x40 MLOAD PUSH2 0x802 SWAP5 SWAP4 SWAP3 SWAP2 SWAP1 PUSH2 0x1C48 JUMP JUMPDEST PUSH1 0x40 MLOAD DUP1 SWAP2 SUB SWAP1 LOG1 POP POP POP JUMP JUMPDEST PUSH2 0x817 PUSH2 0x10D2 JUMP JUMPDEST DUP1 PUSH0 PUSH1 0x14 PUSH2 0x100 EXP DUP2 SLOAD DUP2 PUSH2 0xFFFF MUL NOT AND SWAP1 DUP4 PUSH2 0xFFFF AND MUL OR SWAP1 SSTORE POP POP JUMP JUMPDEST PUSH0 PUSH1 0x2 PUSH0 SWAP1 SLOAD SWAP1 PUSH2 0x100 EXP SWAP1 DIV PUSH20 0xFFFFFFFFFFFFFFFFFFFFFFFFFFFFFFFFFFFFFFFF AND PUSH20 0xFFFFFFFFFFFFFFFFFFFFFFFFFFFFFFFFFFFFFFFF AND PUSH4 0xF53A470 CALLER PUSH1 0x40 MLOAD DUP3 PUSH4 0xFFFFFFFF AND PUSH1 0xE0 SHL DUP2 MSTORE PUSH1 0x4 ADD PUSH2 0x891 SWAP2 SWAP1 PUSH2 0x1819 JUMP JUMPDEST PUSH0 PUSH1 0x40 MLOAD DUP1 DUP4 SUB DUP2 DUP7 GAS STATICCALL ISZERO DUP1 ISZERO PUSH2 0x8AB JUMPI RETURNDATASIZE PUSH0 DUP1 RETURNDATACOPY RETURNDATASIZE PUSH0 REVERT JUMPDEST POP POP POP POP PUSH1 0x40 MLOAD RETURNDATASIZE PUSH0 DUP3 RETURNDATACOPY RETURNDATASIZE PUSH1 0x1F NOT PUSH1 0x1F DUP3 ADD AND DUP3 ADD DUP1 PUSH1 0x40 MSTORE POP DUP2 ADD SWAP1 PUSH2 0x8D3 SWAP2 SWAP1 PUSH2 0x1A48 JUMP JUMPDEST SWAP1 POP PUSH0 DUP2 PUSH0 ADD MLOAD MLOAD GT PUSH2 0x91B JUMPI PUSH1 0x40 MLOAD PUSH32 0x8C379A000000000000000000000000000000000000000000000000000000000 DUP2 MSTORE PUSH1 0x4 ADD PUSH2 0x912 SWAP1 PUSH2 0x1AD9 JUMP JUMPDEST PUSH1 0x40 MLOAD DUP1 SWAP2 SUB SWAP1 REVERT JUMPDEST DUP2 PUSH1 0x1 PUSH0 DUP6 PUSH20 0xFFFFFFFFFFFFFFFFFFFFFFFFFFFFFFFFFFFFFFFF AND PUSH20 0xFFFFFFFFFFFFFFFFFFFFFFFFFFFFFFFFFFFFFFFF AND DUP2 MSTORE PUSH1 0x20 ADD SWAP1 DUP2 MSTORE PUSH1 0x20 ADD PUSH0 KECCAK256 DUP4 DUP2 SLOAD DUP2 LT PUSH2 0x96B JUMPI PUSH2 0x96A PUSH2 0x1AF7 JUMP JUMPDEST JUMPDEST SWAP1 PUSH0 MSTORE PUSH1 0x20 PUSH0 KECCAK256 SWAP1 PUSH1 0x5 MUL ADD PUSH0 ADD SLOAD EQ PUSH2 0x9BA JUMPI PUSH1 0x40 MLOAD PUSH32 0x8C379A000000000000000000000000000000000000000000000000000000000 DUP2 MSTORE PUSH1 0x4 ADD PUSH2 0x9B1 SWAP1 PUSH2 0x1B6E JUMP JUMPDEST PUSH1 0x40 MLOAD DUP1 SWAP2 SUB SWAP1 REVERT JUMPDEST PUSH1 0x1 PUSH0 DUP5 PUSH20 0xFFFFFFFFFFFFFFFFFFFFFFFFFFFFFFFFFFFFFFFF AND PUSH20 0xFFFFFFFFFFFFFFFFFFFFFFFFFFFFFFFFFFFFFFFF AND DUP2 MSTORE PUSH1 0x20 ADD SWAP1 DUP2 MSTORE PUSH1 0x20 ADD PUSH0 KECCAK256 DUP3 DUP2 SLOAD DUP2 LT PUSH2 0xA09 JUMPI PUSH2 0xA08 PUSH2 0x1AF7 JUMP JUMPDEST JUMPDEST SWAP1 PUSH0 MSTORE PUSH1 0x20 PUSH0 KECCAK256 SWAP1 PUSH1 0x5 MUL ADD PUSH1 0x4 ADD PUSH0 DUP2 SLOAD DUP1 SWAP3 SWAP2 SWAP1 PUSH2 0xA28 SWAP1 PUSH2 0x1C8B JUMP JUMPDEST SWAP2 SWAP1 POP SSTORE POP PUSH32 0xE8A76FC0F16D11A00D1E93B689B63D76CF60AF914DD3D915375DC41D01A0C3C8 CALLER DUP5 DUP5 PUSH1 0x1 PUSH0 DUP9 PUSH20 0xFFFFFFFFFFFFFFFFFFFFFFFFFFFFFFFFFFFFFFFF AND PUSH20 0xFFFFFFFFFFFFFFFFFFFFFFFFFFFFFFFFFFFFFFFF AND DUP2 MSTORE PUSH1 0x20 ADD SWAP1 DUP2 MSTORE PUSH1 0x20 ADD PUSH0 KECCAK256 DUP7 DUP2 SLOAD DUP2 LT PUSH2 0xAA0 JUMPI PUSH2 0xA9F PUSH2 0x1AF7 JUMP JUMPDEST JUMPDEST SWAP1 PUSH0 MSTORE PUSH1 0x20 PUSH0 KECCAK256 SWAP1 PUSH1 0x5 MUL ADD PUSH1 0x4 ADD SLOAD PUSH1 0x40 MLOAD PUSH2 0xAC0 SWAP5 SWAP4 SWAP3 SWAP2 SWAP1 PUSH2 0x1C48 JUMP JUMPDEST PUSH1 0x40 MLOAD DUP1 SWAP2 SUB SWAP1 LOG1 POP POP POP JUMP JUMPDEST PUSH0 PUSH1 0x14 SWAP1 SLOAD SWAP1 PUSH2 0x100 EXP SWAP1 DIV PUSH2 0xFFFF AND DUP2 JUMP JUMPDEST PUSH2 0xAE8 PUSH2 0x10D2 JUMP JUMPDEST PUSH2 0xAF1 PUSH0 PUSH2 0x1159 JUMP JUMPDEST JUMP JUMPDEST PUSH0 PUSH1 0x2 PUSH0 SWAP1 SLOAD SWAP1 PUSH2 0x100 EXP SWAP1 DIV PUSH20 0xFFFFFFFFFFFFFFFFFFFFFFFFFFFFFFFFFFFFFFFF AND PUSH20 0xFFFFFFFFFFFFFFFFFFFFFFFFFFFFFFFFFFFFFFFF AND PUSH4 0xF53A470 CALLER PUSH1 0x40 MLOAD DUP3 PUSH4 0xFFFFFFFF AND PUSH1 0xE0 SHL DUP2 MSTORE PUSH1 0x4 ADD PUSH2 0xB4E SWAP2 SWAP1 PUSH2 0x1819 JUMP JUMPDEST PUSH0 PUSH1 0x40 MLOAD DUP1 DUP4 SUB DUP2 DUP7 GAS STATICCALL ISZERO DUP1 ISZERO PUSH2 0xB68 JUMPI RETURNDATASIZE PUSH0 DUP1 RETURNDATACOPY RETURNDATASIZE PUSH0 REVERT JUMPDEST POP POP POP POP PUSH1 0x40 MLOAD RETURNDATASIZE PUSH0 DUP3 RETURNDATACOPY RETURNDATASIZE PUSH1 0x1F NOT PUSH1 0x1F DUP3 ADD AND DUP3 ADD DUP1 PUSH1 0x40 MSTORE POP DUP2 ADD SWAP1 PUSH2 0xB90 SWAP2 SWAP1 PUSH2 0x1A48 JUMP JUMPDEST SWAP1 POP PUSH0 DUP2 PUSH0 ADD MLOAD MLOAD GT PUSH2 0xBD8 JUMPI PUSH1 0x40 MLOAD PUSH32 0x8C379A000000000000000000000000000000000000000000000000000000000 DUP2 MSTORE PUSH1 0x4 ADD PUSH2 0xBCF SWAP1 PUSH2 0x1AD9 JUMP JUMPDEST PUSH1 0x40 MLOAD DUP1 SWAP2 SUB SWAP1 REVERT JUMPDEST PUSH0 PUSH1 0x14 SWAP1 SLOAD SWAP1 PUSH2 0x100 EXP SWAP1 DIV PUSH2 0xFFFF AND PUSH2 0xFFFF AND DUP3 MLOAD GT ISZERO PUSH2 0xC2F JUMPI PUSH1 0x40 MLOAD PUSH32 0x8C379A000000000000000000000000000000000000000000000000000000000 DUP2 MSTORE PUSH1 0x4 ADD PUSH2 0xC26 SWAP1 PUSH2 0x1D1C JUMP JUMPDEST PUSH1 0x40 MLOAD DUP1 SWAP2 SUB SWAP1 REVERT JUMPDEST PUSH0 PUSH1 0x40 MLOAD DUP1 PUSH1 0xA0 ADD PUSH1 0x40 MSTORE DUP1 PUSH1 0x1 PUSH0 CALLER PUSH20 0xFFFFFFFFFFFFFFFFFFFFFFFFFFFFFFFFFFFFFFFF AND PUSH20 0xFFFFFFFFFFFFFFFFFFFFFFFFFFFFFFFFFFFFFFFF AND DUP2 MSTORE PUSH1 0x20 ADD SWAP1 DUP2 MSTORE PUSH1 0x20 ADD PUSH0 KECCAK256 DUP1 SLOAD SWAP1 POP DUP2 MSTORE PUSH1 0x20 ADD CALLER PUSH20 0xFFFFFFFFFFFFFFFFFFFFFFFFFFFFFFFFFFFFFFFF AND DUP2 MSTORE PUSH1 0x20 ADD DUP5 DUP2 MSTORE PUSH1 0x20 ADD TIMESTAMP DUP2 MSTORE PUSH1 0x20 ADD PUSH0 DUP2 MSTORE POP SWAP1 POP PUSH1 0x1 PUSH0 CALLER PUSH20 0xFFFFFFFFFFFFFFFFFFFFFFFFFFFFFFFFFFFFFFFF AND PUSH20 0xFFFFFFFFFFFFFFFFFFFFFFFFFFFFFFFFFFFFFFFF AND DUP2 MSTORE PUSH1 0x20 ADD SWAP1 DUP2 MSTORE PUSH1 0x20 ADD PUSH0 KECCAK256 DUP2 SWAP1 DUP1 PUSH1 0x1 DUP2 SLOAD ADD DUP1 DUP3 SSTORE DUP1 SWAP2 POP POP PUSH1 0x1 SWAP1 SUB SWAP1 PUSH0 MSTORE PUSH1 0x20 PUSH0 KECCAK256 SWAP1 PUSH1 0x5 MUL ADD PUSH0 SWAP1 SWAP2 SWAP1 SWAP2 SWAP1 SWAP2 POP PUSH0 DUP3 ADD MLOAD DUP2 PUSH0 ADD SSTORE PUSH1 0x20 DUP3 ADD MLOAD DUP2 PUSH1 0x1 ADD PUSH0 PUSH2 0x100 EXP DUP2 SLOAD DUP2 PUSH20 0xFFFFFFFFFFFFFFFFFFFFFFFFFFFFFFFFFFFFFFFF MUL NOT AND SWAP1 DUP4 PUSH20 0xFFFFFFFFFFFFFFFFFFFFFFFFFFFFFFFFFFFFFFFF AND MUL OR SWAP1 SSTORE POP PUSH1 0x40 DUP3 ADD MLOAD DUP2 PUSH1 0x2 ADD SWAP1 DUP2 PUSH2 0xD76 SWAP2 SWAP1 PUSH2 0x1ED7 JUMP JUMPDEST POP PUSH1 0x60 DUP3 ADD MLOAD DUP2 PUSH1 0x3 ADD SSTORE PUSH1 0x80 DUP3 ADD MLOAD DUP2 PUSH1 0x4 ADD SSTORE POP POP PUSH32 0x16FD3C13E9D46923E0A8BCE11C7B473EC508A72E6C96CD2404B29CE972AFC29E DUP2 PUSH0 ADD MLOAD DUP3 PUSH1 0x20 ADD MLOAD DUP4 PUSH1 0x40 ADD MLOAD DUP5 PUSH1 0x60 ADD MLOAD PUSH1 0x40 MLOAD PUSH2 0xDD1 SWAP5 SWAP4 SWAP3 SWAP2 SWAP1 PUSH2 0x1FA6 JUMP JUMPDEST PUSH1 0x40 MLOAD DUP1 SWAP2 SUB SWAP1 LOG1 POP POP POP JUMP JUMPDEST PUSH0 DUP1 PUSH0 SWAP1 POP PUSH0 JUMPDEST PUSH1 0x1 PUSH0 DUP6 PUSH20 0xFFFFFFFFFFFFFFFFFFFFFFFFFFFFFFFFFFFFFFFF AND PUSH20 0xFFFFFFFFFFFFFFFFFFFFFFFFFFFFFFFFFFFFFFFF AND DUP2 MSTORE PUSH1 0x20 ADD SWAP1 DUP2 MSTORE PUSH1 0x20 ADD PUSH0 KECCAK256 DUP1 SLOAD SWAP1 POP DUP2 LT ISZERO PUSH2 0xEA6 JUMPI PUSH1 0x1 PUSH0 DUP6 PUSH20 0xFFFFFFFFFFFFFFFFFFFFFFFFFFFFFFFFFFFFFFFF AND PUSH20 0xFFFFFFFFFFFFFFFFFFFFFFFFFFFFFFFFFFFFFFFF AND DUP2 MSTORE PUSH1 0x20 ADD SWAP1 DUP2 MSTORE PUSH1 0x20 ADD PUSH0 KECCAK256 DUP2 DUP2 SLOAD DUP2 LT PUSH2 0xE7C JUMPI PUSH2 0xE7B PUSH2 0x1AF7 JUMP JUMPDEST JUMPDEST SWAP1 PUSH0 MSTORE PUSH1 0x20 PUSH0 KECCAK256 SWAP1 PUSH1 0x5 MUL ADD PUSH1 0x4 ADD SLOAD DUP3 PUSH2 0xE97 SWAP2 SWAP1 PUSH2 0x1FF0 JUMP JUMPDEST SWAP2 POP DUP1 DUP1 PUSH1 0x1 ADD SWAP2 POP POP PUSH2 0xDE5 JUMP JUMPDEST POP DUP1 SWAP2 POP POP SWAP2 SWAP1 POP JUMP JUMPDEST PUSH0 DUP1 PUSH0 SWAP1 SLOAD SWAP1 PUSH2 0x100 EXP SWAP1 DIV PUSH20 0xFFFFFFFFFFFFFFFFFFFFFFFFFFFFFFFFFFFFFFFF AND SWAP1 POP SWAP1 JUMP JUMPDEST PUSH2 0xEDF PUSH2 0x1221 JUMP JUMPDEST PUSH1 0x1 PUSH0 CALLER PUSH20 0xFFFFFFFFFFFFFFFFFFFFFFFFFFFFFFFFFFFFFFFF AND PUSH20 0xFFFFFFFFFFFFFFFFFFFFFFFFFFFFFFFFFFFFFFFF AND DUP2 MSTORE PUSH1 0x20 ADD SWAP1 DUP2 MSTORE PUSH1 0x20 ADD PUSH0 KECCAK256 DUP3 DUP2 SLOAD DUP2 LT PUSH2 0xF2E JUMPI PUSH2 0xF2D PUSH2 0x1AF7 JUMP JUMPDEST JUMPDEST SWAP1 PUSH0 MSTORE PUSH1 0x20 PUSH0 KECCAK256 SWAP1 PUSH1 0x5 MUL ADD PUSH1 0x40 MLOAD DUP1 PUSH1 0xA0 ADD PUSH1 0x40 MSTORE SWAP1 DUP2 PUSH0 DUP3 ADD SLOAD DUP2 MSTORE PUSH1 0x20 ADD PUSH1 0x1 DUP3 ADD PUSH0 SWAP1 SLOAD SWAP1 PUSH2 0x100 EXP SWAP1 DIV PUSH20 0xFFFFFFFFFFFFFFFFFFFFFFFFFFFFFFFFFFFFFFFF AND PUSH20 0xFFFFFFFFFFFFFFFFFFFFFFFFFFFFFFFFFFFFFFFF AND PUSH20 0xFFFFFFFFFFFFFFFFFFFFFFFFFFFFFFFFFFFFFFFF AND DUP2 MSTORE PUSH1 0x20 ADD PUSH1 0x2 DUP3 ADD DUP1 SLOAD PUSH2 0xFB3 SWAP1 PUSH2 0x191D JUMP JUMPDEST DUP1 PUSH1 0x1F ADD PUSH1 0x20 DUP1 SWAP2 DIV MUL PUSH1 0x20 ADD PUSH1 0x40 MLOAD SWAP1 DUP2 ADD PUSH1 0x40 MSTORE DUP1 SWAP3 SWAP2 SWAP1 DUP2 DUP2 MSTORE PUSH1 0x20 ADD DUP3 DUP1 SLOAD PUSH2 0xFDF SWAP1 PUSH2 0x191D JUMP JUMPDEST DUP1 ISZERO PUSH2 0x102A JUMPI DUP1 PUSH1 0x1F LT PUSH2 0x1001 JUMPI PUSH2 0x100 DUP1 DUP4 SLOAD DIV MUL DUP4 MSTORE SWAP2 PUSH1 0x20 ADD SWAP2 PUSH2 0x102A JUMP JUMPDEST DUP3 ADD SWAP2 SWAP1 PUSH0 MSTORE PUSH1 0x20 PUSH0 KECCAK256 SWAP1 JUMPDEST DUP2 SLOAD DUP2 MSTORE SWAP1 PUSH1 0x1 ADD SWAP1 PUSH1 0x20 ADD DUP1 DUP4 GT PUSH2 0x100D JUMPI DUP3 SWAP1 SUB PUSH1 0x1F AND DUP3 ADD SWAP2 JUMPDEST POP POP POP POP POP DUP2 MSTORE PUSH1 0x20 ADD PUSH1 0x3 DUP3 ADD SLOAD DUP2 MSTORE PUSH1 0x20 ADD PUSH1 0x4 DUP3 ADD SLOAD DUP2 MSTORE POP POP SWAP1 POP SWAP2 SWAP1 POP JUMP JUMPDEST PUSH2 0x1056 PUSH2 0x10D2 JUMP JUMPDEST PUSH0 PUSH20 0xFFFFFFFFFFFFFFFFFFFFFFFFFFFFFFFFFFFFFFFF AND DUP2 PUSH20 0xFFFFFFFFFFFFFFFFFFFFFFFFFFFFFFFFFFFFFFFF AND SUB PUSH2 0x10C6 JUMPI PUSH0 PUSH1 0x40 MLOAD PUSH32 0x1E4FBDF700000000000000000000000000000000000000000000000000000000 DUP2 MSTORE PUSH1 0x4 ADD PUSH2 0x10BD SWAP2 SWAP1 PUSH2 0x1819 JUMP JUMPDEST PUSH1 0x40 MLOAD DUP1 SWAP2 SUB SWAP1 REVERT JUMPDEST PUSH2 0x10CF DUP2 PUSH2 0x1159 JUMP JUMPDEST POP JUMP JUMPDEST PUSH2 0x10DA PUSH2 0x121A JUMP JUMPDEST PUSH20 0xFFFFFFFFFFFFFFFFFFFFFFFFFFFFFFFFFFFFFFFF AND PUSH2 0x10F8 PUSH2 0xEB0 JUMP JUMPDEST PUSH20 0xFFFFFFFFFFFFFFFFFFFFFFFFFFFFFFFFFFFFFFFF AND EQ PUSH2 0x1157 JUMPI PUSH2 0x111B PUSH2 0x121A JUMP JUMPDEST PUSH1 0x40 MLOAD PUSH32 0x118CDAA700000000000000000000000000000000000000000000000000000000 DUP2 MSTORE PUSH1 0x4 ADD PUSH2 0x114E SWAP2 SWAP1 PUSH2 0x1819 JUMP JUMPDEST PUSH1 0x40 MLOAD DUP1 SWAP2 SUB SWAP1 REVERT JUMPDEST JUMP JUMPDEST PUSH0 DUP1 PUSH0 SWAP1 SLOAD SWAP1 PUSH2 0x100 EXP SWAP1 DIV PUSH20 0xFFFFFFFFFFFFFFFFFFFFFFFFFFFFFFFFFFFFFFFF AND SWAP1 POP DUP2 PUSH0 DUP1 PUSH2 0x100 EXP DUP2 SLOAD DUP2 PUSH20 0xFFFFFFFFFFFFFFFFFFFFFFFFFFFFFFFFFFFFFFFF MUL NOT AND SWAP1 DUP4 PUSH20 0xFFFFFFFFFFFFFFFFFFFFFFFFFFFFFFFFFFFFFFFF AND MUL OR SWAP1 SSTORE POP DUP2 PUSH20 0xFFFFFFFFFFFFFFFFFFFFFFFFFFFFFFFFFFFFFFFF AND DUP2 PUSH20 0xFFFFFFFFFFFFFFFFFFFFFFFFFFFFFFFFFFFFFFFF AND PUSH32 0x8BE0079C531659141344CD1FD0A4F28419497F9722A3DAAFE3B4186F6B6457E0 PUSH1 0x40 MLOAD PUSH1 0x40 MLOAD DUP1 SWAP2 SUB SWAP1 LOG3 POP POP JUMP JUMPDEST PUSH0 CALLER SWAP1 POP SWAP1 JUMP JUMPDEST PUSH1 0x40 MLOAD DUP1 PUSH1 0xA0 ADD PUSH1 0x40 MSTORE DUP1 PUSH0 DUP2 MSTORE PUSH1 0x20 ADD PUSH0 PUSH20 0xFFFFFFFFFFFFFFFFFFFFFFFFFFFFFFFFFFFFFFFF AND DUP2 MSTORE PUSH1 0x20 ADD PUSH1 0x60 DUP2 MSTORE PUSH1 0x20 ADD PUSH0 DUP2 MSTORE PUSH1 0x20 ADD PUSH0 DUP2 MSTORE POP SWAP1 JUMP JUMPDEST PUSH0 PUSH1 0x40 MLOAD SWAP1 POP SWAP1 JUMP JUMPDEST PUSH0 DUP1 REVERT JUMPDEST PUSH0 DUP1 REVERT JUMPDEST PUSH0 PUSH20 0xFFFFFFFFFFFFFFFFFFFFFFFFFFFFFFFFFFFFFFFF DUP3 AND SWAP1 POP SWAP2 SWAP1 POP JUMP JUMPDEST PUSH0 PUSH2 0x129C DUP3 PUSH2 0x1273 JUMP JUMPDEST SWAP1 POP SWAP2 SWAP1 POP JUMP JUMPDEST PUSH2 0x12AC DUP2 PUSH2 0x1292 JUMP JUMPDEST DUP2 EQ PUSH2 0x12B6 JUMPI PUSH0 DUP1 REVERT JUMPDEST POP JUMP JUMPDEST PUSH0 DUP2 CALLDATALOAD SWAP1 POP PUSH2 0x12C7 DUP2 PUSH2 0x12A3 JUMP JUMPDEST SWAP3 SWAP2 POP POP JUMP JUMPDEST PUSH0 DUP2 SWAP1 POP SWAP2 SWAP1 POP JUMP JUMPDEST PUSH2 0x12DF DUP2 PUSH2 0x12CD JUMP JUMPDEST DUP2 EQ PUSH2 0x12E9 JUMPI PUSH0 DUP1 REVERT JUMPDEST POP JUMP JUMPDEST PUSH0 DUP2 CALLDATALOAD SWAP1 POP PUSH2 0x12FA DUP2 PUSH2 0x12D6 JUMP JUMPDEST SWAP3 SWAP2 POP POP JUMP JUMPDEST PUSH0 DUP1 PUSH1 0x40 DUP4 DUP6 SUB SLT ISZERO PUSH2 0x1316 JUMPI PUSH2 0x1315 PUSH2 0x126B JUMP JUMPDEST JUMPDEST PUSH0 PUSH2 0x1323 DUP6 DUP3 DUP7 ADD PUSH2 0x12B9 JUMP JUMPDEST SWAP3 POP POP PUSH1 0x20 PUSH2 0x1334 DUP6 DUP3 DUP7 ADD PUSH2 0x12EC JUMP JUMPDEST SWAP2 POP POP SWAP3 POP SWAP3 SWAP1 POP JUMP JUMPDEST PUSH2 0x1347 DUP2 PUSH2 0x12CD JUMP JUMPDEST DUP3 MSTORE POP POP JUMP JUMPDEST PUSH2 0x1356 DUP2 PUSH2 0x1292 JUMP JUMPDEST DUP3 MSTORE POP POP JUMP JUMPDEST PUSH0 DUP2 MLOAD SWAP1 POP SWAP2 SWAP1 POP JUMP JUMPDEST PUSH0 DUP3 DUP3 MSTORE PUSH1 0x20 DUP3 ADD SWAP1 POP SWAP3 SWAP2 POP POP JUMP JUMPDEST DUP3 DUP2 DUP4 MCOPY PUSH0 DUP4 DUP4 ADD MSTORE POP POP POP JUMP JUMPDEST PUSH0 PUSH1 0x1F NOT PUSH1 0x1F DUP4 ADD AND SWAP1 POP SWAP2 SWAP1 POP JUMP JUMPDEST PUSH0 PUSH2 0x139E DUP3 PUSH2 0x135C JUMP JUMPDEST PUSH2 0x13A8 DUP2 DUP6 PUSH2 0x1366 JUMP JUMPDEST SWAP4 POP PUSH2 0x13B8 DUP2 DUP6 PUSH1 0x20 DUP7 ADD PUSH2 0x1376 JUMP JUMPDEST PUSH2 0x13C1 DUP2 PUSH2 0x1384 JUMP JUMPDEST DUP5 ADD SWAP2 POP POP SWAP3 SWAP2 POP POP JUMP JUMPDEST PUSH0 PUSH1 0xA0 DUP3 ADD SWAP1 POP PUSH2 0x13DF PUSH0 DUP4 ADD DUP9 PUSH2 0x133E JUMP JUMPDEST PUSH2 0x13EC PUSH1 0x20 DUP4 ADD DUP8 PUSH2 0x134D JUMP JUMPDEST DUP2 DUP2 SUB PUSH1 0x40 DUP4 ADD MSTORE PUSH2 0x13FE DUP2 DUP7 PUSH2 0x1394 JUMP JUMPDEST SWAP1 POP PUSH2 0x140D PUSH1 0x60 DUP4 ADD DUP6 PUSH2 0x133E JUMP JUMPDEST PUSH2 0x141A PUSH1 0x80 DUP4 ADD DUP5 PUSH2 0x133E JUMP JUMPDEST SWAP7 SWAP6 POP POP POP POP POP POP JUMP JUMPDEST PUSH0 PUSH1 0x20 DUP3 DUP5 SUB SLT ISZERO PUSH2 0x1439 JUMPI PUSH2 0x1438 PUSH2 0x126B JUMP JUMPDEST JUMPDEST PUSH0 PUSH2 0x1446 DUP5 DUP3 DUP6 ADD PUSH2 0x12B9 JUMP JUMPDEST SWAP2 POP POP SWAP3 SWAP2 POP POP JUMP JUMPDEST PUSH0 DUP2 MLOAD SWAP1 POP SWAP2 SWAP1 POP JUMP JUMPDEST PUSH0 DUP3 DUP3 MSTORE PUSH1 0x20 DUP3 ADD SWAP1 POP SWAP3 SWAP2 POP POP JUMP JUMPDEST PUSH0 DUP2 SWAP1 POP PUSH1 0x20 DUP3 ADD SWAP1 POP SWAP2 SWAP1 POP JUMP JUMPDEST PUSH2 0x1481 DUP2 PUSH2 0x12CD JUMP JUMPDEST DUP3 MSTORE POP POP JUMP JUMPDEST PUSH2 0x1490 DUP2 PUSH2 0x1292 JUMP JUMPDEST DUP3 MSTORE POP POP JUMP JUMPDEST PUSH0 DUP3 DUP3 MSTORE PUSH1 0x20 DUP3 ADD SWAP1 POP SWAP3 SWAP2 POP POP JUMP JUMPDEST PUSH0 PUSH2 0x14B0 DUP3 PUSH2 0x135C JUMP JUMPDEST PUSH2 0x14BA DUP2 DUP6 PUSH2 0x1496 JUMP JUMPDEST SWAP4 POP PUSH2 0x14CA DUP2 DUP6 PUSH1 0x20 DUP7 ADD PUSH2 0x1376 JUMP JUMPDEST PUSH2 0x14D3 DUP2 PUSH2 0x1384 JUMP JUMPDEST DUP5 ADD SWAP2 POP POP SWAP3 SWAP2 POP POP JUMP JUMPDEST PUSH0 PUSH1 0xA0 DUP4 ADD PUSH0 DUP4 ADD MLOAD PUSH2 0x14F3 PUSH0 DUP7 ADD DUP3 PUSH2 0x1478 JUMP JUMPDEST POP PUSH1 0x20 DUP4 ADD MLOAD PUSH2 0x1506 PUSH1 0x20 DUP7 ADD DUP3 PUSH2 0x1487 JUMP JUMPDEST POP PUSH1 0x40 DUP4 ADD MLOAD DUP5 DUP3 SUB PUSH1 0x40 DUP7 ADD MSTORE PUSH2 0x151E DUP3 DUP3 PUSH2 0x14A6 JUMP JUMPDEST SWAP2 POP POP PUSH1 0x60 DUP4 ADD MLOAD PUSH2 0x1533 PUSH1 0x60 DUP7 ADD DUP3 PUSH2 0x1478 JUMP JUMPDEST POP PUSH1 0x80 DUP4 ADD MLOAD PUSH2 0x1546 PUSH1 0x80 DUP7 ADD DUP3 PUSH2 0x1478 JUMP JUMPDEST POP DUP1 SWAP2 POP POP SWAP3 SWAP2 POP POP JUMP JUMPDEST PUSH0 PUSH2 0x155C DUP4 DUP4 PUSH2 0x14DE JUMP JUMPDEST SWAP1 POP SWAP3 SWAP2 POP POP JUMP JUMPDEST PUSH0 PUSH1 0x20 DUP3 ADD SWAP1 POP SWAP2 SWAP1 POP JUMP JUMPDEST PUSH0 PUSH2 0x157A DUP3 PUSH2 0x144F JUMP JUMPDEST PUSH2 0x1584 DUP2 DUP6 PUSH2 0x1459 JUMP JUMPDEST SWAP4 POP DUP4 PUSH1 0x20 DUP3 MUL DUP6 ADD PUSH2 0x1596 DUP6 PUSH2 0x1469 JUMP JUMPDEST DUP1 PUSH0 JUMPDEST DUP6 DUP2 LT ISZERO PUSH2 0x15D1 JUMPI DUP5 DUP5 SUB DUP10 MSTORE DUP2 MLOAD PUSH2 0x15B2 DUP6 DUP3 PUSH2 0x1551 JUMP JUMPDEST SWAP5 POP PUSH2 0x15BD DUP4 PUSH2 0x1564 JUMP JUMPDEST SWAP3 POP PUSH1 0x20 DUP11 ADD SWAP10 POP POP PUSH1 0x1 DUP2 ADD SWAP1 POP PUSH2 0x1599 JUMP JUMPDEST POP DUP3 SWAP8 POP DUP8 SWAP6 POP POP POP POP POP POP SWAP3 SWAP2 POP POP JUMP JUMPDEST PUSH0 PUSH1 0x20 DUP3 ADD SWAP1 POP DUP2 DUP2 SUB PUSH0 DUP4 ADD MSTORE PUSH2 0x15FB DUP2 DUP5 PUSH2 0x1570 JUMP JUMPDEST SWAP1 POP SWAP3 SWAP2 POP POP JUMP JUMPDEST PUSH0 PUSH2 0xFFFF DUP3 AND SWAP1 POP SWAP2 SWAP1 POP JUMP JUMPDEST PUSH2 0x1619 DUP2 PUSH2 0x1603 JUMP JUMPDEST DUP2 EQ PUSH2 0x1623 JUMPI PUSH0 DUP1 REVERT JUMPDEST POP JUMP JUMPDEST PUSH0 DUP2 CALLDATALOAD SWAP1 POP PUSH2 0x1634 DUP2 PUSH2 0x1610 JUMP JUMPDEST SWAP3 SWAP2 POP POP JUMP JUMPDEST PUSH0 PUSH1 0x20 DUP3 DUP5 SUB SLT ISZERO PUSH2 0x164F JUMPI PUSH2 0x164E PUSH2 0x126B JUMP JUMPDEST JUMPDEST PUSH0 PUSH2 0x165C DUP5 DUP3 DUP6 ADD PUSH2 0x1626 JUMP JUMPDEST SWAP2 POP POP SWAP3 SWAP2 POP POP JUMP JUMPDEST PUSH2 0x166E DUP2 PUSH2 0x1603 JUMP JUMPDEST DUP3 MSTORE POP POP JUMP JUMPDEST PUSH0 PUSH1 0x20 DUP3 ADD SWAP1 POP PUSH2 0x1687 PUSH0 DUP4 ADD DUP5 PUSH2 0x1665 JUMP JUMPDEST SWAP3 SWAP2 POP POP JUMP JUMPDEST PUSH0 DUP1 REVERT JUMPDEST PUSH0 DUP1 REVERT JUMPDEST PUSH32 0x4E487B7100000000000000000000000000000000000000000000000000000000 PUSH0 MSTORE PUSH1 0x41 PUSH1 0x4 MSTORE PUSH1 0x24 PUSH0 REVERT JUMPDEST PUSH2 0x16CB DUP3 PUSH2 0x1384 JUMP JUMPDEST DUP2 ADD DUP2 DUP2 LT PUSH8 0xFFFFFFFFFFFFFFFF DUP3 GT OR ISZERO PUSH2 0x16EA JUMPI PUSH2 0x16E9 PUSH2 0x1695 JUMP JUMPDEST JUMPDEST DUP1 PUSH1 0x40 MSTORE POP POP POP JUMP JUMPDEST PUSH0 PUSH2 0x16FC PUSH2 0x1262 JUMP JUMPDEST SWAP1 POP PUSH2 0x1708 DUP3 DUP3 PUSH2 0x16C2 JUMP JUMPDEST SWAP2 SWAP1 POP JUMP JUMPDEST PUSH0 PUSH8 0xFFFFFFFFFFFFFFFF DUP3 GT ISZERO PUSH2 0x1727 JUMPI PUSH2 0x1726 PUSH2 0x1695 JUMP JUMPDEST JUMPDEST PUSH2 0x1730 DUP3 PUSH2 0x1384 JUMP JUMPDEST SWAP1 POP PUSH1 0x20 DUP2 ADD SWAP1 POP SWAP2 SWAP1 POP JUMP JUMPDEST DUP3 DUP2 DUP4 CALLDATACOPY PUSH0 DUP4 DUP4 ADD MSTORE POP POP POP JUMP JUMPDEST PUSH0 PUSH2 0x175D PUSH2 0x1758 DUP5 PUSH2 0x170D JUMP JUMPDEST PUSH2 0x16F3 JUMP JUMPDEST SWAP1 POP DUP3 DUP2 MSTORE PUSH1 0x20 DUP2 ADD DUP5 DUP5 DUP5 ADD GT ISZERO PUSH2 0x1779 JUMPI PUSH2 0x1778 PUSH2 0x1691 JUMP JUMPDEST JUMPDEST PUSH2 0x1784 DUP5 DUP3 DUP6 PUSH2 0x173D JUMP JUMPDEST POP SWAP4 SWAP3 POP POP POP JUMP JUMPDEST PUSH0 DUP3 PUSH1 0x1F DUP4 ADD SLT PUSH2 0x17A0 JUMPI PUSH2 0x179F PUSH2 0x168D JUMP JUMPDEST JUMPDEST DUP2 CALLDATALOAD PUSH2 0x17B0 DUP5 DUP3 PUSH1 0x20 DUP7 ADD PUSH2 0x174B JUMP JUMPDEST SWAP2 POP POP SWAP3 SWAP2 POP POP JUMP JUMPDEST PUSH0 PUSH1 0x20 DUP3 DUP5 SUB SLT ISZERO PUSH2 0x17CE JUMPI PUSH2 0x17CD PUSH2 0x126B JUMP JUMPDEST JUMPDEST PUSH0 DUP3 ADD CALLDATALOAD PUSH8 0xFFFFFFFFFFFFFFFF DUP2 GT ISZERO PUSH2 0x17EB JUMPI PUSH2 0x17EA PUSH2 0x126F JUMP JUMPDEST JUMPDEST PUSH2 0x17F7 DUP5 DUP3 DUP6 ADD PUSH2 0x178C JUMP JUMPDEST SWAP2 POP POP SWAP3 SWAP2 POP POP JUMP JUMPDEST PUSH0 PUSH1 0x20 DUP3 ADD SWAP1 POP PUSH2 0x1813 PUSH0 DUP4 ADD DUP5 PUSH2 0x133E JUMP JUMPDEST SWAP3 SWAP2 POP POP JUMP JUMPDEST PUSH0 PUSH1 0x20 DUP3 ADD SWAP1 POP PUSH2 0x182C PUSH0 DUP4 ADD DUP5 PUSH2 0x134D JUMP JUMPDEST SWAP3 SWAP2 POP POP JUMP JUMPDEST PUSH0 PUSH1 0x20 DUP3 DUP5 SUB SLT ISZERO PUSH2 0x1847 JUMPI PUSH2 0x1846 PUSH2 0x126B JUMP JUMPDEST JUMPDEST PUSH0 PUSH2 0x1854 DUP5 DUP3 DUP6 ADD PUSH2 0x12EC JUMP JUMPDEST SWAP2 POP POP SWAP3 SWAP2 POP POP JUMP JUMPDEST PUSH0 PUSH1 0xA0 DUP4 ADD PUSH0 DUP4 ADD MLOAD PUSH2 0x1872 PUSH0 DUP7 ADD DUP3 PUSH2 0x1478 JUMP JUMPDEST POP PUSH1 0x20 DUP4 ADD MLOAD PUSH2 0x1885 PUSH1 0x20 DUP7 ADD DUP3 PUSH2 0x1487 JUMP JUMPDEST POP PUSH1 0x40 DUP4 ADD MLOAD DUP5 DUP3 SUB PUSH1 0x40 DUP7 ADD MSTORE PUSH2 0x189D DUP3 DUP3 PUSH2 0x14A6 JUMP JUMPDEST SWAP2 POP POP PUSH1 0x60 DUP4 ADD MLOAD PUSH2 0x18B2 PUSH1 0x60 DUP7 ADD DUP3 PUSH2 0x1478 JUMP JUMPDEST POP PUSH1 0x80 DUP4 ADD MLOAD PUSH2 0x18C5 PUSH1 0x80 DUP7 ADD DUP3 PUSH2 0x1478 JUMP JUMPDEST POP DUP1 SWAP2 POP POP SWAP3 SWAP2 POP POP JUMP JUMPDEST PUSH0 PUSH1 0x20 DUP3 ADD SWAP1 POP DUP2 DUP2 SUB PUSH0 DUP4 ADD MSTORE PUSH2 0x18E8 DUP2 DUP5 PUSH2 0x185D JUMP JUMPDEST SWAP1 POP SWAP3 SWAP2 POP POP JUMP JUMPDEST PUSH32 0x4E487B7100000000000000000000000000000000000000000000000000000000 PUSH0 MSTORE PUSH1 0x22 PUSH1 0x4 MSTORE PUSH1 0x24 PUSH0 REVERT JUMPDEST PUSH0 PUSH1 0x2 DUP3 DIV SWAP1 POP PUSH1 0x1 DUP3 AND DUP1 PUSH2 0x1934 JUMPI PUSH1 0x7F DUP3 AND SWAP2 POP JUMPDEST PUSH1 0x20 DUP3 LT DUP2 SUB PUSH2 0x1947 JUMPI PUSH2 0x1946 PUSH2 0x18F0 JUMP JUMPDEST JUMPDEST POP SWAP2 SWAP1 POP JUMP JUMPDEST PUSH0 DUP1 REVERT JUMPDEST PUSH0 DUP1 REVERT JUMPDEST PUSH0 PUSH2 0x1967 PUSH2 0x1962 DUP5 PUSH2 0x170D JUMP JUMPDEST PUSH2 0x16F3 JUMP JUMPDEST SWAP1 POP DUP3 DUP2 MSTORE PUSH1 0x20 DUP2 ADD DUP5 DUP5 DUP5 ADD GT ISZERO PUSH2 0x1983 JUMPI PUSH2 0x1982 PUSH2 0x1691 JUMP JUMPDEST JUMPDEST PUSH2 0x198E DUP5 DUP3 DUP6 PUSH2 0x1376 JUMP JUMPDEST POP SWAP4 SWAP3 POP POP POP JUMP JUMPDEST PUSH0 DUP3 PUSH1 0x1F DUP4 ADD SLT PUSH2 0x19AA JUMPI PUSH2 0x19A9 PUSH2 0x168D JUMP JUMPDEST JUMPDEST DUP2 MLOAD PUSH2 0x19BA DUP5 DUP3 PUSH1 0x20 DUP7 ADD PUSH2 0x1955 JUMP JUMPDEST SWAP2 POP POP SWAP3 SWAP2 POP POP JUMP JUMPDEST PUSH0 PUSH1 0x40 DUP3 DUP5 SUB SLT ISZERO PUSH2 0x19D8 JUMPI PUSH2 0x19D7 PUSH2 0x194D JUMP JUMPDEST JUMPDEST PUSH2 0x19E2 PUSH1 0x40 PUSH2 0x16F3 JUMP JUMPDEST SWAP1 POP PUSH0 DUP3 ADD MLOAD PUSH8 0xFFFFFFFFFFFFFFFF DUP2 GT ISZERO PUSH2 0x1A01 JUMPI PUSH2 0x1A00 PUSH2 0x1951 JUMP JUMPDEST JUMPDEST PUSH2 0x1A0D DUP5 DUP3 DUP6 ADD PUSH2 0x1996 JUMP JUMPDEST PUSH0 DUP4 ADD MSTORE POP PUSH1 0x20 DUP3 ADD MLOAD PUSH8 0xFFFFFFFFFFFFFFFF DUP2 GT ISZERO PUSH2 0x1A30 JUMPI PUSH2 0x1A2F PUSH2 0x1951 JUMP JUMPDEST JUMPDEST PUSH2 0x1A3C DUP5 DUP3 DUP6 ADD PUSH2 0x1996 JUMP JUMPDEST PUSH1 0x20 DUP4 ADD MSTORE POP SWAP3 SWAP2 POP POP JUMP JUMPDEST PUSH0 PUSH1 0x20 DUP3 DUP5 SUB SLT ISZERO PUSH2 0x1A5D JUMPI PUSH2 0x1A5C PUSH2 0x126B JUMP JUMPDEST JUMPDEST PUSH0 DUP3 ADD MLOAD PUSH8 0xFFFFFFFFFFFFFFFF DUP2 GT ISZERO PUSH2 0x1A7A JUMPI PUSH2 0x1A79 PUSH2 0x126F JUMP JUMPDEST JUMPDEST PUSH2 0x1A86 DUP5 DUP3 DUP6 ADD PUSH2 0x19C3 JUMP JUMPDEST SWAP2 POP POP SWAP3 SWAP2 POP POP JUMP JUMPDEST PUSH32 0x55534552204E4F54205245474953545245440000000000000000000000000000 PUSH0 DUP3 ADD MSTORE POP JUMP JUMPDEST PUSH0 PUSH2 0x1AC3 PUSH1 0x12 DUP4 PUSH2 0x1366 JUMP JUMPDEST SWAP2 POP PUSH2 0x1ACE DUP3 PUSH2 0x1A8F JUMP JUMPDEST PUSH1 0x20 DUP3 ADD SWAP1 POP SWAP2 SWAP1 POP JUMP JUMPDEST PUSH0 PUSH1 0x20 DUP3 ADD SWAP1 POP DUP2 DUP2 SUB PUSH0 DUP4 ADD MSTORE PUSH2 0x1AF0 DUP2 PUSH2 0x1AB7 JUMP JUMPDEST SWAP1 POP SWAP2 SWAP1 POP JUMP JUMPDEST PUSH32 0x4E487B7100000000000000000000000000000000000000000000000000000000 PUSH0 MSTORE PUSH1 0x32 PUSH1 0x4 MSTORE PUSH1 0x24 PUSH0 REVERT JUMPDEST PUSH32 0x545745455420444F4553204E4F54204558495354000000000000000000000000 PUSH0 DUP3 ADD MSTORE POP JUMP JUMPDEST PUSH0 PUSH2 0x1B58 PUSH1 0x14 DUP4 PUSH2 0x1366 JUMP JUMPDEST SWAP2 POP PUSH2 0x1B63 DUP3 PUSH2 0x1B24 JUMP JUMPDEST PUSH1 0x20 DUP3 ADD SWAP1 POP SWAP2 SWAP1 POP JUMP JUMPDEST PUSH0 PUSH1 0x20 DUP3 ADD SWAP1 POP DUP2 DUP2 SUB PUSH0 DUP4 ADD MSTORE PUSH2 0x1B85 DUP2 PUSH2 0x1B4C JUMP JUMPDEST SWAP1 POP SWAP2 SWAP1 POP JUMP JUMPDEST PUSH32 0x545745455420484153204E4F204C494B45530000000000000000000000000000 PUSH0 DUP3 ADD MSTORE POP JUMP JUMPDEST PUSH0 PUSH2 0x1BC0 PUSH1 0x12 DUP4 PUSH2 0x1366 JUMP JUMPDEST SWAP2 POP PUSH2 0x1BCB DUP3 PUSH2 0x1B8C JUMP JUMPDEST PUSH1 0x20 DUP3 ADD SWAP1 POP SWAP2 SWAP1 POP JUMP JUMPDEST PUSH0 PUSH1 0x20 DUP3 ADD SWAP1 POP DUP2 DUP2 SUB PUSH0 DUP4 ADD MSTORE PUSH2 0x1BED DUP2 PUSH2 0x1BB4 JUMP JUMPDEST SWAP1 POP SWAP2 SWAP1 POP JUMP JUMPDEST PUSH32 0x4E487B7100000000000000000000000000000000000000000000000000000000 PUSH0 MSTORE PUSH1 0x11 PUSH1 0x4 MSTORE PUSH1 0x24 PUSH0 REVERT JUMPDEST PUSH0 PUSH2 0x1C2B DUP3 PUSH2 0x12CD JUMP JUMPDEST SWAP2 POP PUSH0 DUP3 SUB PUSH2 0x1C3D JUMPI PUSH2 0x1C3C PUSH2 0x1BF4 JUMP JUMPDEST JUMPDEST PUSH1 0x1 DUP3 SUB SWAP1 POP SWAP2 SWAP1 POP JUMP JUMPDEST PUSH0 PUSH1 0x80 DUP3 ADD SWAP1 POP PUSH2 0x1C5B PUSH0 DUP4 ADD DUP8 PUSH2 0x134D JUMP JUMPDEST PUSH2 0x1C68 PUSH1 0x20 DUP4 ADD DUP7 PUSH2 0x134D JUMP JUMPDEST PUSH2 0x1C75 PUSH1 0x40 DUP4 ADD DUP6 PUSH2 0x133E JUMP JUMPDEST PUSH2 0x1C82 PUSH1 0x60 DUP4 ADD DUP5 PUSH2 0x133E JUMP JUMPDEST SWAP6 SWAP5 POP POP POP POP POP JUMP JUMPDEST PUSH0 PUSH2 0x1C95 DUP3 PUSH2 0x12CD JUMP JUMPDEST SWAP2 POP PUSH32 0xFFFFFFFFFFFFFFFFFFFFFFFFFFFFFFFFFFFFFFFFFFFFFFFFFFFFFFFFFFFFFFFF DUP3 SUB PUSH2 0x1CC7 JUMPI PUSH2 0x1CC6 PUSH2 0x1BF4 JUMP JUMPDEST JUMPDEST PUSH1 0x1 DUP3 ADD SWAP1 POP SWAP2 SWAP1 POP JUMP JUMPDEST PUSH32 0x547765657420697320746F6F206C6F6E672062726F2100000000000000000000 PUSH0 DUP3 ADD MSTORE POP JUMP JUMPDEST PUSH0 PUSH2 0x1D06 PUSH1 0x16 DUP4 PUSH2 0x1366 JUMP JUMPDEST SWAP2 POP PUSH2 0x1D11 DUP3 PUSH2 0x1CD2 JUMP JUMPDEST PUSH1 0x20 DUP3 ADD SWAP1 POP SWAP2 SWAP1 POP JUMP JUMPDEST PUSH0 PUSH1 0x20 DUP3 ADD SWAP1 POP DUP2 DUP2 SUB PUSH0 DUP4 ADD MSTORE PUSH2 0x1D33 DUP2 PUSH2 0x1CFA JUMP JUMPDEST SWAP1 POP SWAP2 SWAP1 POP JUMP JUMPDEST PUSH0 DUP2 SWAP1 POP DUP2 PUSH0 MSTORE PUSH1 0x20 PUSH0 KECCAK256 SWAP1 POP SWAP2 SWAP1 POP JUMP JUMPDEST PUSH0 PUSH1 0x20 PUSH1 0x1F DUP4 ADD DIV SWAP1 POP SWAP2 SWAP1 POP JUMP JUMPDEST PUSH0 DUP3 DUP3 SHL SWAP1 POP SWAP3 SWAP2 POP POP JUMP JUMPDEST PUSH0 PUSH1 0x8 DUP4 MUL PUSH2 0x1D96 PUSH32 0xFFFFFFFFFFFFFFFFFFFFFFFFFFFFFFFFFFFFFFFFFFFFFFFFFFFFFFFFFFFFFFFF DUP3 PUSH2 0x1D5B JUMP JUMPDEST PUSH2 0x1DA0 DUP7 DUP4 PUSH2 0x1D5B JUMP JUMPDEST SWAP6 POP DUP1 NOT DUP5 AND SWAP4 POP DUP1 DUP7 AND DUP5 OR SWAP3 POP POP POP SWAP4 SWAP3 POP POP POP JUMP JUMPDEST PUSH0 DUP2 SWAP1 POP SWAP2 SWAP1 POP JUMP JUMPDEST PUSH0 PUSH2 0x1DDB PUSH2 0x1DD6 PUSH2 0x1DD1 DUP5 PUSH2 0x12CD JUMP JUMPDEST PUSH2 0x1DB8 JUMP JUMPDEST PUSH2 0x12CD JUMP JUMPDEST SWAP1 POP SWAP2 SWAP1 POP JUMP JUMPDEST PUSH0 DUP2 SWAP1 POP SWAP2 SWAP1 POP JUMP JUMPDEST PUSH2 0x1DF4 DUP4 PUSH2 0x1DC1 JUMP JUMPDEST PUSH2 0x1E08 PUSH2 0x1E00 DUP3 PUSH2 0x1DE2 JUMP JUMPDEST DUP5 DUP5 SLOAD PUSH2 0x1D67 JUMP JUMPDEST DUP3 SSTORE POP POP POP POP JUMP JUMPDEST PUSH0 SWAP1 JUMP JUMPDEST PUSH2 0x1E1C PUSH2 0x1E10 JUMP JUMPDEST PUSH2 0x1E27 DUP2 DUP5 DUP5 PUSH2 0x1DEB JUMP JUMPDEST POP POP POP JUMP JUMPDEST JUMPDEST DUP2 DUP2 LT ISZERO PUSH2 0x1E4A JUMPI PUSH2 0x1E3F PUSH0 DUP3 PUSH2 0x1E14 JUMP JUMPDEST PUSH1 0x1 DUP2 ADD SWAP1 POP PUSH2 0x1E2D JUMP JUMPDEST POP POP JUMP JUMPDEST PUSH1 0x1F DUP3 GT ISZERO PUSH2 0x1E8F JUMPI PUSH2 0x1E60 DUP2 PUSH2 0x1D3A JUMP JUMPDEST PUSH2 0x1E69 DUP5 PUSH2 0x1D4C JUMP JUMPDEST DUP2 ADD PUSH1 0x20 DUP6 LT ISZERO PUSH2 0x1E78 JUMPI DUP2 SWAP1 POP JUMPDEST PUSH2 0x1E8C PUSH2 0x1E84 DUP6 PUSH2 0x1D4C JUMP JUMPDEST DUP4 ADD DUP3 PUSH2 0x1E2C JUMP JUMPDEST POP POP JUMPDEST POP POP POP JUMP JUMPDEST PUSH0 DUP3 DUP3 SHR SWAP1 POP SWAP3 SWAP2 POP POP JUMP JUMPDEST PUSH0 PUSH2 0x1EAF PUSH0 NOT DUP5 PUSH1 0x8 MUL PUSH2 0x1E94 JUMP JUMPDEST NOT DUP1 DUP4 AND SWAP2 POP POP SWAP3 SWAP2 POP POP JUMP JUMPDEST PUSH0 PUSH2 0x1EC7 DUP4 DUP4 PUSH2 0x1EA0 JUMP JUMPDEST SWAP2 POP DUP3 PUSH1 0x2 MUL DUP3 OR SWAP1 POP SWAP3 SWAP2 POP POP JUMP JUMPDEST PUSH2 0x1EE0 DUP3 PUSH2 0x135C JUMP JUMPDEST PUSH8 0xFFFFFFFFFFFFFFFF DUP2 GT ISZERO PUSH2 0x1EF9 JUMPI PUSH2 0x1EF8 PUSH2 0x1695 JUMP JUMPDEST JUMPDEST PUSH2 0x1F03 DUP3 SLOAD PUSH2 0x191D JUMP JUMPDEST PUSH2 0x1F0E DUP3 DUP3 DUP6 PUSH2 0x1E4E JUMP JUMPDEST PUSH0 PUSH1 0x20 SWAP1 POP PUSH1 0x1F DUP4 GT PUSH1 0x1 DUP2 EQ PUSH2 0x1F3F JUMPI PUSH0 DUP5 ISZERO PUSH2 0x1F2D JUMPI DUP3 DUP8 ADD MLOAD SWAP1 POP JUMPDEST PUSH2 0x1F37 DUP6 DUP3 PUSH2 0x1EBC JUMP JUMPDEST DUP7 SSTORE POP PUSH2 0x1F9E JUMP JUMPDEST PUSH1 0x1F NOT DUP5 AND PUSH2 0x1F4D DUP7 PUSH2 0x1D3A JUMP JUMPDEST PUSH0 JUMPDEST DUP3 DUP2 LT ISZERO PUSH2 0x1F74 JUMPI DUP5 DUP10 ADD MLOAD DUP3 SSTORE PUSH1 0x1 DUP3 ADD SWAP2 POP PUSH1 0x20 DUP6 ADD SWAP5 POP PUSH1 0x20 DUP2 ADD SWAP1 POP PUSH2 0x1F4F JUMP JUMPDEST DUP7 DUP4 LT ISZERO PUSH2 0x1F91 JUMPI DUP5 DUP10 ADD MLOAD PUSH2 0x1F8D PUSH1 0x1F DUP10 AND DUP3 PUSH2 0x1EA0 JUMP JUMPDEST DUP4 SSTORE POP JUMPDEST PUSH1 0x1 PUSH1 0x2 DUP9 MUL ADD DUP9 SSTORE POP POP POP JUMPDEST POP POP POP POP POP POP JUMP JUMPDEST PUSH0 PUSH1 0x80 DUP3 ADD SWAP1 POP PUSH2 0x1FB9 PUSH0 DUP4 ADD DUP8 PUSH2 0x133E JUMP JUMPDEST PUSH2 0x1FC6 PUSH1 0x20 DUP4 ADD DUP7 PUSH2 0x134D JUMP JUMPDEST DUP2 DUP2 SUB PUSH1 0x40 DUP4 ADD MSTORE PUSH2 0x1FD8 DUP2 DUP6 PUSH2 0x1394 JUMP JUMPDEST SWAP1 POP PUSH2 0x1FE7 PUSH1 0x60 DUP4 ADD DUP5 PUSH2 0x133E JUMP JUMPDEST SWAP6 SWAP5 POP POP POP POP POP JUMP JUMPDEST PUSH0 PUSH2 0x1FFA DUP3 PUSH2 0x12CD JUMP JUMPDEST SWAP2 POP PUSH2 0x2005 DUP4 PUSH2 0x12CD JUMP JUMPDEST SWAP3 POP DUP3 DUP3 ADD SWAP1 POP DUP1 DUP3 GT ISZERO PUSH2 0x201D JUMPI PUSH2 0x201C PUSH2 0x1BF4 JUMP JUMPDEST JUMPDEST SWAP3 SWAP2 POP POP JUMP INVALID LOG2 PUSH5 0x6970667358 0x22 SLT KECCAK256 0x4F SWAP8 SWAP16 0xAE SSTORE CALLVALUE 0xB9 KECCAK256 SWAP7 LOG0 DUP6 STOP SWAP16 0xA5 SDIV 0xD0 0xD3 0xEC CALLDATACOPY 0xE1 PREVRANDAO DUP9 EXTCODESIZE 0x4D GT CALLER 0xCF 0x29 MLOAD 0xCE SWAP5 0x2A PUSH5 0x736F6C6343 STOP ADDMOD BYTE STOP CALLER "
				},
				"gasEstimates": {
					"creation": {
						"codeDepositCost": "1656200",
						"executionCost": "infinite",
						"totalCost": "infinite"
					},
					"external": {
						"MAX_TWEET_LENGTH()": "2627",
						"changeTweetLength(uint16)": "infinite",
						"createTweet(string)": "infinite",
						"getAllTweets(address)": "infinite",
						"getTotalLikes(address)": "infinite",
						"getTweet(uint256)": "infinite",
						"likeTweet(address,uint256)": "infinite",
						"owner()": "2581",
						"renounceOwnership()": "infinite",
						"transferOwnership(address)": "infinite",
						"tweets(address,uint256)": "infinite",
						"unlikeTweet(address,uint256)": "infinite"
					}
				},
				"methodIdentifiers": {
					"MAX_TWEET_LENGTH()": "6eb10797",
					"changeTweetLength(uint16)": "58bfa4ab",
					"createTweet(string)": "7c9cd2bc",
					"getAllTweets(address)": "12e7ee1c",
					"getTotalLikes(address)": "820785cc",
					"getTweet(uint256)": "c3ad5ecb",
					"likeTweet(address,uint256)": "63378216",
					"owner()": "8da5cb5b",
					"renounceOwnership()": "715018a6",
					"transferOwnership(address)": "f2fde38b",
					"tweets(address,uint256)": "05a1b4a9",
					"unlikeTweet(address,uint256)": "3d9b569f"
				}
			},
			"storageLayout": {
				"storage": [
					{
						"astId": 8,
						"contract": "contracts/Twitter.sol:Twitter",
						"label": "_owner",
						"offset": 0,
						"slot": "0",
						"type": "t_address"
					},
					{
						"astId": 199,
						"contract": "contracts/Twitter.sol:Twitter",
						"label": "MAX_TWEET_LENGTH",
						"offset": 20,
						"slot": "0",
						"type": "t_uint16"
					},
					{
						"astId": 216,
						"contract": "contracts/Twitter.sol:Twitter",
						"label": "tweets",
						"offset": 0,
						"slot": "1",
						"type": "t_mapping(t_address,t_array(t_struct(Tweet)210_storage)dyn_storage)"
					},
					{
						"astId": 219,
						"contract": "contracts/Twitter.sol:Twitter",
						"label": "profileContract",
						"offset": 0,
						"slot": "2",
						"type": "t_contract(IProfile)194"
					}
				],
				"types": {
					"t_address": {
						"encoding": "inplace",
						"label": "address",
						"numberOfBytes": "20"
					},
					"t_array(t_struct(Tweet)210_storage)dyn_storage": {
						"base": "t_struct(Tweet)210_storage",
						"encoding": "dynamic_array",
						"label": "struct Twitter.Tweet[]",
						"numberOfBytes": "32"
					},
					"t_contract(IProfile)194": {
						"encoding": "inplace",
						"label": "contract IProfile",
						"numberOfBytes": "20"
					},
					"t_mapping(t_address,t_array(t_struct(Tweet)210_storage)dyn_storage)": {
						"encoding": "mapping",
						"key": "t_address",
						"label": "mapping(address => struct Twitter.Tweet[])",
						"numberOfBytes": "32",
						"value": "t_array(t_struct(Tweet)210_storage)dyn_storage"
					},
					"t_string_storage": {
						"encoding": "bytes",
						"label": "string",
						"numberOfBytes": "32"
					},
					"t_struct(Tweet)210_storage": {
						"encoding": "inplace",
						"label": "struct Twitter.Tweet",
						"members": [
							{
								"astId": 201,
								"contract": "contracts/Twitter.sol:Twitter",
								"label": "id",
								"offset": 0,
								"slot": "0",
								"type": "t_uint256"
							},
							{
								"astId": 203,
								"contract": "contracts/Twitter.sol:Twitter",
								"label": "author",
								"offset": 0,
								"slot": "1",
								"type": "t_address"
							},
							{
								"astId": 205,
								"contract": "contracts/Twitter.sol:Twitter",
								"label": "content",
								"offset": 0,
								"slot": "2",
								"type": "t_string_storage"
							},
							{
								"astId": 207,
								"contract": "contracts/Twitter.sol:Twitter",
								"label": "timestamp",
								"offset": 0,
								"slot": "3",
								"type": "t_uint256"
							},
							{
								"astId": 209,
								"contract": "contracts/Twitter.sol:Twitter",
								"label": "likes",
								"offset": 0,
								"slot": "4",
								"type": "t_uint256"
							}
						],
						"numberOfBytes": "160"
					},
					"t_uint16": {
						"encoding": "inplace",
						"label": "uint16",
						"numberOfBytes": "2"
					},
					"t_uint256": {
						"encoding": "inplace",
						"label": "uint256",
						"numberOfBytes": "32"
					}
				}
			},
			"userdoc": {
				"kind": "user",
				"methods": {},
				"version": 1
			}
		}
	}
}